{
  "contractName": "ERC20TokenFactory",
  "abi": [
    {
      "inputs": [],
      "stateMutability": "nonpayable",
      "type": "constructor"
    },
    {
      "inputs": [],
      "name": "admin",
      "outputs": [
        {
          "internalType": "address",
          "name": "",
          "type": "address"
        }
      ],
      "stateMutability": "view",
      "type": "function",
      "constant": true
    },
    {
      "inputs": [
        {
          "internalType": "uint256",
          "name": "",
          "type": "uint256"
        }
      ],
      "name": "tokens",
      "outputs": [
        {
          "internalType": "contract ERC20Token",
          "name": "",
          "type": "address"
        }
      ],
      "stateMutability": "view",
      "type": "function",
      "constant": true
    },
    {
      "inputs": [
        {
          "internalType": "string",
          "name": "_name",
          "type": "string"
        },
        {
          "internalType": "string",
          "name": "_symbol",
          "type": "string"
        },
        {
          "internalType": "uint8",
          "name": "_decimals",
          "type": "uint8"
        },
        {
          "internalType": "string",
          "name": "_tokenURI",
          "type": "string"
        }
      ],
      "name": "createToken",
      "outputs": [
        {
          "internalType": "contract ERC20Token",
          "name": "",
          "type": "address"
        }
      ],
      "stateMutability": "nonpayable",
      "type": "function"
    },
    {
      "inputs": [],
      "name": "NrTokens",
      "outputs": [
        {
          "internalType": "uint256",
          "name": "",
          "type": "uint256"
        }
      ],
      "stateMutability": "view",
      "type": "function",
      "constant": true
    },
    {
      "inputs": [],
      "name": "destroy",
      "outputs": [],
      "stateMutability": "nonpayable",
      "type": "function"
    }
  ],
  "bytecode": "0x608060405234801561001057600080fd5b50336000806101000a81548173ffffffffffffffffffffffffffffffffffffffff021916908373ffffffffffffffffffffffffffffffffffffffff1602179055506122aa806100606000396000f3fe60806040523480156200001157600080fd5b50600436106200005e5760003560e01c80630650b81014620000635780632482ee2714620000835780634f64b2be14620002af57806383197ef0146200030a578063f851a4401462000316575b600080fd5b6200006d6200034c565b6040518082815260200191505060405180910390f35b62000283600480360360808110156200009b57600080fd5b8101908080359060200190640100000000811115620000b957600080fd5b820183602082011115620000cc57600080fd5b80359060200191846001830284011164010000000083111715620000ef57600080fd5b91908080601f016020809104026020016040519081016040528093929190818152602001838380828437600081840152601f19601f820116905080830192505050505050509192919290803590602001906401000000008111156200015357600080fd5b8201836020820111156200016657600080fd5b803590602001918460018302840111640100000000831117156200018957600080fd5b91908080601f016020809104026020016040519081016040528093929190818152602001838380828437600081840152601f19601f820116905080830192505050505050509192919290803560ff16906020019092919080359060200190640100000000811115620001fa57600080fd5b8201836020820111156200020d57600080fd5b803590602001918460018302840111640100000000831117156200023057600080fd5b91908080601f016020809104026020016040519081016040528093929190818152602001838380828437600081840152601f19601f82011690508083019250505050505050919291929050505062000359565b604051808273ffffffffffffffffffffffffffffffffffffffff16815260200191505060405180910390f35b620002de60048036036020811015620002c757600080fd5b810190808035906020019092919050505062000650565b604051808273ffffffffffffffffffffffffffffffffffffffff16815260200191505060405180910390f35b620003146200068d565b005b6200032062000827565b604051808273ffffffffffffffffffffffffffffffffffffffff16815260200191505060405180910390f35b6000600180549050905090565b60008060009054906101000a900473ffffffffffffffffffffffffffffffffffffffff1673ffffffffffffffffffffffffffffffffffffffff163373ffffffffffffffffffffffffffffffffffffffff16146200041e576040517f08c379a00000000000000000000000000000000000000000000000000000000081526004018080602001828103825260148152602001807f4d75737420686176652061646d696e20726f6c6500000000000000000000000081525060200191505060405180910390fd5b60018585858560008054906101000a900473ffffffffffffffffffffffffffffffffffffffff1660405162000453906200084b565b8080602001806020018660ff168152602001806020018573ffffffffffffffffffffffffffffffffffffffff168152602001848103845289818151815260200191508051906020019080838360005b83811015620004bf578082015181840152602081019050620004a2565b50505050905090810190601f168015620004ed5780820380516001836020036101000a031916815260200191505b50848103835288818151815260200191508051906020019080838360005b83811015620005285780820151818401526020810190506200050b565b50505050905090810190601f168015620005565780820380516001836020036101000a031916815260200191505b50848103825286818151815260200191508051906020019080838360005b838110156200059157808201518184015260208101905062000574565b50505050905090810190601f168015620005bf5780820380516001836020036101000a031916815260200191505b5098505050505050505050604051809103906000f080158015620005e7573d6000803e3d6000fd5b509080600181540180825580915050600190039060005260206000200160009091909190916101000a81548173ffffffffffffffffffffffffffffffffffffffff021916908373ffffffffffffffffffffffffffffffffffffffff160217905550949350505050565b600181815481106200065e57fe5b906000526020600020016000915054906101000a900473ffffffffffffffffffffffffffffffffffffffff1681565b60008054906101000a900473ffffffffffffffffffffffffffffffffffffffff1673ffffffffffffffffffffffffffffffffffffffff163373ffffffffffffffffffffffffffffffffffffffff16146200074f576040517f08c379a00000000000000000000000000000000000000000000000000000000081526004018080602001828103825260148152602001807f4d75737420686176652061646d696e20726f6c6500000000000000000000000081525060200191505060405180910390fd5b6000600180549050905060005b818110156200080d57600181815481106200077357fe5b9060005260206000200160009054906101000a900473ffffffffffffffffffffffffffffffffffffffff1673ffffffffffffffffffffffffffffffffffffffff166383197ef06040518163ffffffff1660e01b8152600401600060405180830381600087803b158015620007e657600080fd5b505af1158015620007fb573d6000803e3d6000fd5b5050505080806001019150506200075c565b503373ffffffffffffffffffffffffffffffffffffffff16ff5b60008054906101000a900473ffffffffffffffffffffffffffffffffffffffff1681565b611a1b806200085a8339019056fe60806040523480156200001157600080fd5b5060405162001a1b38038062001a1b833981810160405260a08110156200003757600080fd5b81019080805160405193929190846401000000008211156200005857600080fd5b838201915060208201858111156200006f57600080fd5b82518660018202830111640100000000821117156200008d57600080fd5b8083526020830192505050908051906020019080838360005b83811015620000c3578082015181840152602081019050620000a6565b50505050905090810190601f168015620000f15780820380516001836020036101000a031916815260200191505b50604052602001805160405193929190846401000000008211156200011557600080fd5b838201915060208201858111156200012c57600080fd5b82518660018202830111640100000000821117156200014a57600080fd5b8083526020830192505050908051906020019080838360005b838110156200018057808201518184015260208101905062000163565b50505050905090810190601f168015620001ae5780820380516001836020036101000a031916815260200191505b506040526020018051906020019092919080516040519392919084640100000000821115620001dc57600080fd5b83820191506020820185811115620001f357600080fd5b82518660018202830111640100000000821117156200021157600080fd5b8083526020830192505050908051906020019080838360005b83811015620002475780820151818401526020810190506200022a565b50505050905090810190601f168015620002755780820380516001836020036101000a031916815260200191505b506040526020018051906020019092919050505080600260016101000a81548173ffffffffffffffffffffffffffffffffffffffff021916908373ffffffffffffffffffffffffffffffffffffffff1602179055508460009080519060200190620002e292919062000709565b508360019080519060200190620002fb92919062000709565b5082600260006101000a81548160ff021916908360ff16021790555033600360006101000a81548173ffffffffffffffffffffffffffffffffffffffff021916908373ffffffffffffffffffffffffffffffffffffffff16021790555081600490805190602001906200037092919062000709565b506200039c81600260009054906101000a900460ff1660ff16600a0a61271002620003a760201b60201c565b5050505050620007af565b600260019054906101000a900473ffffffffffffffffffffffffffffffffffffffff1673ffffffffffffffffffffffffffffffffffffffff163373ffffffffffffffffffffffffffffffffffffffff161480620004515750600360009054906101000a900473ffffffffffffffffffffffffffffffffffffffff1673ffffffffffffffffffffffffffffffffffffffff163373ffffffffffffffffffffffffffffffffffffffff16145b620004c4576040517f08c379a00000000000000000000000000000000000000000000000000000000081526004018080602001828103825260148152602001807f4d75737420686176652061646d696e20726f6c6500000000000000000000000081525060200191505060405180910390fd5b600073ffffffffffffffffffffffffffffffffffffffff168273ffffffffffffffffffffffffffffffffffffffff16141562000568576040517f08c379a000000000000000000000000000000000000000000000000000000000815260040180806020018281038252601f8152602001807f45524332303a206d696e7420746f20746865207a65726f20616464726573730081525060200191505060405180910390fd5b6200057c600654826200068060201b60201c565b600681905550620005d3600560008473ffffffffffffffffffffffffffffffffffffffff1673ffffffffffffffffffffffffffffffffffffffff16815260200190815260200160002054826200068060201b60201c565b600560008473ffffffffffffffffffffffffffffffffffffffff1673ffffffffffffffffffffffffffffffffffffffff168152602001908152602001600020819055508173ffffffffffffffffffffffffffffffffffffffff16600073ffffffffffffffffffffffffffffffffffffffff167fddf252ad1be2c89b69c2b068fc378daa952ba7f163c4a11628f55a4df523b3ef836040518082815260200191505060405180910390a35050565b600080828401905083811015620006ff576040517f08c379a000000000000000000000000000000000000000000000000000000000815260040180806020018281038252601b8152602001807f536166654d6174683a206164646974696f6e206f766572666c6f77000000000081525060200191505060405180910390fd5b8091505092915050565b828054600181600116156101000203166002900490600052602060002090601f016020900481019282601f106200074c57805160ff19168380011785556200077d565b828001600101855582156200077d579182015b828111156200077c5782518255916020019190600101906200075f565b5b5090506200078c919062000790565b5090565b5b80821115620007ab57600081600090555060010162000791565b5090565b61125c80620007bf6000396000f3fe608060405234801561001057600080fd5b50600436106100b45760003560e01c806383197ef01161007157806383197ef01461028a57806395d89b4114610294578063a9059cbb14610317578063bfa0a0fc1461037b578063c5cc6b6a146103a9578063e0df5b6f146103dd576100b4565b806301bc45c9146100b957806306fdde03146100ed57806318160ddd14610170578063313ce5671461018e5780633c130d90146101af57806370a0823114610232575b600080fd5b6100c1610498565b604051808273ffffffffffffffffffffffffffffffffffffffff16815260200191505060405180910390f35b6100f56104be565b6040518080602001828103825283818151815260200191508051906020019080838360005b8381101561013557808201518184015260208101905061011a565b50505050905090810190601f1680156101625780820380516001836020036101000a031916815260200191505b509250505060405180910390f35b610178610560565b6040518082815260200191505060405180910390f35b61019661056a565b604051808260ff16815260200191505060405180910390f35b6101b7610581565b6040518080602001828103825283818151815260200191508051906020019080838360005b838110156101f75780820151818401526020810190506101dc565b50505050905090810190601f1680156102245780820380516001836020036101000a031916815260200191505b509250505060405180910390f35b6102746004803603602081101561024857600080fd5b81019080803573ffffffffffffffffffffffffffffffffffffffff169060200190929190505050610623565b6040518082815260200191505060405180910390f35b61029261066c565b005b61029c6107a0565b6040518080602001828103825283818151815260200191508051906020019080838360005b838110156102dc5780820151818401526020810190506102c1565b50505050905090810190601f1680156103095780820380516001836020036101000a031916815260200191505b509250505060405180910390f35b6103636004803603604081101561032d57600080fd5b81019080803573ffffffffffffffffffffffffffffffffffffffff16906020019092919080359060200190929190505050610842565b60405180821515815260200191505060405180910390f35b6103a76004803603602081101561039157600080fd5b8101908080359060200190929190505050610859565b005b6103b1610981565b604051808273ffffffffffffffffffffffffffffffffffffffff16815260200191505060405180910390f35b610496600480360360208110156103f357600080fd5b810190808035906020019064010000000081111561041057600080fd5b82018360208201111561042257600080fd5b8035906020019184600183028401116401000000008311171561044457600080fd5b91908080601f016020809104026020016040519081016040528093929190818152602001838380828437600081840152601f19601f8201169050808301925050505050505091929192905050506109a7565b005b600260019054906101000a900473ffffffffffffffffffffffffffffffffffffffff1681565b606060008054600181600116156101000203166002900480601f0160208091040260200160405190810160405280929190818152602001828054600181600116156101000203166002900480156105565780601f1061052b57610100808354040283529160200191610556565b820191906000526020600020905b81548152906001019060200180831161053957829003601f168201915b5050505050905090565b6000600654905090565b6000600260009054906101000a900460ff16905090565b606060048054600181600116156101000203166002900480601f0160208091040260200160405190810160405280929190818152602001828054600181600116156101000203166002900480156106195780601f106105ee57610100808354040283529160200191610619565b820191906000526020600020905b8154815290600101906020018083116105fc57829003601f168201915b5050505050905090565b6000600560008373ffffffffffffffffffffffffffffffffffffffff1673ffffffffffffffffffffffffffffffffffffffff168152602001908152602001600020549050919050565b600260019054906101000a900473ffffffffffffffffffffffffffffffffffffffff1673ffffffffffffffffffffffffffffffffffffffff163373ffffffffffffffffffffffffffffffffffffffff1614806107155750600360009054906101000a900473ffffffffffffffffffffffffffffffffffffffff1673ffffffffffffffffffffffffffffffffffffffff163373ffffffffffffffffffffffffffffffffffffffff16145b610787576040517f08c379a00000000000000000000000000000000000000000000000000000000081526004018080602001828103825260148152602001807f4d75737420686176652061646d696e20726f6c6500000000000000000000000081525060200191505060405180910390fd5b3373ffffffffffffffffffffffffffffffffffffffff16ff5b606060018054600181600116156101000203166002900480601f0160208091040260200160405190810160405280929190818152602001828054600181600116156101000203166002900480156108385780601f1061080d57610100808354040283529160200191610838565b820191906000526020600020905b81548152906001019060200180831161081b57829003601f168201915b5050505050905090565b600061084f338484610adc565b6001905092915050565b600260019054906101000a900473ffffffffffffffffffffffffffffffffffffffff1673ffffffffffffffffffffffffffffffffffffffff163373ffffffffffffffffffffffffffffffffffffffff1614806109025750600360009054906101000a900473ffffffffffffffffffffffffffffffffffffffff1673ffffffffffffffffffffffffffffffffffffffff163373ffffffffffffffffffffffffffffffffffffffff16145b610974576040517f08c379a00000000000000000000000000000000000000000000000000000000081526004018080602001828103825260148152602001807f4d75737420686176652061646d696e20726f6c6500000000000000000000000081525060200191505060405180910390fd5b61097e3382610d6a565b50565b600360009054906101000a900473ffffffffffffffffffffffffffffffffffffffff1681565b600260019054906101000a900473ffffffffffffffffffffffffffffffffffffffff1673ffffffffffffffffffffffffffffffffffffffff163373ffffffffffffffffffffffffffffffffffffffff161480610a505750600360009054906101000a900473ffffffffffffffffffffffffffffffffffffffff1673ffffffffffffffffffffffffffffffffffffffff163373ffffffffffffffffffffffffffffffffffffffff16145b610ac2576040517f08c379a00000000000000000000000000000000000000000000000000000000081526004018080602001828103825260148152602001807f4d75737420686176652061646d696e20726f6c6500000000000000000000000081525060200191505060405180910390fd5b8060049080519060200190610ad8929190611141565b5050565b600073ffffffffffffffffffffffffffffffffffffffff168373ffffffffffffffffffffffffffffffffffffffff161415610b62576040517f08c379a00000000000000000000000000000000000000000000000000000000081526004018080602001828103825260258152602001806112026025913960400191505060405180910390fd5b600073ffffffffffffffffffffffffffffffffffffffff168273ffffffffffffffffffffffffffffffffffffffff161415610be8576040517f08c379a00000000000000000000000000000000000000000000000000000000081526004018080602001828103825260238152602001806111df6023913960400191505060405180910390fd5b610c31600560008573ffffffffffffffffffffffffffffffffffffffff1673ffffffffffffffffffffffffffffffffffffffff1681526020019081526020016000205482611030565b600560008573ffffffffffffffffffffffffffffffffffffffff1673ffffffffffffffffffffffffffffffffffffffff16815260200190815260200160002081905550610cbd600560008473ffffffffffffffffffffffffffffffffffffffff1673ffffffffffffffffffffffffffffffffffffffff16815260200190815260200160002054826110b9565b600560008473ffffffffffffffffffffffffffffffffffffffff1673ffffffffffffffffffffffffffffffffffffffff168152602001908152602001600020819055508173ffffffffffffffffffffffffffffffffffffffff168373ffffffffffffffffffffffffffffffffffffffff167fddf252ad1be2c89b69c2b068fc378daa952ba7f163c4a11628f55a4df523b3ef836040518082815260200191505060405180910390a3505050565b600260019054906101000a900473ffffffffffffffffffffffffffffffffffffffff1673ffffffffffffffffffffffffffffffffffffffff163373ffffffffffffffffffffffffffffffffffffffff161480610e135750600360009054906101000a900473ffffffffffffffffffffffffffffffffffffffff1673ffffffffffffffffffffffffffffffffffffffff163373ffffffffffffffffffffffffffffffffffffffff16145b610e85576040517f08c379a00000000000000000000000000000000000000000000000000000000081526004018080602001828103825260148152602001807f4d75737420686176652061646d696e20726f6c6500000000000000000000000081525060200191505060405180910390fd5b600073ffffffffffffffffffffffffffffffffffffffff168273ffffffffffffffffffffffffffffffffffffffff161415610f28576040517f08c379a000000000000000000000000000000000000000000000000000000000815260040180806020018281038252601f8152602001807f45524332303a206d696e7420746f20746865207a65726f20616464726573730081525060200191505060405180910390fd5b610f34600654826110b9565b600681905550610f83600560008473ffffffffffffffffffffffffffffffffffffffff1673ffffffffffffffffffffffffffffffffffffffff16815260200190815260200160002054826110b9565b600560008473ffffffffffffffffffffffffffffffffffffffff1673ffffffffffffffffffffffffffffffffffffffff168152602001908152602001600020819055508173ffffffffffffffffffffffffffffffffffffffff16600073ffffffffffffffffffffffffffffffffffffffff167fddf252ad1be2c89b69c2b068fc378daa952ba7f163c4a11628f55a4df523b3ef836040518082815260200191505060405180910390a35050565b6000828211156110a8576040517f08c379a000000000000000000000000000000000000000000000000000000000815260040180806020018281038252601e8152602001807f536166654d6174683a207375627472616374696f6e206f766572666c6f77000081525060200191505060405180910390fd5b600082840390508091505092915050565b600080828401905083811015611137576040517f08c379a000000000000000000000000000000000000000000000000000000000815260040180806020018281038252601b8152602001807f536166654d6174683a206164646974696f6e206f766572666c6f77000000000081525060200191505060405180910390fd5b8091505092915050565b828054600181600116156101000203166002900490600052602060002090601f016020900481019282601f1061118257805160ff19168380011785556111b0565b828001600101855582156111b0579182015b828111156111af578251825591602001919060010190611194565b5b5090506111bd91906111c1565b5090565b5b808211156111da5760008160009055506001016111c2565b509056fe45524332303a207472616e7366657220746f20746865207a65726f206164647265737345524332303a207472616e736665722066726f6d20746865207a65726f2061646472657373a2646970667358221220a687ffac1eb4aa3fd2fd67faa96cf8fe0942507cdd8764c067723e454e40caf864736f6c63430007000033a2646970667358221220ac8a9e49a73a437a21837e67fefea69961712ce3f34e33c5aa4e0926a12f60f164736f6c63430007000033",
  "immutableReferences": {},
  "source": "// SPDX-License-Identifier: MIT\r\n// Adapted from https://github.com/OpenZeppelin/openzeppelin-contracts/tree/master/contracts/token/ERC20\r\n// https://raw.githubusercontent.com/web3examples/ethereum/master/token_examples/VeryBasicToken.sol\r\n\r\npragma solidity ^0.7.0;\r\n\r\ncontract ERC20Token {\r\n    string private _name;\r\n    string private _symbol;\r\n    uint8 private _decimals;\r\n    address public  _admin;\r\n\taddress public _factory;\r\n\t\r\n\tstring private _tokenURI;\r\n    mapping (address => uint256) private _balances;\r\n    uint256 private _totalSupply;\r\n\r\n    event Transfer(address indexed from, address indexed to, uint256 value);\r\n\t\r\n    modifier isAdmin {\r\n        require( (msg.sender == _admin) || (msg.sender==_factory),\"Must have admin role\");\r\n        _;\r\n    }\r\n    constructor (string memory name, string memory symbol, uint8 decimals,string memory tokenURI,address admin) {\r\n\t    _admin = admin;\r\n        _name = name;\r\n        _symbol = symbol;\r\n        _decimals = decimals;\r\n\t\t_factory = msg.sender;\r\n\t\t_tokenURI = tokenURI;\r\n        _mint(admin, 10000 * (10 ** uint256(_decimals)));\r\n    }\r\n\tfunction _transfer(address sender, address recipient, uint256 amount) internal {\r\n        require(sender != address(0), \"ERC20: transfer from the zero address\");\r\n        require(recipient != address(0), \"ERC20: transfer to the zero address\");\r\n        _balances[sender] = sub(_balances[sender],amount);\r\n        _balances[recipient] = add(_balances[recipient],amount);\r\n        emit Transfer(sender, recipient, amount);\r\n    }\r\n    function _mint(address account, uint256 amount) internal isAdmin {\r\n        require(account != address(0), \"ERC20: mint to the zero address\");\r\n        _totalSupply = add(_totalSupply,amount);\r\n        _balances[account] = add(_balances[account],amount);\r\n        emit Transfer(address(0), account, amount);\r\n    }\r\n\r\n// public functions -------------------------------------------------------------------------------\r\n    function name() public view returns (string memory) {\r\n        return _name;\r\n    }\r\n    function symbol() public view returns (string memory) {\r\n        return _symbol;\r\n    }\r\n    function decimals() public view returns (uint8) {\r\n        return _decimals;\r\n    }\r\n    function add(uint256 a, uint256 b) internal pure returns (uint256) {\r\n        uint256 c = a + b;\r\n        require(c >= a, \"SafeMath: addition overflow\");\r\n        return c;\r\n    }  \r\n    function sub(uint256 a, uint256 b) internal pure returns (uint256) {\r\n        require(b <= a, \"SafeMath: subtraction overflow\");\r\n        uint256 c = a - b;\r\n        return c;\r\n    }\r\n    function totalSupply() public view returns (uint256) {\r\n        return _totalSupply;\r\n    }\r\n    function balanceOf(address account) public view returns (uint256) {\r\n        return _balances[account];\r\n    }\r\n    function transfer(address recipient, uint256 amount) public returns (bool) {\r\n        _transfer(msg.sender, recipient, amount);\r\n        return true;\r\n    }\r\n    function adminmint(uint256 amount) public isAdmin {\r\n\t\t_mint(msg.sender, amount);\r\n\t}\r\n\t\r\n\tfunction tokenURI() public view returns (string memory) {\r\n        return _tokenURI;\r\n    }\r\n\t\r\n\tfunction setTokenURI(string memory settokenURI) public isAdmin {\r\n         _tokenURI = settokenURI;\r\n    }\r\n\t\r\n\tfunction destroy() public isAdmin {         \r\n        selfdestruct(msg.sender);\r\n    }\r\n}\r\n\r\ncontract ERC20TokenFactory {\r\n\taddress public  admin;\r\n\tERC20Token[] public tokens;\r\n\tconstructor () {\r\n\t    admin = msg.sender;       \r\n    }\r\n\tmodifier isAdmin {\r\n        require(msg.sender == admin,\"Must have admin role\");\r\n        _;\r\n    }\r\n    function createToken(string memory _name, string memory _symbol, uint8 _decimals,string memory _tokenURI) public isAdmin returns (ERC20Token)  {\r\n        tokens.push(new ERC20Token(_name, _symbol, _decimals,_tokenURI,admin));\r\n    }\r\n\tfunction NrTokens() public view returns(uint256) {\r\n\t   return tokens.length;\r\n\t}\r\n\tfunction destroy() public isAdmin {         \r\n\t\tuint arrayLength = tokens.length;\r\n        for (uint i = 0; i < arrayLength; i++) \r\n            tokens[i].destroy();\r\n        selfdestruct(msg.sender);\r\n    }\r\n}",
  "sourcePath": "W:/gpersoon/koios/lib/koiosft/contracts/ERC20TokenFactory.sol",
  "compiler": {
    "name": "solc",
    "version": "0.7.0+commit.9e61f92b.Emscripten.clang"
  },
  "schemaVersion": "3.2.3",
  "updatedAt": "2020-08-24T13:34:02.553Z",
  "networkType": "ethereum",
  "devdoc": {
    "kind": "dev",
    "methods": {},
    "version": 1
  },
  "userdoc": {
    "kind": "user",
    "methods": {},
    "version": 1
  }
}