{
  "contractName": "ERC20TokenFactory",
  "abi": [
    {
      "inputs": [],
      "stateMutability": "nonpayable",
      "type": "constructor"
    },
    {
      "inputs": [],
      "name": "admin",
      "outputs": [
        {
          "internalType": "address",
          "name": "",
          "type": "address"
        }
      ],
      "stateMutability": "view",
      "type": "function",
      "constant": true
    },
    {
      "inputs": [
        {
          "internalType": "uint256",
          "name": "",
          "type": "uint256"
        }
      ],
      "name": "tokens",
      "outputs": [
        {
          "internalType": "contract ERC20Token",
          "name": "",
          "type": "address"
        }
      ],
      "stateMutability": "view",
      "type": "function",
      "constant": true
    },
    {
      "inputs": [
        {
          "internalType": "string",
          "name": "_name",
          "type": "string"
        },
        {
          "internalType": "string",
          "name": "_symbol",
          "type": "string"
        },
        {
          "internalType": "uint8",
          "name": "_decimals",
          "type": "uint8"
        }
      ],
      "name": "createToken",
      "outputs": [
        {
          "internalType": "contract ERC20Token",
          "name": "",
          "type": "address"
        }
      ],
      "stateMutability": "nonpayable",
      "type": "function"
    },
    {
      "inputs": [],
      "name": "NrTokens",
      "outputs": [
        {
          "internalType": "uint256",
          "name": "",
          "type": "uint256"
        }
      ],
      "stateMutability": "view",
      "type": "function",
      "constant": true
    },
    {
      "inputs": [],
      "name": "destroy",
      "outputs": [],
      "stateMutability": "nonpayable",
      "type": "function"
    }
  ],
  "bytecode": "0x608060405234801561001057600080fd5b50336000806101000a81548173ffffffffffffffffffffffffffffffffffffffff021916908373ffffffffffffffffffffffffffffffffffffffff160217905550611ab0806100606000396000f3fe60806040523480156200001157600080fd5b50600436106200005e5760003560e01c80630650b81014620000635780634f64b2be146200008357806383197ef014620000de578063e8a0aed314620000ea578063f851a440146200027c575b600080fd5b6200006d620002b2565b6040518082815260200191505060405180910390f35b620000b2600480360360208110156200009b57600080fd5b8101908080359060200190929190505050620002bf565b604051808273ffffffffffffffffffffffffffffffffffffffff16815260200191505060405180910390f35b620000e8620002fc565b005b62000250600480360360608110156200010257600080fd5b81019080803590602001906401000000008111156200012057600080fd5b8201836020820111156200013357600080fd5b803590602001918460018302840111640100000000831117156200015657600080fd5b91908080601f016020809104026020016040519081016040528093929190818152602001838380828437600081840152601f19601f82011690508083019250505050505050919291929080359060200190640100000000811115620001ba57600080fd5b820183602082011115620001cd57600080fd5b80359060200191846001830284011164010000000083111715620001f057600080fd5b91908080601f016020809104026020016040519081016040528093929190818152602001838380828437600081840152601f19601f820116905080830192505050505050509192919290803560ff16906020019092919050505062000496565b604051808273ffffffffffffffffffffffffffffffffffffffff16815260200191505060405180910390f35b62000286620006de565b604051808273ffffffffffffffffffffffffffffffffffffffff16815260200191505060405180910390f35b6000600180549050905090565b60018181548110620002cd57fe5b906000526020600020016000915054906101000a900473ffffffffffffffffffffffffffffffffffffffff1681565b60008054906101000a900473ffffffffffffffffffffffffffffffffffffffff1673ffffffffffffffffffffffffffffffffffffffff163373ffffffffffffffffffffffffffffffffffffffff1614620003be576040517f08c379a00000000000000000000000000000000000000000000000000000000081526004018080602001828103825260188152602001807f4d7573742062652061646d696e20746f2064657374726f79000000000000000081525060200191505060405180910390fd5b6000600180549050905060005b818110156200047c5760018181548110620003e257fe5b9060005260206000200160009054906101000a900473ffffffffffffffffffffffffffffffffffffffff1673ffffffffffffffffffffffffffffffffffffffff166383197ef06040518163ffffffff1660e01b8152600401600060405180830381600087803b1580156200045557600080fd5b505af11580156200046a573d6000803e3d6000fd5b505050508080600101915050620003cb565b503373ffffffffffffffffffffffffffffffffffffffff16ff5b60008060009054906101000a900473ffffffffffffffffffffffffffffffffffffffff1673ffffffffffffffffffffffffffffffffffffffff163373ffffffffffffffffffffffffffffffffffffffff16146200055b576040517f08c379a00000000000000000000000000000000000000000000000000000000081526004018080602001828103825260148152602001807f4d75737420686176652061646d696e20726f6c6500000000000000000000000081525060200191505060405180910390fd5b60018484846040516200056e9062000702565b8080602001806020018460ff168152602001838103835286818151815260200191508051906020019080838360005b83811015620005ba5780820151818401526020810190506200059d565b50505050905090810190601f168015620005e85780820380516001836020036101000a031916815260200191505b50838103825285818151815260200191508051906020019080838360005b838110156200062357808201518184015260208101905062000606565b50505050905090810190601f168015620006515780820380516001836020036101000a031916815260200191505b5095505050505050604051809103906000f08015801562000676573d6000803e3d6000fd5b509080600181540180825580915050600190039060005260206000200160009091909190916101000a81548173ffffffffffffffffffffffffffffffffffffffff021916908373ffffffffffffffffffffffffffffffffffffffff1602179055509392505050565b60008054906101000a900473ffffffffffffffffffffffffffffffffffffffff1681565b61136a80620007118339019056fe60806040523480156200001157600080fd5b506040516200136a3803806200136a833981810160405260608110156200003757600080fd5b81019080805160405193929190846401000000008211156200005857600080fd5b838201915060208201858111156200006f57600080fd5b82518660018202830111640100000000821117156200008d57600080fd5b8083526020830192505050908051906020019080838360005b83811015620000c3578082015181840152602081019050620000a6565b50505050905090810190601f168015620000f15780820380516001836020036101000a031916815260200191505b50604052602001805160405193929190846401000000008211156200011557600080fd5b838201915060208201858111156200012c57600080fd5b82518660018202830111640100000000821117156200014a57600080fd5b8083526020830192505050908051906020019080838360005b838110156200018057808201518184015260208101905062000163565b50505050905090810190601f168015620001ae5780820380516001836020036101000a031916815260200191505b506040526020018051906020019092919050505033600260016101000a81548173ffffffffffffffffffffffffffffffffffffffff021916908373ffffffffffffffffffffffffffffffffffffffff16021790555082600090805190602001906200021b9291906200058d565b508160019080519060200190620002349291906200058d565b5080600260006101000a81548160ff021916908360ff1602179055506200027b33600260009054906101000a900460ff1660ff16600a0a612710026200028460201b60201c565b50505062000633565b600260019054906101000a900473ffffffffffffffffffffffffffffffffffffffff1673ffffffffffffffffffffffffffffffffffffffff163373ffffffffffffffffffffffffffffffffffffffff161462000348576040517f08c379a00000000000000000000000000000000000000000000000000000000081526004018080602001828103825260148152602001807f4d75737420686176652061646d696e20726f6c6500000000000000000000000081525060200191505060405180910390fd5b600073ffffffffffffffffffffffffffffffffffffffff168273ffffffffffffffffffffffffffffffffffffffff161415620003ec576040517f08c379a000000000000000000000000000000000000000000000000000000000815260040180806020018281038252601f8152602001807f45524332303a206d696e7420746f20746865207a65726f20616464726573730081525060200191505060405180910390fd5b62000400600454826200050460201b60201c565b60048190555062000457600360008473ffffffffffffffffffffffffffffffffffffffff1673ffffffffffffffffffffffffffffffffffffffff16815260200190815260200160002054826200050460201b60201c565b600360008473ffffffffffffffffffffffffffffffffffffffff1673ffffffffffffffffffffffffffffffffffffffff168152602001908152602001600020819055508173ffffffffffffffffffffffffffffffffffffffff16600073ffffffffffffffffffffffffffffffffffffffff167fddf252ad1be2c89b69c2b068fc378daa952ba7f163c4a11628f55a4df523b3ef836040518082815260200191505060405180910390a35050565b60008082840190508381101562000583576040517f08c379a000000000000000000000000000000000000000000000000000000000815260040180806020018281038252601b8152602001807f536166654d6174683a206164646974696f6e206f766572666c6f77000000000081525060200191505060405180910390fd5b8091505092915050565b828054600181600116156101000203166002900490600052602060002090601f016020900481019282601f10620005d057805160ff191683800117855562000601565b8280016001018555821562000601579182015b8281111562000600578251825591602001919060010190620005e3565b5b50905062000610919062000614565b5090565b5b808211156200062f57600081600090555060010162000615565b5090565b610d2780620006436000396000f3fe608060405234801561001057600080fd5b50600436106100935760003560e01c806383197ef01161006657806383197ef0146101b257806395d89b41146101bc578063a9059cbb1461023f578063bfa0a0fc146102a3578063f851a440146102d157610093565b806306fdde031461009857806318160ddd1461011b578063313ce5671461013957806370a082311461015a575b600080fd5b6100a0610305565b6040518080602001828103825283818151815260200191508051906020019080838360005b838110156100e05780820151818401526020810190506100c5565b50505050905090810190601f16801561010d5780820380516001836020036101000a031916815260200191505b509250505060405180910390f35b6101236103a7565b6040518082815260200191505060405180910390f35b6101416103b1565b604051808260ff16815260200191505060405180910390f35b61019c6004803603602081101561017057600080fd5b81019080803573ffffffffffffffffffffffffffffffffffffffff1690602001909291905050506103c8565b6040518082815260200191505060405180910390f35b6101ba610411565b005b6101c46104ed565b6040518080602001828103825283818151815260200191508051906020019080838360005b838110156102045780820151818401526020810190506101e9565b50505050905090810190601f1680156102315780820380516001836020036101000a031916815260200191505b509250505060405180910390f35b61028b6004803603604081101561025557600080fd5b81019080803573ffffffffffffffffffffffffffffffffffffffff1690602001909291908035906020019092919050505061058f565b60405180821515815260200191505060405180910390f35b6102cf600480360360208110156102b957600080fd5b81019080803590602001909291905050506105a6565b005b6102d9610676565b604051808273ffffffffffffffffffffffffffffffffffffffff16815260200191505060405180910390f35b606060008054600181600116156101000203166002900480601f01602080910402602001604051908101604052809291908181526020018280546001816001161561010002031660029004801561039d5780601f106103725761010080835404028352916020019161039d565b820191906000526020600020905b81548152906001019060200180831161038057829003601f168201915b5050505050905090565b6000600454905090565b6000600260009054906101000a900460ff16905090565b6000600360008373ffffffffffffffffffffffffffffffffffffffff1673ffffffffffffffffffffffffffffffffffffffff168152602001908152602001600020549050919050565b600260019054906101000a900473ffffffffffffffffffffffffffffffffffffffff1673ffffffffffffffffffffffffffffffffffffffff163373ffffffffffffffffffffffffffffffffffffffff16146104d4576040517f08c379a00000000000000000000000000000000000000000000000000000000081526004018080602001828103825260188152602001807f4d7573742062652061646d696e20746f2064657374726f79000000000000000081525060200191505060405180910390fd5b3373ffffffffffffffffffffffffffffffffffffffff16ff5b606060018054600181600116156101000203166002900480601f0160208091040260200160405190810160405280929190818152602001828054600181600116156101000203166002900480156105855780601f1061055a57610100808354040283529160200191610585565b820191906000526020600020905b81548152906001019060200180831161056857829003601f168201915b5050505050905090565b600061059c33848461069c565b6001905092915050565b600260019054906101000a900473ffffffffffffffffffffffffffffffffffffffff1673ffffffffffffffffffffffffffffffffffffffff163373ffffffffffffffffffffffffffffffffffffffff1614610669576040517f08c379a00000000000000000000000000000000000000000000000000000000081526004018080602001828103825260148152602001807f4d75737420686176652061646d696e20726f6c6500000000000000000000000081525060200191505060405180910390fd5b610673338261092a565b50565b600260019054906101000a900473ffffffffffffffffffffffffffffffffffffffff1681565b600073ffffffffffffffffffffffffffffffffffffffff168373ffffffffffffffffffffffffffffffffffffffff161415610722576040517f08c379a0000000000000000000000000000000000000000000000000000000008152600401808060200182810382526025815260200180610ccd6025913960400191505060405180910390fd5b600073ffffffffffffffffffffffffffffffffffffffff168273ffffffffffffffffffffffffffffffffffffffff1614156107a8576040517f08c379a0000000000000000000000000000000000000000000000000000000008152600401808060200182810382526023815260200180610caa6023913960400191505060405180910390fd5b6107f1600360008573ffffffffffffffffffffffffffffffffffffffff1673ffffffffffffffffffffffffffffffffffffffff1681526020019081526020016000205482610b98565b600360008573ffffffffffffffffffffffffffffffffffffffff1673ffffffffffffffffffffffffffffffffffffffff1681526020019081526020016000208190555061087d600360008473ffffffffffffffffffffffffffffffffffffffff1673ffffffffffffffffffffffffffffffffffffffff1681526020019081526020016000205482610c21565b600360008473ffffffffffffffffffffffffffffffffffffffff1673ffffffffffffffffffffffffffffffffffffffff168152602001908152602001600020819055508173ffffffffffffffffffffffffffffffffffffffff168373ffffffffffffffffffffffffffffffffffffffff167fddf252ad1be2c89b69c2b068fc378daa952ba7f163c4a11628f55a4df523b3ef836040518082815260200191505060405180910390a3505050565b600260019054906101000a900473ffffffffffffffffffffffffffffffffffffffff1673ffffffffffffffffffffffffffffffffffffffff163373ffffffffffffffffffffffffffffffffffffffff16146109ed576040517f08c379a00000000000000000000000000000000000000000000000000000000081526004018080602001828103825260148152602001807f4d75737420686176652061646d696e20726f6c6500000000000000000000000081525060200191505060405180910390fd5b600073ffffffffffffffffffffffffffffffffffffffff168273ffffffffffffffffffffffffffffffffffffffff161415610a90576040517f08c379a000000000000000000000000000000000000000000000000000000000815260040180806020018281038252601f8152602001807f45524332303a206d696e7420746f20746865207a65726f20616464726573730081525060200191505060405180910390fd5b610a9c60045482610c21565b600481905550610aeb600360008473ffffffffffffffffffffffffffffffffffffffff1673ffffffffffffffffffffffffffffffffffffffff1681526020019081526020016000205482610c21565b600360008473ffffffffffffffffffffffffffffffffffffffff1673ffffffffffffffffffffffffffffffffffffffff168152602001908152602001600020819055508173ffffffffffffffffffffffffffffffffffffffff16600073ffffffffffffffffffffffffffffffffffffffff167fddf252ad1be2c89b69c2b068fc378daa952ba7f163c4a11628f55a4df523b3ef836040518082815260200191505060405180910390a35050565b600082821115610c10576040517f08c379a000000000000000000000000000000000000000000000000000000000815260040180806020018281038252601e8152602001807f536166654d6174683a207375627472616374696f6e206f766572666c6f77000081525060200191505060405180910390fd5b600082840390508091505092915050565b600080828401905083811015610c9f576040517f08c379a000000000000000000000000000000000000000000000000000000000815260040180806020018281038252601b8152602001807f536166654d6174683a206164646974696f6e206f766572666c6f77000000000081525060200191505060405180910390fd5b809150509291505056fe45524332303a207472616e7366657220746f20746865207a65726f206164647265737345524332303a207472616e736665722066726f6d20746865207a65726f2061646472657373a2646970667358221220224c7c4a1081fcbea2cee22208e9749587eb71d2d1a3d69802c5d1a85db11bb564736f6c63430007000033a2646970667358221220042794220a3dfe2f753bc292dd0b2d7965a89969deede14cbd63ade7fbd1208664736f6c63430007000033",
  "immutableReferences": {},
  "source": "// SPDX-License-Identifier: MIT\n// Adapted from https://github.com/OpenZeppelin/openzeppelin-contracts/tree/master/contracts/token/ERC20\n// https://raw.githubusercontent.com/web3examples/ethereum/master/token_examples/VeryBasicToken.sol\n\npragma solidity ^0.7.0;\n\ncontract ERC20Token {\n    string private _name;\n    string private _symbol;\n    uint8 private _decimals;\n    address public  admin;\n    mapping (address => uint256) private _balances;\n    uint256 private _totalSupply;\n\n    event Transfer(address indexed from, address indexed to, uint256 value);\n\t\n    modifier isAdmin {\n        require(msg.sender == admin,\"Must have admin role\");\n        _;\n    }\n    constructor (string memory name, string memory symbol, uint8 decimals) {\n\t    admin = msg.sender;\n        _name = name;\n        _symbol = symbol;\n        _decimals = decimals;\n        _mint(msg.sender, 10000 * (10 ** uint256(_decimals)));\n    }\n\tfunction _transfer(address sender, address recipient, uint256 amount) internal {\n        require(sender != address(0), \"ERC20: transfer from the zero address\");\n        require(recipient != address(0), \"ERC20: transfer to the zero address\");\n        _balances[sender] = sub(_balances[sender],amount);\n        _balances[recipient] = add(_balances[recipient],amount);\n        emit Transfer(sender, recipient, amount);\n    }\n    function _mint(address account, uint256 amount) internal isAdmin {\n        require(account != address(0), \"ERC20: mint to the zero address\");\n        _totalSupply = add(_totalSupply,amount);\n        _balances[account] = add(_balances[account],amount);\n        emit Transfer(address(0), account, amount);\n    }\n\n// public functions -------------------------------------------------------------------------------\n    function name() public view returns (string memory) {\n        return _name;\n    }\n    function symbol() public view returns (string memory) {\n        return _symbol;\n    }\n    function decimals() public view returns (uint8) {\n        return _decimals;\n    }\n    function add(uint256 a, uint256 b) internal pure returns (uint256) {\n        uint256 c = a + b;\n        require(c >= a, \"SafeMath: addition overflow\");\n        return c;\n    }  \n    function sub(uint256 a, uint256 b) internal pure returns (uint256) {\n        require(b <= a, \"SafeMath: subtraction overflow\");\n        uint256 c = a - b;\n        return c;\n    }\n    function totalSupply() public view returns (uint256) {\n        return _totalSupply;\n    }\n    function balanceOf(address account) public view returns (uint256) {\n        return _balances[account];\n    }\n    function transfer(address recipient, uint256 amount) public returns (bool) {\n        _transfer(msg.sender, recipient, amount);\n        return true;\n    }\n    function adminmint(uint256 amount) public isAdmin {\n\t\t_mint(msg.sender, amount);\n\t}\n\tfunction destroy() public  { \n        require(msg.sender == admin,\"Must be admin to destroy\");\n        selfdestruct(msg.sender);\n    }\n}\n\ncontract ERC20TokenFactory {\n\taddress public  admin;\n\tERC20Token[] public tokens;\n\tconstructor () {\n\t    admin = msg.sender;       \n    }\n\tmodifier isAdmin {\n        require(msg.sender == admin,\"Must have admin role\");\n        _;\n    }\n    function createToken(string memory _name, string memory _symbol, uint8 _decimals) public isAdmin returns (ERC20Token)  {\n        tokens.push(new ERC20Token(_name, _symbol, _decimals));\n    }\n\tfunction NrTokens() public view returns(uint256) {\n\t   return tokens.length;\n\t}\n\tfunction destroy() public  { \n        require(msg.sender == admin,\"Must be admin to destroy\");\t\t\n\t\tuint arrayLength = tokens.length;\n        for (uint i = 0; i < arrayLength; i++) \n            tokens[i].destroy();\n        selfdestruct(msg.sender);\n    }\n}",
  "sourcePath": "W:/gpersoon/koios/lib/koiosft/contracts/ERC20TokenFactory.sol",
  "compiler": {
    "name": "solc",
    "version": "0.7.0+commit.9e61f92b.Emscripten.clang"
  },
  "schemaVersion": "3.2.3",
  "updatedAt": "2020-08-10T10:12:02.039Z",
  "networkType": "ethereum",
  "devdoc": {
    "kind": "dev",
    "methods": {},
    "version": 1
  },
  "userdoc": {
    "kind": "user",
    "methods": {},
    "version": 1
  }
}