{
  "contractName": "ERC20TokenFactory",
  "abi": [
    {
      "inputs": [],
      "stateMutability": "nonpayable",
      "type": "constructor"
    },
    {
      "inputs": [],
      "name": "admin",
      "outputs": [
        {
          "internalType": "address",
          "name": "",
          "type": "address"
        }
      ],
      "stateMutability": "view",
      "type": "function",
      "constant": true
    },
    {
      "inputs": [
        {
          "internalType": "uint256",
          "name": "",
          "type": "uint256"
        }
      ],
      "name": "tokens",
      "outputs": [
        {
          "internalType": "contract ERC20Token",
          "name": "",
          "type": "address"
        }
      ],
      "stateMutability": "view",
      "type": "function",
      "constant": true
    },
    {
      "inputs": [
        {
          "internalType": "string",
          "name": "_name",
          "type": "string"
        },
        {
          "internalType": "string",
          "name": "_symbol",
          "type": "string"
        },
        {
          "internalType": "uint8",
          "name": "_decimals",
          "type": "uint8"
        },
        {
          "internalType": "string",
          "name": "_tokenURI",
          "type": "string"
        }
      ],
      "name": "createToken",
      "outputs": [
        {
          "internalType": "contract ERC20Token",
          "name": "",
          "type": "address"
        }
      ],
      "stateMutability": "nonpayable",
      "type": "function"
    },
    {
      "inputs": [],
      "name": "NrTokens",
      "outputs": [
        {
          "internalType": "uint256",
          "name": "",
          "type": "uint256"
        }
      ],
      "stateMutability": "view",
      "type": "function",
      "constant": true
    },
    {
      "inputs": [],
      "name": "destroy",
      "outputs": [],
      "stateMutability": "nonpayable",
      "type": "function"
    }
  ],
  "bytecode": "0x608060405234801561001057600080fd5b50336000806101000a81548173ffffffffffffffffffffffffffffffffffffffff021916908373ffffffffffffffffffffffffffffffffffffffff160217905550612ca0806100606000396000f3fe60806040523480156200001157600080fd5b50600436106200005e5760003560e01c80630650b81014620000635780632482ee2714620000835780634f64b2be14620002af57806383197ef0146200030a578063f851a4401462000316575b600080fd5b6200006d6200034c565b6040518082815260200191505060405180910390f35b62000283600480360360808110156200009b57600080fd5b8101908080359060200190640100000000811115620000b957600080fd5b820183602082011115620000cc57600080fd5b80359060200191846001830284011164010000000083111715620000ef57600080fd5b91908080601f016020809104026020016040519081016040528093929190818152602001838380828437600081840152601f19601f820116905080830192505050505050509192919290803590602001906401000000008111156200015357600080fd5b8201836020820111156200016657600080fd5b803590602001918460018302840111640100000000831117156200018957600080fd5b91908080601f016020809104026020016040519081016040528093929190818152602001838380828437600081840152601f19601f820116905080830192505050505050509192919290803560ff16906020019092919080359060200190640100000000811115620001fa57600080fd5b8201836020820111156200020d57600080fd5b803590602001918460018302840111640100000000831117156200023057600080fd5b91908080601f016020809104026020016040519081016040528093929190818152602001838380828437600081840152601f19601f82011690508083019250505050505050919291929050505062000359565b604051808273ffffffffffffffffffffffffffffffffffffffff16815260200191505060405180910390f35b620002de60048036036020811015620002c757600080fd5b810190808035906020019092919050505062000650565b604051808273ffffffffffffffffffffffffffffffffffffffff16815260200191505060405180910390f35b620003146200068d565b005b6200032062000827565b604051808273ffffffffffffffffffffffffffffffffffffffff16815260200191505060405180910390f35b6000600180549050905090565b60008060009054906101000a900473ffffffffffffffffffffffffffffffffffffffff1673ffffffffffffffffffffffffffffffffffffffff163373ffffffffffffffffffffffffffffffffffffffff16146200041e576040517f08c379a00000000000000000000000000000000000000000000000000000000081526004018080602001828103825260148152602001807f4d75737420686176652061646d696e20726f6c6500000000000000000000000081525060200191505060405180910390fd5b60018585858560008054906101000a900473ffffffffffffffffffffffffffffffffffffffff1660405162000453906200084b565b8080602001806020018660ff168152602001806020018573ffffffffffffffffffffffffffffffffffffffff168152602001848103845289818151815260200191508051906020019080838360005b83811015620004bf578082015181840152602081019050620004a2565b50505050905090810190601f168015620004ed5780820380516001836020036101000a031916815260200191505b50848103835288818151815260200191508051906020019080838360005b83811015620005285780820151818401526020810190506200050b565b50505050905090810190601f168015620005565780820380516001836020036101000a031916815260200191505b50848103825286818151815260200191508051906020019080838360005b838110156200059157808201518184015260208101905062000574565b50505050905090810190601f168015620005bf5780820380516001836020036101000a031916815260200191505b5098505050505050505050604051809103906000f080158015620005e7573d6000803e3d6000fd5b509080600181540180825580915050600190039060005260206000200160009091909190916101000a81548173ffffffffffffffffffffffffffffffffffffffff021916908373ffffffffffffffffffffffffffffffffffffffff160217905550949350505050565b600181815481106200065e57fe5b906000526020600020016000915054906101000a900473ffffffffffffffffffffffffffffffffffffffff1681565b60008054906101000a900473ffffffffffffffffffffffffffffffffffffffff1673ffffffffffffffffffffffffffffffffffffffff163373ffffffffffffffffffffffffffffffffffffffff16146200074f576040517f08c379a00000000000000000000000000000000000000000000000000000000081526004018080602001828103825260148152602001807f4d75737420686176652061646d696e20726f6c6500000000000000000000000081525060200191505060405180910390fd5b6000600180549050905060005b818110156200080d57600181815481106200077357fe5b9060005260206000200160009054906101000a900473ffffffffffffffffffffffffffffffffffffffff1673ffffffffffffffffffffffffffffffffffffffff166383197ef06040518163ffffffff1660e01b8152600401600060405180830381600087803b158015620007e657600080fd5b505af1158015620007fb573d6000803e3d6000fd5b5050505080806001019150506200075c565b503373ffffffffffffffffffffffffffffffffffffffff16ff5b60008054906101000a900473ffffffffffffffffffffffffffffffffffffffff1681565b612411806200085a8339019056fe60806040523480156200001157600080fd5b506040516200241138038062002411833981810160405260a08110156200003757600080fd5b81019080805160405193929190846401000000008211156200005857600080fd5b838201915060208201858111156200006f57600080fd5b82518660018202830111640100000000821117156200008d57600080fd5b8083526020830192505050908051906020019080838360005b83811015620000c3578082015181840152602081019050620000a6565b50505050905090810190601f168015620000f15780820380516001836020036101000a031916815260200191505b50604052602001805160405193929190846401000000008211156200011557600080fd5b838201915060208201858111156200012c57600080fd5b82518660018202830111640100000000821117156200014a57600080fd5b8083526020830192505050908051906020019080838360005b838110156200018057808201518184015260208101905062000163565b50505050905090810190601f168015620001ae5780820380516001836020036101000a031916815260200191505b506040526020018051906020019092919080516040519392919084640100000000821115620001dc57600080fd5b83820191506020820185811115620001f357600080fd5b82518660018202830111640100000000821117156200021157600080fd5b8083526020830192505050908051906020019080838360005b83811015620002475780820151818401526020810190506200022a565b50505050905090810190601f168015620002755780820380516001836020036101000a031916815260200191505b506040526020018051906020019092919050505080600260016101000a81548173ffffffffffffffffffffffffffffffffffffffff021916908373ffffffffffffffffffffffffffffffffffffffff1602179055508460009080519060200190620002e292919062000709565b508360019080519060200190620002fb92919062000709565b5082600260006101000a81548160ff021916908360ff16021790555033600360006101000a81548173ffffffffffffffffffffffffffffffffffffffff021916908373ffffffffffffffffffffffffffffffffffffffff16021790555081600490805190602001906200037092919062000709565b506200039c81600260009054906101000a900460ff1660ff16600a0a61271002620003a760201b60201c565b5050505050620007af565b600260019054906101000a900473ffffffffffffffffffffffffffffffffffffffff1673ffffffffffffffffffffffffffffffffffffffff163373ffffffffffffffffffffffffffffffffffffffff161480620004515750600360009054906101000a900473ffffffffffffffffffffffffffffffffffffffff1673ffffffffffffffffffffffffffffffffffffffff163373ffffffffffffffffffffffffffffffffffffffff16145b620004c4576040517f08c379a00000000000000000000000000000000000000000000000000000000081526004018080602001828103825260148152602001807f4d75737420686176652061646d696e20726f6c6500000000000000000000000081525060200191505060405180910390fd5b600073ffffffffffffffffffffffffffffffffffffffff168273ffffffffffffffffffffffffffffffffffffffff16141562000568576040517f08c379a000000000000000000000000000000000000000000000000000000000815260040180806020018281038252601f8152602001807f45524332303a206d696e7420746f20746865207a65726f20616464726573730081525060200191505060405180910390fd5b6200057c600754826200068060201b60201c565b600781905550620005d3600560008473ffffffffffffffffffffffffffffffffffffffff1673ffffffffffffffffffffffffffffffffffffffff16815260200190815260200160002054826200068060201b60201c565b600560008473ffffffffffffffffffffffffffffffffffffffff1673ffffffffffffffffffffffffffffffffffffffff168152602001908152602001600020819055508173ffffffffffffffffffffffffffffffffffffffff16600073ffffffffffffffffffffffffffffffffffffffff167fddf252ad1be2c89b69c2b068fc378daa952ba7f163c4a11628f55a4df523b3ef836040518082815260200191505060405180910390a35050565b600080828401905083811015620006ff576040517f08c379a000000000000000000000000000000000000000000000000000000000815260040180806020018281038252601b8152602001807f536166654d6174683a206164646974696f6e206f766572666c6f77000000000081525060200191505060405180910390fd5b8091505092915050565b828054600181600116156101000203166002900490600052602060002090601f016020900481019282601f106200074c57805160ff19168380011785556200077d565b828001600101855582156200077d579182015b828111156200077c5782518255916020019190600101906200075f565b5b5090506200078c919062000790565b5090565b5b80821115620007ab57600081600090555060010162000791565b5090565b611c5280620007bf6000396000f3fe608060405234801561001057600080fd5b50600436106101165760003560e01c806383197ef0116100a2578063a9059cbb11610071578063a9059cbb1461068b578063bfa0a0fc146106ef578063c5cc6b6a1461071d578063dd62ed3e14610751578063e0df5b6f146107c957610116565b806383197ef0146104385780639316c3e71461044257806395d89b41146105a4578063a457c2d71461062757610116565b806323b872dd116100e957806323b872dd14610254578063313ce567146102d857806339509351146102f95780633c130d901461035d57806370a08231146103e057610116565b806301bc45c91461011b57806306fdde031461014f578063095ea7b3146101d257806318160ddd14610236575b600080fd5b610123610884565b604051808273ffffffffffffffffffffffffffffffffffffffff16815260200191505060405180910390f35b6101576108aa565b6040518080602001828103825283818151815260200191508051906020019080838360005b8381101561019757808201518184015260208101905061017c565b50505050905090810190601f1680156101c45780820380516001836020036101000a031916815260200191505b509250505060405180910390f35b61021e600480360360408110156101e857600080fd5b81019080803573ffffffffffffffffffffffffffffffffffffffff1690602001909291908035906020019092919050505061094c565b60405180821515815260200191505060405180910390f35b61023e610963565b6040518082815260200191505060405180910390f35b6102c06004803603606081101561026a57600080fd5b81019080803573ffffffffffffffffffffffffffffffffffffffff169060200190929190803573ffffffffffffffffffffffffffffffffffffffff1690602001909291908035906020019092919050505061096d565b60405180821515815260200191505060405180910390f35b6102e0610a2e565b604051808260ff16815260200191505060405180910390f35b6103456004803603604081101561030f57600080fd5b81019080803573ffffffffffffffffffffffffffffffffffffffff16906020019092919080359060200190929190505050610a45565b60405180821515815260200191505060405180910390f35b610365610ae1565b6040518080602001828103825283818151815260200191508051906020019080838360005b838110156103a557808201518184015260208101905061038a565b50505050905090810190601f1680156103d25780820380516001836020036101000a031916815260200191505b509250505060405180910390f35b610422600480360360208110156103f657600080fd5b81019080803573ffffffffffffffffffffffffffffffffffffffff169060200190929190505050610b83565b6040518082815260200191505060405180910390f35b610440610bcc565b005b61058c6004803603604081101561045857600080fd5b810190808035906020019064010000000081111561047557600080fd5b82018360208201111561048757600080fd5b803590602001918460208302840111640100000000831117156104a957600080fd5b919080806020026020016040519081016040528093929190818152602001838360200280828437600081840152601f19601f8201169050808301925050505050505091929192908035906020019064010000000081111561050957600080fd5b82018360208201111561051b57600080fd5b8035906020019184602083028401116401000000008311171561053d57600080fd5b919080806020026020016040519081016040528093929190818152602001838360200280828437600081840152601f19601f820116905080830192505050505050509192919290505050610d00565b60405180821515815260200191505060405180910390f35b6105ac610d5a565b6040518080602001828103825283818151815260200191508051906020019080838360005b838110156105ec5780820151818401526020810190506105d1565b50505050905090810190601f1680156106195780820380516001836020036101000a031916815260200191505b509250505060405180910390f35b6106736004803603604081101561063d57600080fd5b81019080803573ffffffffffffffffffffffffffffffffffffffff16906020019092919080359060200190929190505050610dfc565b60405180821515815260200191505060405180910390f35b6106d7600480360360408110156106a157600080fd5b81019080803573ffffffffffffffffffffffffffffffffffffffff16906020019092919080359060200190929190505050610eb1565b60405180821515815260200191505060405180910390f35b61071b6004803603602081101561070557600080fd5b8101908080359060200190929190505050610ec8565b005b610725610ff0565b604051808273ffffffffffffffffffffffffffffffffffffffff16815260200191505060405180910390f35b6107b36004803603604081101561076757600080fd5b81019080803573ffffffffffffffffffffffffffffffffffffffff169060200190929190803573ffffffffffffffffffffffffffffffffffffffff169060200190929190505050611016565b6040518082815260200191505060405180910390f35b610882600480360360208110156107df57600080fd5b81019080803590602001906401000000008111156107fc57600080fd5b82018360208201111561080e57600080fd5b8035906020019184600183028401116401000000008311171561083057600080fd5b91908080601f016020809104026020016040519081016040528093929190818152602001838380828437600081840152601f19601f82011690508083019250505050505050919291929050505061109d565b005b600260019054906101000a900473ffffffffffffffffffffffffffffffffffffffff1681565b606060008054600181600116156101000203166002900480601f0160208091040260200160405190810160405280929190818152602001828054600181600116156101000203166002900480156109425780601f1061091757610100808354040283529160200191610942565b820191906000526020600020905b81548152906001019060200180831161092557829003601f168201915b5050505050905090565b60006109593384846111d2565b6001905092915050565b6000600754905090565b600061097a8484846113c9565b610a238433610a1e600660008973ffffffffffffffffffffffffffffffffffffffff1673ffffffffffffffffffffffffffffffffffffffff16815260200190815260200160002060003373ffffffffffffffffffffffffffffffffffffffff1673ffffffffffffffffffffffffffffffffffffffff1681526020019081526020016000205486604051806060016040528060288152602001611b8760289139611670565b6111d2565b600190509392505050565b6000600260009054906101000a900460ff16905090565b6000610ad73384610ad2600660003373ffffffffffffffffffffffffffffffffffffffff1673ffffffffffffffffffffffffffffffffffffffff16815260200190815260200160002060008873ffffffffffffffffffffffffffffffffffffffff1673ffffffffffffffffffffffffffffffffffffffff1681526020019081526020016000205486611730565b6111d2565b6001905092915050565b606060048054600181600116156101000203166002900480601f016020809104026020016040519081016040528092919081815260200182805460018160011615610100020316600290048015610b795780601f10610b4e57610100808354040283529160200191610b79565b820191906000526020600020905b815481529060010190602001808311610b5c57829003601f168201915b5050505050905090565b6000600560008373ffffffffffffffffffffffffffffffffffffffff1673ffffffffffffffffffffffffffffffffffffffff168152602001908152602001600020549050919050565b600260019054906101000a900473ffffffffffffffffffffffffffffffffffffffff1673ffffffffffffffffffffffffffffffffffffffff163373ffffffffffffffffffffffffffffffffffffffff161480610c755750600360009054906101000a900473ffffffffffffffffffffffffffffffffffffffff1673ffffffffffffffffffffffffffffffffffffffff163373ffffffffffffffffffffffffffffffffffffffff16145b610ce7576040517f08c379a00000000000000000000000000000000000000000000000000000000081526004018080602001828103825260148152602001807f4d75737420686176652061646d696e20726f6c6500000000000000000000000081525060200191505060405180910390fd5b3373ffffffffffffffffffffffffffffffffffffffff16ff5b600080600090505b8351811015610d4f57610d4233858381518110610d2157fe5b6020026020010151858481518110610d3557fe5b60200260200101516113c9565b8080600101915050610d08565b506001905092915050565b606060018054600181600116156101000203166002900480601f016020809104026020016040519081016040528092919081815260200182805460018160011615610100020316600290048015610df25780601f10610dc757610100808354040283529160200191610df2565b820191906000526020600020905b815481529060010190602001808311610dd557829003601f168201915b5050505050905090565b6000610ea73384610ea2600660003373ffffffffffffffffffffffffffffffffffffffff1673ffffffffffffffffffffffffffffffffffffffff16815260200190815260200160002060008873ffffffffffffffffffffffffffffffffffffffff1673ffffffffffffffffffffffffffffffffffffffff1681526020019081526020016000205486604051806060016040528060258152602001611bf860259139611670565b6111d2565b6001905092915050565b6000610ebe3384846113c9565b6001905092915050565b600260019054906101000a900473ffffffffffffffffffffffffffffffffffffffff1673ffffffffffffffffffffffffffffffffffffffff163373ffffffffffffffffffffffffffffffffffffffff161480610f715750600360009054906101000a900473ffffffffffffffffffffffffffffffffffffffff1673ffffffffffffffffffffffffffffffffffffffff163373ffffffffffffffffffffffffffffffffffffffff16145b610fe3576040517f08c379a00000000000000000000000000000000000000000000000000000000081526004018080602001828103825260148152602001807f4d75737420686176652061646d696e20726f6c6500000000000000000000000081525060200191505060405180910390fd5b610fed33826117b8565b50565b600360009054906101000a900473ffffffffffffffffffffffffffffffffffffffff1681565b6000600660008473ffffffffffffffffffffffffffffffffffffffff1673ffffffffffffffffffffffffffffffffffffffff16815260200190815260200160002060008373ffffffffffffffffffffffffffffffffffffffff1673ffffffffffffffffffffffffffffffffffffffff16815260200190815260200160002054905092915050565b600260019054906101000a900473ffffffffffffffffffffffffffffffffffffffff1673ffffffffffffffffffffffffffffffffffffffff163373ffffffffffffffffffffffffffffffffffffffff1614806111465750600360009054906101000a900473ffffffffffffffffffffffffffffffffffffffff1673ffffffffffffffffffffffffffffffffffffffff163373ffffffffffffffffffffffffffffffffffffffff16145b6111b8576040517f08c379a00000000000000000000000000000000000000000000000000000000081526004018080602001828103825260148152602001807f4d75737420686176652061646d696e20726f6c6500000000000000000000000081525060200191505060405180910390fd5b80600490805190602001906111ce929190611a7e565b5050565b600073ffffffffffffffffffffffffffffffffffffffff168373ffffffffffffffffffffffffffffffffffffffff161415611258576040517f08c379a0000000000000000000000000000000000000000000000000000000008152600401808060200182810382526024815260200180611bd46024913960400191505060405180910390fd5b600073ffffffffffffffffffffffffffffffffffffffff168273ffffffffffffffffffffffffffffffffffffffff1614156112de576040517f08c379a0000000000000000000000000000000000000000000000000000000008152600401808060200182810382526022815260200180611b3f6022913960400191505060405180910390fd5b80600660008573ffffffffffffffffffffffffffffffffffffffff1673ffffffffffffffffffffffffffffffffffffffff16815260200190815260200160002060008473ffffffffffffffffffffffffffffffffffffffff1673ffffffffffffffffffffffffffffffffffffffff168152602001908152602001600020819055508173ffffffffffffffffffffffffffffffffffffffff168373ffffffffffffffffffffffffffffffffffffffff167f8c5be1e5ebec7d5bd14f71427d1e84f3dd0314c0f7b2291e5b200ac8c7c3b925836040518082815260200191505060405180910390a3505050565b600073ffffffffffffffffffffffffffffffffffffffff168373ffffffffffffffffffffffffffffffffffffffff16141561144f576040517f08c379a0000000000000000000000000000000000000000000000000000000008152600401808060200182810382526025815260200180611baf6025913960400191505060405180910390fd5b600073ffffffffffffffffffffffffffffffffffffffff168273ffffffffffffffffffffffffffffffffffffffff1614156114d5576040517f08c379a0000000000000000000000000000000000000000000000000000000008152600401808060200182810382526023815260200180611b1c6023913960400191505060405180910390fd5b611537600560008573ffffffffffffffffffffffffffffffffffffffff1673ffffffffffffffffffffffffffffffffffffffff1681526020019081526020016000205482604051806060016040528060268152602001611b6160269139611670565b600560008573ffffffffffffffffffffffffffffffffffffffff1673ffffffffffffffffffffffffffffffffffffffff168152602001908152602001600020819055506115c3600560008473ffffffffffffffffffffffffffffffffffffffff1673ffffffffffffffffffffffffffffffffffffffff1681526020019081526020016000205482611730565b600560008473ffffffffffffffffffffffffffffffffffffffff1673ffffffffffffffffffffffffffffffffffffffff168152602001908152602001600020819055508173ffffffffffffffffffffffffffffffffffffffff168373ffffffffffffffffffffffffffffffffffffffff167fddf252ad1be2c89b69c2b068fc378daa952ba7f163c4a11628f55a4df523b3ef836040518082815260200191505060405180910390a3505050565b600083831115829061171d576040517f08c379a00000000000000000000000000000000000000000000000000000000081526004018080602001828103825283818151815260200191508051906020019080838360005b838110156116e25780820151818401526020810190506116c7565b50505050905090810190601f16801561170f5780820380516001836020036101000a031916815260200191505b509250505060405180910390fd5b5060008385039050809150509392505050565b6000808284019050838110156117ae576040517f08c379a000000000000000000000000000000000000000000000000000000000815260040180806020018281038252601b8152602001807f536166654d6174683a206164646974696f6e206f766572666c6f77000000000081525060200191505060405180910390fd5b8091505092915050565b600260019054906101000a900473ffffffffffffffffffffffffffffffffffffffff1673ffffffffffffffffffffffffffffffffffffffff163373ffffffffffffffffffffffffffffffffffffffff1614806118615750600360009054906101000a900473ffffffffffffffffffffffffffffffffffffffff1673ffffffffffffffffffffffffffffffffffffffff163373ffffffffffffffffffffffffffffffffffffffff16145b6118d3576040517f08c379a00000000000000000000000000000000000000000000000000000000081526004018080602001828103825260148152602001807f4d75737420686176652061646d696e20726f6c6500000000000000000000000081525060200191505060405180910390fd5b600073ffffffffffffffffffffffffffffffffffffffff168273ffffffffffffffffffffffffffffffffffffffff161415611976576040517f08c379a000000000000000000000000000000000000000000000000000000000815260040180806020018281038252601f8152602001807f45524332303a206d696e7420746f20746865207a65726f20616464726573730081525060200191505060405180910390fd5b61198260075482611730565b6007819055506119d1600560008473ffffffffffffffffffffffffffffffffffffffff1673ffffffffffffffffffffffffffffffffffffffff1681526020019081526020016000205482611730565b600560008473ffffffffffffffffffffffffffffffffffffffff1673ffffffffffffffffffffffffffffffffffffffff168152602001908152602001600020819055508173ffffffffffffffffffffffffffffffffffffffff16600073ffffffffffffffffffffffffffffffffffffffff167fddf252ad1be2c89b69c2b068fc378daa952ba7f163c4a11628f55a4df523b3ef836040518082815260200191505060405180910390a35050565b828054600181600116156101000203166002900490600052602060002090601f016020900481019282601f10611abf57805160ff1916838001178555611aed565b82800160010185558215611aed579182015b82811115611aec578251825591602001919060010190611ad1565b5b509050611afa9190611afe565b5090565b5b80821115611b17576000816000905550600101611aff565b509056fe45524332303a207472616e7366657220746f20746865207a65726f206164647265737345524332303a20617070726f766520746f20746865207a65726f206164647265737345524332303a207472616e7366657220616d6f756e7420657863656564732062616c616e636545524332303a207472616e7366657220616d6f756e74206578636565647320616c6c6f77616e636545524332303a207472616e736665722066726f6d20746865207a65726f206164647265737345524332303a20617070726f76652066726f6d20746865207a65726f206164647265737345524332303a2064656372656173656420616c6c6f77616e63652062656c6f77207a65726fa2646970667358221220762b7364a4fabbc1cda9eafb019b3d5155dfaccaad854b492328f7c9311ac00764736f6c63430007000033a2646970667358221220985daa900bfb795384ca2faa688d3b7476db5128b0f10b8bcca9b35e575533f564736f6c63430007000033",
  "immutableReferences": {},
  "source": "// SPDX-License-Identifier: MIT\r\n// Adapted from https://github.com/OpenZeppelin/openzeppelin-contracts/tree/master/contracts/token/ERC20\r\n// https://raw.githubusercontent.com/web3examples/ethereum/master/token_examples/VeryBasicToken.sol\r\n\r\npragma solidity ^0.7.0;\r\n\r\ncontract ERC20Token {\r\n    string private _name;\r\n    string private _symbol;\r\n    uint8 private _decimals;\r\n    address public  _admin;\r\n\taddress public _factory;\r\n\t\r\n\tstring private _tokenURI;\r\n    mapping (address => uint256) private _balances;\r\n\tmapping (address => mapping (address => uint256)) private _allowances;\r\n    uint256 private _totalSupply;\r\n\r\n    event Transfer(address indexed from, address indexed to, uint256 value);\r\n\tevent Approval(address indexed owner, address indexed spender, uint256 value);\r\n\t\r\n    modifier isAdmin {\r\n        require( (msg.sender == _admin) || (msg.sender==_factory),\"Must have admin role\");\r\n        _;\r\n    }\r\n    constructor (string memory name, string memory symbol, uint8 decimals,string memory tokenURI,address admin) {\r\n\t    _admin = admin;\r\n        _name = name;\r\n        _symbol = symbol;\r\n        _decimals = decimals;\r\n\t\t_factory = msg.sender;\r\n\t\t_tokenURI = tokenURI;\r\n        _mint(admin, 10000 * (10 ** uint256(_decimals)));\r\n    }\r\n\tfunction _transfer(address sender, address recipient, uint256 amount) internal {\r\n        require(sender != address(0), \"ERC20: transfer from the zero address\");\r\n        require(recipient != address(0), \"ERC20: transfer to the zero address\");\r\n        _balances[sender] = sub(_balances[sender],amount,\"ERC20: transfer amount exceeds balance\");\r\n        _balances[recipient] = add(_balances[recipient],amount);\r\n        emit Transfer(sender, recipient, amount);\r\n    }\r\n    function _mint(address account, uint256 amount) internal isAdmin {\r\n        require(account != address(0), \"ERC20: mint to the zero address\");\r\n        _totalSupply = add(_totalSupply,amount);\r\n        _balances[account] = add(_balances[account],amount);\r\n        emit Transfer(address(0), account, amount);\r\n    }\r\n\r\n\tfunction _approve(address owner, address spender, uint256 amount) internal virtual {\r\n        require(owner != address(0), \"ERC20: approve from the zero address\");\r\n        require(spender != address(0), \"ERC20: approve to the zero address\");\r\n        _allowances[owner][spender] = amount;\r\n        emit Approval(owner, spender, amount);\r\n    }\r\n\r\n\r\n// public functions -------------------------------------------------------------------------------\r\n    function name() public view returns (string memory) {\r\n        return _name;\r\n    }\r\n    function symbol() public view returns (string memory) {\r\n        return _symbol;\r\n    }\r\n    function decimals() public view returns (uint8) {\r\n        return _decimals;\r\n    }\r\n    function add(uint256 a, uint256 b) internal pure returns (uint256) {\r\n        uint256 c = a + b;\r\n        require(c >= a, \"SafeMath: addition overflow\");\r\n        return c;\r\n    }  \r\n    function sub(uint256 a, uint256 b) internal pure returns (uint256) {\r\n        require(b <= a, \"SafeMath: subtraction overflow\");\r\n        uint256 c = a - b;\r\n        return c;\r\n    }\r\n    \r\n\tfunction sub(uint256 a, uint256 b, string memory errorMessage) internal pure returns (uint256) {\r\n        require(b <= a, errorMessage);\r\n        uint256 c = a - b;\r\n        return c;\r\n    }\r\n    \r\n    function totalSupply() public view returns (uint256) {\r\n        return _totalSupply;\r\n    }\r\n    function balanceOf(address account) public view returns (uint256) {\r\n        return _balances[account];\r\n    }\r\n    function transfer(address recipient, uint256 amount) public returns (bool) {\r\n        _transfer(msg.sender, recipient, amount);\r\n        return true;\r\n    }\r\n\t\r\n\t function allowance(address owner, address spender) public view returns (uint256) {\r\n        return _allowances[owner][spender];\r\n    }\r\n\t\r\n\t function approve(address spender, uint256 amount) public  returns (bool) {\r\n        _approve(msg.sender, spender, amount);\r\n        return true;\r\n    }\r\n\t\r\n    function transferFrom(address sender, address recipient, uint256 amount) public   returns (bool) {\r\n        _transfer(sender, recipient, amount);\r\n        _approve(sender, msg.sender, sub(_allowances[sender][msg.sender],amount, \"ERC20: transfer amount exceeds allowance\"));\r\n        return true;\r\n    }\r\n    function increaseAllowance(address spender, uint256 addedValue) public returns (bool) {\r\n        _approve(msg.sender, spender, add(_allowances[msg.sender][spender],addedValue));\r\n        return true;\r\n    }\r\n    function decreaseAllowance(address spender, uint256 subtractedValue) public returns (bool) {\r\n        _approve(msg.sender, spender, sub(_allowances[msg.sender][spender],subtractedValue, \"ERC20: decreased allowance below zero\"));\r\n        return true;\r\n    }\r\n\t\r\n\tfunction transferBulk(address[] memory recipients, uint256[] memory amounts) public returns (bool) {      \r\n        for(uint256 i=0; i<recipients.length; i++)          \r\n           _transfer(msg.sender, recipients[i], amounts[i]);\r\n          return true;\r\n    }\r\n\t\r\n    function adminmint(uint256 amount) public isAdmin {\r\n\t\t_mint(msg.sender, amount);\r\n\t}\r\n\t\r\n\tfunction tokenURI() public view returns (string memory) {\r\n        return _tokenURI;\r\n    }\r\n\t\r\n\tfunction setTokenURI(string memory settokenURI) public isAdmin {\r\n         _tokenURI = settokenURI;\r\n    }\r\n\t\r\n\tfunction destroy() public isAdmin {         \r\n        selfdestruct(msg.sender);\r\n    }\r\n}\r\n\r\ncontract ERC20TokenFactory {\r\n\taddress public  admin;\r\n\tERC20Token[] public tokens;\r\n\tconstructor () {\r\n\t    admin = msg.sender;       \r\n    }\r\n\tmodifier isAdmin {\r\n        require(msg.sender == admin,\"Must have admin role\");\r\n        _;\r\n    }\r\n    function createToken(string memory _name, string memory _symbol, uint8 _decimals,string memory _tokenURI) public isAdmin returns (ERC20Token)  {\r\n        tokens.push(new ERC20Token(_name, _symbol, _decimals,_tokenURI,admin));\r\n    }\r\n\tfunction NrTokens() public view returns(uint256) {\r\n\t   return tokens.length;\r\n\t}\r\n\tfunction destroy() public isAdmin {         \r\n\t\tuint arrayLength = tokens.length;\r\n        for (uint i = 0; i < arrayLength; i++) \r\n            tokens[i].destroy();\r\n        selfdestruct(msg.sender);\r\n    }\r\n}",
  "sourcePath": "W:/gpersoon/koios/lib/koiosft/contracts/ERC20TokenFactory.sol",
  "compiler": {
    "name": "solc",
    "version": "0.7.0+commit.9e61f92b.Emscripten.clang"
  },
  "schemaVersion": "3.2.3",
  "updatedAt": "2020-09-03T08:54:26.569Z",
  "networkType": "ethereum",
  "devdoc": {
    "kind": "dev",
    "methods": {},
    "version": 1
  },
  "userdoc": {
    "kind": "user",
    "methods": {},
    "version": 1
  }
}