{
  "contractName": "KOIOSNFT",
  "abi": [
    {
      "inputs": [],
      "stateMutability": "nonpayable",
      "type": "constructor"
    },
    {
      "anonymous": false,
      "inputs": [
        {
          "indexed": true,
          "internalType": "address",
          "name": "_from",
          "type": "address"
        },
        {
          "indexed": true,
          "internalType": "address",
          "name": "_to",
          "type": "address"
        },
        {
          "indexed": true,
          "internalType": "uint256",
          "name": "_tokenId",
          "type": "uint256"
        }
      ],
      "name": "Transfer",
      "type": "event"
    },
    {
      "inputs": [],
      "name": "ADMINTOKEN",
      "outputs": [
        {
          "internalType": "uint256",
          "name": "",
          "type": "uint256"
        }
      ],
      "stateMutability": "view",
      "type": "function",
      "constant": true
    },
    {
      "inputs": [],
      "name": "ADMINTOKENMANAGER",
      "outputs": [
        {
          "internalType": "uint256",
          "name": "",
          "type": "uint256"
        }
      ],
      "stateMutability": "view",
      "type": "function",
      "constant": true
    },
    {
      "inputs": [],
      "name": "BADGECREATORTOKEN",
      "outputs": [
        {
          "internalType": "uint256",
          "name": "",
          "type": "uint256"
        }
      ],
      "stateMutability": "view",
      "type": "function",
      "constant": true
    },
    {
      "inputs": [],
      "name": "BADGECREATORTOKENMANAGER",
      "outputs": [
        {
          "internalType": "uint256",
          "name": "",
          "type": "uint256"
        }
      ],
      "stateMutability": "view",
      "type": "function",
      "constant": true
    },
    {
      "inputs": [],
      "name": "CONTRACTINFO",
      "outputs": [
        {
          "internalType": "uint256",
          "name": "",
          "type": "uint256"
        }
      ],
      "stateMutability": "view",
      "type": "function",
      "constant": true
    },
    {
      "inputs": [],
      "name": "CONTRACTINFOMANAGER",
      "outputs": [
        {
          "internalType": "uint256",
          "name": "",
          "type": "uint256"
        }
      ],
      "stateMutability": "view",
      "type": "function",
      "constant": true
    },
    {
      "inputs": [],
      "name": "admin",
      "outputs": [
        {
          "internalType": "address",
          "name": "",
          "type": "address"
        }
      ],
      "stateMutability": "view",
      "type": "function",
      "constant": true
    },
    {
      "inputs": [
        {
          "internalType": "uint256",
          "name": "",
          "type": "uint256"
        }
      ],
      "name": "allTokens",
      "outputs": [
        {
          "internalType": "uint256",
          "name": "",
          "type": "uint256"
        }
      ],
      "stateMutability": "view",
      "type": "function",
      "constant": true
    },
    {
      "inputs": [
        {
          "internalType": "uint256",
          "name": "",
          "type": "uint256"
        }
      ],
      "name": "allTokensIndex",
      "outputs": [
        {
          "internalType": "uint256",
          "name": "",
          "type": "uint256"
        }
      ],
      "stateMutability": "view",
      "type": "function",
      "constant": true
    },
    {
      "inputs": [],
      "name": "counter",
      "outputs": [
        {
          "internalType": "uint256",
          "name": "",
          "type": "uint256"
        }
      ],
      "stateMutability": "view",
      "type": "function",
      "constant": true
    },
    {
      "inputs": [],
      "name": "name",
      "outputs": [
        {
          "internalType": "string",
          "name": "",
          "type": "string"
        }
      ],
      "stateMutability": "view",
      "type": "function",
      "constant": true
    },
    {
      "inputs": [
        {
          "internalType": "address",
          "name": "",
          "type": "address"
        },
        {
          "internalType": "uint256",
          "name": "",
          "type": "uint256"
        }
      ],
      "name": "ownedTokens",
      "outputs": [
        {
          "internalType": "uint256",
          "name": "",
          "type": "uint256"
        }
      ],
      "stateMutability": "view",
      "type": "function",
      "constant": true
    },
    {
      "inputs": [
        {
          "internalType": "uint256",
          "name": "",
          "type": "uint256"
        }
      ],
      "name": "ownedTokensIndex",
      "outputs": [
        {
          "internalType": "uint256",
          "name": "",
          "type": "uint256"
        }
      ],
      "stateMutability": "view",
      "type": "function",
      "constant": true
    },
    {
      "inputs": [
        {
          "internalType": "address",
          "name": "",
          "type": "address"
        },
        {
          "internalType": "uint256",
          "name": "",
          "type": "uint256"
        }
      ],
      "name": "ownedTypedTokens",
      "outputs": [
        {
          "internalType": "uint256",
          "name": "",
          "type": "uint256"
        }
      ],
      "stateMutability": "view",
      "type": "function",
      "constant": true
    },
    {
      "inputs": [
        {
          "internalType": "uint256",
          "name": "",
          "type": "uint256"
        }
      ],
      "name": "ownerOfToken",
      "outputs": [
        {
          "internalType": "address",
          "name": "",
          "type": "address"
        }
      ],
      "stateMutability": "view",
      "type": "function",
      "constant": true
    },
    {
      "inputs": [],
      "name": "receivedData",
      "outputs": [
        {
          "internalType": "bytes",
          "name": "",
          "type": "bytes"
        }
      ],
      "stateMutability": "view",
      "type": "function",
      "constant": true
    },
    {
      "inputs": [],
      "name": "receivedFrom",
      "outputs": [
        {
          "internalType": "address",
          "name": "",
          "type": "address"
        }
      ],
      "stateMutability": "view",
      "type": "function",
      "constant": true
    },
    {
      "inputs": [],
      "name": "receivedOperator",
      "outputs": [
        {
          "internalType": "address",
          "name": "",
          "type": "address"
        }
      ],
      "stateMutability": "view",
      "type": "function",
      "constant": true
    },
    {
      "inputs": [],
      "name": "receivedTokenId",
      "outputs": [
        {
          "internalType": "uint256",
          "name": "",
          "type": "uint256"
        }
      ],
      "stateMutability": "view",
      "type": "function",
      "constant": true
    },
    {
      "inputs": [],
      "name": "symbol",
      "outputs": [
        {
          "internalType": "string",
          "name": "",
          "type": "string"
        }
      ],
      "stateMutability": "view",
      "type": "function",
      "constant": true
    },
    {
      "inputs": [
        {
          "internalType": "uint256",
          "name": "",
          "type": "uint256"
        }
      ],
      "name": "templateOf",
      "outputs": [
        {
          "internalType": "uint256",
          "name": "",
          "type": "uint256"
        }
      ],
      "stateMutability": "view",
      "type": "function",
      "constant": true
    },
    {
      "inputs": [
        {
          "internalType": "uint256",
          "name": "",
          "type": "uint256"
        }
      ],
      "name": "templates",
      "outputs": [
        {
          "internalType": "string",
          "name": "name",
          "type": "string"
        },
        {
          "internalType": "string",
          "name": "cid",
          "type": "string"
        },
        {
          "internalType": "bool",
          "name": "SelfMint",
          "type": "bool"
        },
        {
          "internalType": "bool",
          "name": "SelfBurn",
          "type": "bool"
        },
        {
          "internalType": "bool",
          "name": "AllowTransfer",
          "type": "bool"
        },
        {
          "internalType": "uint256",
          "name": "Manager",
          "type": "uint256"
        }
      ],
      "stateMutability": "view",
      "type": "function",
      "constant": true
    },
    {
      "inputs": [
        {
          "internalType": "uint256",
          "name": "",
          "type": "uint256"
        },
        {
          "internalType": "uint256",
          "name": "",
          "type": "uint256"
        }
      ],
      "name": "typedTokens",
      "outputs": [
        {
          "internalType": "uint256",
          "name": "",
          "type": "uint256"
        }
      ],
      "stateMutability": "view",
      "type": "function",
      "constant": true
    },
    {
      "inputs": [
        {
          "internalType": "uint256",
          "name": "",
          "type": "uint256"
        }
      ],
      "name": "typedTokensIndex",
      "outputs": [
        {
          "internalType": "uint256",
          "name": "",
          "type": "uint256"
        }
      ],
      "stateMutability": "view",
      "type": "function",
      "constant": true
    },
    {
      "inputs": [
        {
          "internalType": "address",
          "name": "_operator",
          "type": "address"
        },
        {
          "internalType": "address",
          "name": "_from",
          "type": "address"
        },
        {
          "internalType": "uint256",
          "name": "_tokenId",
          "type": "uint256"
        },
        {
          "internalType": "bytes",
          "name": "_data",
          "type": "bytes"
        }
      ],
      "name": "onERC721Received",
      "outputs": [
        {
          "internalType": "bytes4",
          "name": "",
          "type": "bytes4"
        }
      ],
      "stateMutability": "nonpayable",
      "type": "function"
    },
    {
      "inputs": [
        {
          "internalType": "address",
          "name": "_from",
          "type": "address"
        },
        {
          "internalType": "address",
          "name": "_to",
          "type": "address"
        },
        {
          "internalType": "uint256",
          "name": "_tokenId",
          "type": "uint256"
        }
      ],
      "name": "transferFrom",
      "outputs": [],
      "stateMutability": "payable",
      "type": "function",
      "payable": true
    },
    {
      "inputs": [
        {
          "internalType": "address",
          "name": "_from",
          "type": "address"
        },
        {
          "internalType": "address",
          "name": "_to",
          "type": "address"
        },
        {
          "internalType": "uint256",
          "name": "_tokenId",
          "type": "uint256"
        }
      ],
      "name": "safeTransferFrom",
      "outputs": [],
      "stateMutability": "payable",
      "type": "function",
      "payable": true
    },
    {
      "inputs": [
        {
          "internalType": "address",
          "name": "_from",
          "type": "address"
        },
        {
          "internalType": "address",
          "name": "_to",
          "type": "address"
        },
        {
          "internalType": "uint256",
          "name": "_tokenId",
          "type": "uint256"
        },
        {
          "internalType": "bytes",
          "name": "data",
          "type": "bytes"
        }
      ],
      "name": "safeTransferFrom",
      "outputs": [],
      "stateMutability": "payable",
      "type": "function",
      "payable": true
    },
    {
      "inputs": [],
      "name": "totalSupply",
      "outputs": [
        {
          "internalType": "uint256",
          "name": "",
          "type": "uint256"
        }
      ],
      "stateMutability": "view",
      "type": "function",
      "constant": true
    },
    {
      "inputs": [
        {
          "internalType": "uint256",
          "name": "_tokenId",
          "type": "uint256"
        }
      ],
      "name": "ownerOf",
      "outputs": [
        {
          "internalType": "address",
          "name": "",
          "type": "address"
        }
      ],
      "stateMutability": "view",
      "type": "function",
      "constant": true
    },
    {
      "inputs": [
        {
          "internalType": "uint256",
          "name": "_index",
          "type": "uint256"
        }
      ],
      "name": "tokenByIndex",
      "outputs": [
        {
          "internalType": "uint256",
          "name": "",
          "type": "uint256"
        }
      ],
      "stateMutability": "view",
      "type": "function",
      "constant": true
    },
    {
      "inputs": [
        {
          "internalType": "address",
          "name": "_owner",
          "type": "address"
        },
        {
          "internalType": "uint256",
          "name": "_index",
          "type": "uint256"
        }
      ],
      "name": "tokenOfOwnerByIndex",
      "outputs": [
        {
          "internalType": "uint256",
          "name": "_tokenId",
          "type": "uint256"
        }
      ],
      "stateMutability": "view",
      "type": "function",
      "constant": true
    },
    {
      "inputs": [
        {
          "internalType": "address",
          "name": "_owner",
          "type": "address"
        }
      ],
      "name": "balanceOf",
      "outputs": [
        {
          "internalType": "uint256",
          "name": "",
          "type": "uint256"
        }
      ],
      "stateMutability": "view",
      "type": "function",
      "constant": true
    },
    {
      "inputs": [
        {
          "internalType": "uint256",
          "name": "_type",
          "type": "uint256"
        }
      ],
      "name": "tokensOfType",
      "outputs": [
        {
          "internalType": "uint256",
          "name": "",
          "type": "uint256"
        }
      ],
      "stateMutability": "view",
      "type": "function",
      "constant": true
    },
    {
      "inputs": [
        {
          "internalType": "uint256",
          "name": "_type",
          "type": "uint256"
        },
        {
          "internalType": "uint256",
          "name": "_index",
          "type": "uint256"
        }
      ],
      "name": "tokenOfTypeByIndex",
      "outputs": [
        {
          "internalType": "uint256",
          "name": "_tokenId",
          "type": "uint256"
        }
      ],
      "stateMutability": "view",
      "type": "function",
      "constant": true
    },
    {
      "inputs": [
        {
          "internalType": "uint256",
          "name": "_tokenId",
          "type": "uint256"
        }
      ],
      "name": "tokenURI",
      "outputs": [
        {
          "internalType": "string",
          "name": "",
          "type": "string"
        }
      ],
      "stateMutability": "view",
      "type": "function",
      "constant": true
    },
    {
      "inputs": [
        {
          "internalType": "bytes4",
          "name": "interfaceID",
          "type": "bytes4"
        }
      ],
      "name": "supportsInterface",
      "outputs": [
        {
          "internalType": "bool",
          "name": "",
          "type": "bool"
        }
      ],
      "stateMutability": "pure",
      "type": "function",
      "constant": true
    },
    {
      "inputs": [
        {
          "internalType": "address",
          "name": "_minter",
          "type": "address"
        },
        {
          "internalType": "uint256",
          "name": "_templateId",
          "type": "uint256"
        }
      ],
      "name": "createToken",
      "outputs": [],
      "stateMutability": "nonpayable",
      "type": "function"
    },
    {
      "inputs": [
        {
          "internalType": "uint256",
          "name": "_tokenId",
          "type": "uint256"
        }
      ],
      "name": "burnToken",
      "outputs": [],
      "stateMutability": "nonpayable",
      "type": "function"
    },
    {
      "inputs": [
        {
          "internalType": "string",
          "name": "_name",
          "type": "string"
        },
        {
          "internalType": "string",
          "name": "_cid",
          "type": "string"
        },
        {
          "internalType": "bool",
          "name": "_SelfMint",
          "type": "bool"
        },
        {
          "internalType": "bool",
          "name": "_SelfBurn",
          "type": "bool"
        },
        {
          "internalType": "bool",
          "name": "_AllowTransfer",
          "type": "bool"
        }
      ],
      "name": "CreateNewBadge",
      "outputs": [
        {
          "internalType": "uint256",
          "name": "",
          "type": "uint256"
        }
      ],
      "stateMutability": "nonpayable",
      "type": "function"
    },
    {
      "inputs": [
        {
          "internalType": "address",
          "name": "_to",
          "type": "address"
        },
        {
          "internalType": "uint256",
          "name": "_templateid",
          "type": "uint256"
        }
      ],
      "name": "assignManager",
      "outputs": [],
      "stateMutability": "nonpayable",
      "type": "function"
    },
    {
      "inputs": [
        {
          "internalType": "uint256",
          "name": "_templateid",
          "type": "uint256"
        },
        {
          "internalType": "string",
          "name": "_name",
          "type": "string"
        },
        {
          "internalType": "string",
          "name": "_cid",
          "type": "string"
        },
        {
          "internalType": "bool",
          "name": "_SelfMint",
          "type": "bool"
        },
        {
          "internalType": "bool",
          "name": "_SelfBurn",
          "type": "bool"
        },
        {
          "internalType": "bool",
          "name": "_AllowTransfer",
          "type": "bool"
        },
        {
          "internalType": "uint256",
          "name": "_Manager",
          "type": "uint256"
        }
      ],
      "name": "UpdateBadge",
      "outputs": [],
      "stateMutability": "nonpayable",
      "type": "function"
    },
    {
      "inputs": [],
      "name": "nrTemplates",
      "outputs": [
        {
          "internalType": "uint256",
          "name": "",
          "type": "uint256"
        }
      ],
      "stateMutability": "view",
      "type": "function",
      "constant": true
    },
    {
      "inputs": [
        {
          "internalType": "string",
          "name": "_baseURI",
          "type": "string"
        }
      ],
      "name": "setBaseURI",
      "outputs": [],
      "stateMutability": "nonpayable",
      "type": "function"
    },
    {
      "inputs": [],
      "name": "contractURI",
      "outputs": [
        {
          "internalType": "string",
          "name": "",
          "type": "string"
        }
      ],
      "stateMutability": "view",
      "type": "function",
      "constant": true
    }
  ],
  "bytecode": "0x6080604052600a6003553480156200001657600080fd5b5033600260006101000a81548173ffffffffffffffffffffffffffffffffffffffff021916908373ffffffffffffffffffffffffffffffffffffffff1602179055506040518060400160405280600581526020017f6b6f696f7300000000000000000000000000000000000000000000000000000081525060009080519060200190620000a592919062000c07565b506040518060400160405280600581526020017f6b6f696f7300000000000000000000000000000000000000000000000000000081525060019080519060200190620000f392919062000c07565b506040518060400160405280600c81526020017f697066733a2f2f697066732f0000000000000000000000000000000000000000815250600e90805190602001906200014192919062000c07565b506200021060008054600181600116156101000203166002900480601f016020809104026020016040519081016040528092919081815260200182805460018160011615610100020316600290048015620001e05780601f10620001b457610100808354040283529160200191620001e0565b820191906000526020600020905b815481529060010190602001808311620001c257829003601f168201915b50505050506040518060600160405280602e815260200162004bf2602e91396001806001620002e360201b60201c565b50620002766040518060400160405280600581526020017f61646d696e0000000000000000000000000000000000000000000000000000008152506040518060600160405280602e815260200162004c46602e91396001806001620002e360201b60201c565b50620002dc6040518060400160405280600c81526020017f626164676563726561746f7200000000000000000000000000000000000000008152506040518060600160405280602e815260200162004ca1602e91396001806001620002e360201b60201c565b5062000cb6565b6000600260009054906101000a900473ffffffffffffffffffffffffffffffffffffffff1673ffffffffffffffffffffffffffffffffffffffff163373ffffffffffffffffffffffffffffffffffffffff1614806200039357506000600c60003373ffffffffffffffffffffffffffffffffffffffff1673ffffffffffffffffffffffffffffffffffffffff16815260200190815260200160002060006003815260200190815260200160002054115b80620003f057506000600c60003373ffffffffffffffffffffffffffffffffffffffff1673ffffffffffffffffffffffffffffffffffffffff16815260200190815260200160002060006005815260200190815260200160002054115b62000447576040517f08c379a000000000000000000000000000000000000000000000000000000000815260040180806020018281038252602681526020018062004c206026913960400191505060405180910390fd5b600d6040518060c00160405280886040516020018082805190602001908083835b602083106200048d578051825260208201915060208101905060208303925062000468565b6001836020036101000a038019825116818451168082178552505050505050905001807f2d6d616e6167657200000000000000000000000000000000000000000000000081525060080191505060405160208183030381529060405281526020016040518060600160405280602e815260200162004ca1602e913981526020016000151581526020016000151581526020016000151581526020016000815250908060018154018082558091505060019003906000526020600020906004020160009091909190915060008201518160000190805190602001906200057492919062000c07565b5060208201518160010190805190602001906200059392919062000c07565b5060408201518160020160006101000a81548160ff02191690831515021790555060608201518160020160016101000a81548160ff02191690831515021790555060808201518160020160026101000a81548160ff02191690831515021790555060a082015181600301555050600d6040518060c001604052808881526020018781526020018615158152602001851515815260200184151581526020016001600d8054905003815250908060018154018082558091505060019003906000526020600020906004020160009091909190915060008201518160000190805190602001906200068492919062000c07565b506020820151816001019080519060200190620006a392919062000c07565b5060408201518160020160006101000a81548160ff02191690831515021790555060608201518160020160016101000a81548160ff02191690831515021790555060808201518160020160026101000a81548160ff02191690831515021790555060a0820151816003015550506200074c600260009054906101000a900473ffffffffffffffffffffffffffffffffffffffff166002600d80549050036200079c60201b60201c565b62000788600260009054906101000a900473ffffffffffffffffffffffffffffffffffffffff166001600d80549050036200079c60201b60201c565b6001600d8054905003905095945050505050565b80600260009054906101000a900473ffffffffffffffffffffffffffffffffffffffff1673ffffffffffffffffffffffffffffffffffffffff163373ffffffffffffffffffffffffffffffffffffffff1614806200084b57506000600c60003373ffffffffffffffffffffffffffffffffffffffff1673ffffffffffffffffffffffffffffffffffffffff16815260200190815260200160002060006003815260200190815260200160002054115b80620008c657506000600c60003373ffffffffffffffffffffffffffffffffffffffff1673ffffffffffffffffffffffffffffffffffffffff1681526020019081526020016000206000600d8481548110620008a357fe5b906000526020600020906004020160030154815260200190815260200160002054115b6200091d576040517f08c379a000000000000000000000000000000000000000000000000000000000815260040180806020018281038252602d81526020018062004c74602d913960400191505060405180910390fd5b8160096000600354815260200190815260200160002081905550600a600083815260200190815260200160002060035490806001815401808255809150506001900390600052602060002001600090919091909150556001600a60008481526020019081526020016000208054905003600b600084815260200190815260200160002081905550620009b88360035462000a2c60201b60201c565b6003548373ffffffffffffffffffffffffffffffffffffffff16600073ffffffffffffffffffffffffffffffffffffffff167fddf252ad1be2c89b69c2b068fc378daa952ba7f163c4a11628f55a4df523b3ef60405160405180910390a46001600360008282540192505081905550505050565b60048190806001815401808255809150506001900390600052602060002001600090919091909150556001600480549050036005600083815260200190815260200160002081905550816008600083815260200190815260200160002060006101000a81548173ffffffffffffffffffffffffffffffffffffffff021916908373ffffffffffffffffffffffffffffffffffffffff160217905550600660008373ffffffffffffffffffffffffffffffffffffffff1673ffffffffffffffffffffffffffffffffffffffff1681526020019081526020016000208190806001815401808255809150506001900390600052602060002001600090919091909150556001600660008473ffffffffffffffffffffffffffffffffffffffff1673ffffffffffffffffffffffffffffffffffffffff16815260200190815260200160002080549050036007600083815260200190815260200160002081905550600060096000838152602001908152602001600020549050600c60008473ffffffffffffffffffffffffffffffffffffffff1673ffffffffffffffffffffffffffffffffffffffff168152602001908152602001600020600082815260200190815260200160002060008154809291906001019190505550505050565b828054600181600116156101000203166002900490600052602060002090601f016020900481019282601f1062000c4a57805160ff191683800117855562000c7b565b8280016001018555821562000c7b579182015b8281111562000c7a57825182559160200191906001019062000c5d565b5b50905062000c8a919062000c8e565b5090565b62000cb391905b8082111562000caf57600081600090555060010162000c95565b5090565b90565b613f2c8062000cc66000396000f3fe6080604052600436106102725760003560e01c80636fb0518e1161014f578063b88d4fde116100c1578063d1c0c1bf1161007a578063d1c0c1bf146113f4578063e149f0361461158b578063e5956a19146115fa578063e8a3d48514611649578063f851a440146116d9578063f91108c81461173057610272565b8063b88d4fde14610ffe578063bc52565214611103578063bfacd7e81461124b578063c57ac5d61461129a578063c83a976b14611315578063c87b56dd1461134057610272565b806383e6ed5a1161011357806383e6ed5a14610e0457806387d40a7014610e2f578063905aa6c114610ebf57806395d89b4114610eea578063a0eb027a14610f7a578063a9abf93814610fd357610272565b80636fb0518e14610b5357806370a0823114610b7e57806374e2436714610be35780637b47ec1a14610c32578063803d4d9f14610c6d57610272565b806342d8edea116101e857806361bc221a116101ac57806361bc221a14610969578063620de08b14610994578063634282af14610a035780636352211e14610a52578063639f40ed14610acd5780636a10d4d614610af857610272565b806342d8edea1461075d57806344fd706a146107ac5780634da7a043146108035780634f6ccce71461085257806355f804b3146108a157610272565b806323b872dd1161023a57806323b872dd1461056357806326f18fa3146105d15780632edd2674146105fc5780632f745c591461065557806338cc6071146106c457806342842e0e146106ef57610272565b806301ffc9a71461027757806306fdde03146102e9578063150b7a021461037957806318160ddd146104dd5780632163117714610508575b600080fd5b34801561028357600080fd5b506102cf6004803603602081101561029a57600080fd5b8101908080357bffffffffffffffffffffffffffffffffffffffffffffffffffffffff19169060200190929190505050611787565b604051808215151515815260200191505060405180910390f35b3480156102f557600080fd5b506102fe611887565b6040518080602001828103825283818151815260200191508051906020019080838360005b8381101561033e578082015181840152602081019050610323565b50505050905090810190601f16801561036b5780820380516001836020036101000a031916815260200191505b509250505060405180910390f35b34801561038557600080fd5b506104896004803603608081101561039c57600080fd5b81019080803573ffffffffffffffffffffffffffffffffffffffff169060200190929190803573ffffffffffffffffffffffffffffffffffffffff169060200190929190803590602001909291908035906020019064010000000081111561040357600080fd5b82018360208201111561041557600080fd5b8035906020019184600183028401116401000000008311171561043757600080fd5b91908080601f016020809104026020016040519081016040528093929190818152602001838380828437600081840152601f19601f820116905080830192505050505050509192919290505050611925565b60405180827bffffffffffffffffffffffffffffffffffffffffffffffffffffffff19167bffffffffffffffffffffffffffffffffffffffffffffffffffffffff1916815260200191505060405180910390f35b3480156104e957600080fd5b506104f26119d9565b6040518082815260200191505060405180910390f35b34801561051457600080fd5b506105616004803603604081101561052b57600080fd5b81019080803573ffffffffffffffffffffffffffffffffffffffff169060200190929190803590602001909291905050506119e6565b005b6105cf6004803603606081101561057957600080fd5b81019080803573ffffffffffffffffffffffffffffffffffffffff169060200190929190803573ffffffffffffffffffffffffffffffffffffffff16906020019092919080359060200190929190505050611b70565b005b3480156105dd57600080fd5b506105e6611c6e565b6040518082815260200191505060405180910390f35b34801561060857600080fd5b5061063f6004803603604081101561061f57600080fd5b810190808035906020019092919080359060200190929190505050611c7b565b6040518082815260200191505060405180910390f35b34801561066157600080fd5b506106ae6004803603604081101561067857600080fd5b81019080803573ffffffffffffffffffffffffffffffffffffffff16906020019092919080359060200190929190505050611ca9565b6040518082815260200191505060405180910390f35b3480156106d057600080fd5b506106d9611daf565b6040518082815260200191505060405180910390f35b61075b6004803603606081101561070557600080fd5b81019080803573ffffffffffffffffffffffffffffffffffffffff169060200190929190803573ffffffffffffffffffffffffffffffffffffffff16906020019092919080359060200190929190505050611db5565b005b34801561076957600080fd5b506107966004803603602081101561078057600080fd5b810190808035906020019092919050505061201e565b6040518082815260200191505060405180910390f35b3480156107b857600080fd5b506107c1612036565b604051808273ffffffffffffffffffffffffffffffffffffffff1673ffffffffffffffffffffffffffffffffffffffff16815260200191505060405180910390f35b34801561080f57600080fd5b5061083c6004803603602081101561082657600080fd5b810190808035906020019092919050505061205c565b6040518082815260200191505060405180910390f35b34801561085e57600080fd5b5061088b6004803603602081101561087557600080fd5b8101908080359060200190929190505050612074565b6040518082815260200191505060405180910390f35b3480156108ad57600080fd5b50610967600480360360208110156108c457600080fd5b81019080803590602001906401000000008111156108e157600080fd5b8201836020820111156108f357600080fd5b8035906020019184600183028401116401000000008311171561091557600080fd5b91908080601f016020809104026020016040519081016040528093929190818152602001838380828437600081840152601f19601f8201169050808301925050505050505091929192905050506120a6565b005b34801561097557600080fd5b5061097e6121c2565b6040518082815260200191505060405180910390f35b3480156109a057600080fd5b506109ed600480360360408110156109b757600080fd5b81019080803573ffffffffffffffffffffffffffffffffffffffff169060200190929190803590602001909291905050506121c8565b6040518082815260200191505060405180910390f35b348015610a0f57600080fd5b50610a3c60048036036020811015610a2657600080fd5b81019080803590602001909291905050506121ed565b6040518082815260200191505060405180910390f35b348015610a5e57600080fd5b50610a8b60048036036020811015610a7557600080fd5b810190808035906020019092919050505061220e565b604051808273ffffffffffffffffffffffffffffffffffffffff1673ffffffffffffffffffffffffffffffffffffffff16815260200191505060405180910390f35b348015610ad957600080fd5b50610ae26122a4565b6040518082815260200191505060405180910390f35b348015610b0457600080fd5b50610b5160048036036040811015610b1b57600080fd5b81019080803573ffffffffffffffffffffffffffffffffffffffff169060200190929190803590602001909291905050506122a9565b005b348015610b5f57600080fd5b50610b6861252c565b6040518082815260200191505060405180910390f35b348015610b8a57600080fd5b50610bcd60048036036020811015610ba157600080fd5b81019080803573ffffffffffffffffffffffffffffffffffffffff169060200190929190505050612531565b6040518082815260200191505060405180910390f35b348015610bef57600080fd5b50610c1c60048036036020811015610c0657600080fd5b81019080803590602001909291905050506125a0565b6040518082815260200191505060405180910390f35b348015610c3e57600080fd5b50610c6b60048036036020811015610c5557600080fd5b81019080803590602001909291905050506125b8565b005b348015610c7957600080fd5b50610dee600480360360a0811015610c9057600080fd5b8101908080359060200190640100000000811115610cad57600080fd5b820183602082011115610cbf57600080fd5b80359060200191846001830284011164010000000083111715610ce157600080fd5b91908080601f016020809104026020016040519081016040528093929190818152602001838380828437600081840152601f19601f82011690508083019250505050505050919291929080359060200190640100000000811115610d4457600080fd5b820183602082011115610d5657600080fd5b80359060200191846001830284011164010000000083111715610d7857600080fd5b91908080601f016020809104026020016040519081016040528093929190818152602001838380828437600081840152601f19601f8201169050808301925050505050505091929192908035151590602001909291908035151590602001909291908035151590602001909291905050506127f3565b6040518082815260200191505060405180910390f35b348015610e1057600080fd5b50610e19612c8d565b6040518082815260200191505060405180910390f35b348015610e3b57600080fd5b50610e44612c92565b6040518080602001828103825283818151815260200191508051906020019080838360005b83811015610e84578082015181840152602081019050610e69565b50505050905090810190601f168015610eb15780820380516001836020036101000a031916815260200191505b509250505060405180910390f35b348015610ecb57600080fd5b50610ed4612d30565b6040518082815260200191505060405180910390f35b348015610ef657600080fd5b50610eff612d35565b6040518080602001828103825283818151815260200191508051906020019080838360005b83811015610f3f578082015181840152602081019050610f24565b50505050905090810190601f168015610f6c5780820380516001836020036101000a031916815260200191505b509250505060405180910390f35b348015610f8657600080fd5b50610fbd60048036036040811015610f9d57600080fd5b810190808035906020019092919080359060200190929190505050612dd3565b6040518082815260200191505060405180910390f35b348015610fdf57600080fd5b50610fe8612e28565b6040518082815260200191505060405180910390f35b6111016004803603608081101561101457600080fd5b81019080803573ffffffffffffffffffffffffffffffffffffffff169060200190929190803573ffffffffffffffffffffffffffffffffffffffff169060200190929190803590602001909291908035906020019064010000000081111561107b57600080fd5b82018360208201111561108d57600080fd5b803590602001918460018302840111640100000000831117156110af57600080fd5b91908080601f016020809104026020016040519081016040528093929190818152602001838380828437600081840152601f19601f820116905080830192505050505050509192919290505050612e2d565b005b34801561110f57600080fd5b5061113c6004803603602081101561112657600080fd5b81019080803590602001909291905050506130f0565b604051808060200180602001871515151581526020018615151515815260200185151515158152602001848152602001838103835289818151815260200191508051906020019080838360005b838110156111a4578082015181840152602081019050611189565b50505050905090810190601f1680156111d15780820380516001836020036101000a031916815260200191505b50838103825288818151815260200191508051906020019080838360005b8381101561120a5780820151818401526020810190506111ef565b50505050905090810190601f1680156112375780820380516001836020036101000a031916815260200191505b509850505050505050505060405180910390f35b34801561125757600080fd5b506112846004803603602081101561126e57600080fd5b8101908080359060200190929190505050613290565b6040518082815260200191505060405180910390f35b3480156112a657600080fd5b506112d3600480360360208110156112bd57600080fd5b81019080803590602001909291905050506132a8565b604051808273ffffffffffffffffffffffffffffffffffffffff1673ffffffffffffffffffffffffffffffffffffffff16815260200191505060405180910390f35b34801561132157600080fd5b5061132a6132db565b6040518082815260200191505060405180910390f35b34801561134c57600080fd5b506113796004803603602081101561136357600080fd5b81019080803590602001909291905050506132e0565b6040518080602001828103825283818151815260200191508051906020019080838360005b838110156113b957808201518184015260208101905061139e565b50505050905090810190601f1680156113e65780820380516001836020036101000a031916815260200191505b509250505060405180910390f35b34801561140057600080fd5b50611589600480360360e081101561141757600080fd5b81019080803590602001909291908035906020019064010000000081111561143e57600080fd5b82018360208201111561145057600080fd5b8035906020019184600183028401116401000000008311171561147257600080fd5b91908080601f016020809104026020016040519081016040528093929190818152602001838380828437600081840152601f19601f820116905080830192505050505050509192919290803590602001906401000000008111156114d557600080fd5b8201836020820111156114e757600080fd5b8035906020019184600183028401116401000000008311171561150957600080fd5b91908080601f016020809104026020016040519081016040528093929190818152602001838380828437600081840152601f19601f820116905080830192505050505050509192919290803515159060200190929190803515159060200190929190803515159060200190929190803590602001909291905050506133ee565b005b34801561159757600080fd5b506115e4600480360360408110156115ae57600080fd5b81019080803573ffffffffffffffffffffffffffffffffffffffff169060200190929190803590602001909291905050506135ee565b6040518082815260200191505060405180910390f35b34801561160657600080fd5b506116336004803603602081101561161d57600080fd5b810190808035906020019092919050505061361c565b6040518082815260200191505060405180910390f35b34801561165557600080fd5b5061165e61363c565b6040518080602001828103825283818151815260200191508051906020019080838360005b8381101561169e578082015181840152602081019050611683565b50505050905090810190601f1680156116cb5780820380516001836020036101000a031916815260200191505b509250505060405180910390f35b3480156116e557600080fd5b506116ee613730565b604051808273ffffffffffffffffffffffffffffffffffffffff1673ffffffffffffffffffffffffffffffffffffffff16815260200191505060405180910390f35b34801561173c57600080fd5b50611745613756565b604051808273ffffffffffffffffffffffffffffffffffffffff1673ffffffffffffffffffffffffffffffffffffffff16815260200191505060405180910390f35b60006380ac58cd60e01b7bffffffffffffffffffffffffffffffffffffffffffffffffffffffff1916827bffffffffffffffffffffffffffffffffffffffffffffffffffffffff191614806118205750635b5e139f60e01b7bffffffffffffffffffffffffffffffffffffffffffffffffffffffff1916827bffffffffffffffffffffffffffffffffffffffffffffffffffffffff1916145b8061186f575063780e9d6360e01b7bffffffffffffffffffffffffffffffffffffffffffffffffffffffff1916827bffffffffffffffffffffffffffffffffffffffffffffffffffffffff1916145b1561187d5760019050611882565b600090505b919050565b60008054600181600116156101000203166002900480601f01602080910402602001604051908101604052809291908181526020018280546001816001161561010002031660029004801561191d5780601f106118f25761010080835404028352916020019161191d565b820191906000526020600020905b81548152906001019060200180831161190057829003601f168201915b505050505081565b600084600f60006101000a81548173ffffffffffffffffffffffffffffffffffffffff021916908373ffffffffffffffffffffffffffffffffffffffff16021790555083601060006101000a81548173ffffffffffffffffffffffffffffffffffffffff021916908373ffffffffffffffffffffffffffffffffffffffff1602179055508260118190555081601290805190602001906119c6929190613d09565b5063150b7a0260e01b9050949350505050565b6000600480549050905090565b600260009054906101000a900473ffffffffffffffffffffffffffffffffffffffff1673ffffffffffffffffffffffffffffffffffffffff163373ffffffffffffffffffffffffffffffffffffffff161480611a9357506000600c60003373ffffffffffffffffffffffffffffffffffffffff1673ffffffffffffffffffffffffffffffffffffffff16815260200190815260200160002060006003815260200190815260200160002054115b80611aef57506000600c60003373ffffffffffffffffffffffffffffffffffffffff1673ffffffffffffffffffffffffffffffffffffffff16815260200190815260200160002060006005815260200190815260200160002054115b611b44576040517f08c379a0000000000000000000000000000000000000000000000000000000008152600401808060200182810382526026815260200180613e2f6026913960400191505060405180910390fd5b611b6c82600d8381548110611b5557fe5b9060005260206000209060040201600301546122a9565b5050565b8060006008600083815260200190815260200160002060009054906101000a900473ffffffffffffffffffffffffffffffffffffffff1673ffffffffffffffffffffffffffffffffffffffff161415611bc857600080fd5b8383838273ffffffffffffffffffffffffffffffffffffffff166008600083815260200190815260200160002060009054906101000a900473ffffffffffffffffffffffffffffffffffffffff1673ffffffffffffffffffffffffffffffffffffffff1614611c3657600080fd5b60008273ffffffffffffffffffffffffffffffffffffffff161415611c5a57600080fd5b611c6587878761377c565b50505050505050565b6000600d80549050905090565b600a6020528160005260406000208181548110611c9457fe5b90600052602060002001600091509150505481565b60008060006008600083815260200190815260200160002060009054906101000a900473ffffffffffffffffffffffffffffffffffffffff1673ffffffffffffffffffffffffffffffffffffffff161415611d0357600080fd5b600660008573ffffffffffffffffffffffffffffffffffffffff1673ffffffffffffffffffffffffffffffffffffffff168152602001908152602001600020805490508310611d5157600080fd5b600660008573ffffffffffffffffffffffffffffffffffffffff1673ffffffffffffffffffffffffffffffffffffffff1681526020019081526020016000208381548110611d9b57fe5b906000526020600020015491505092915050565b60115481565b8060006008600083815260200190815260200160002060009054906101000a900473ffffffffffffffffffffffffffffffffffffffff1673ffffffffffffffffffffffffffffffffffffffff161415611e0d57600080fd5b8383838273ffffffffffffffffffffffffffffffffffffffff166008600083815260200190815260200160002060009054906101000a900473ffffffffffffffffffffffffffffffffffffffff1673ffffffffffffffffffffffffffffffffffffffff1614611e7b57600080fd5b60008273ffffffffffffffffffffffffffffffffffffffff161415611e9f57600080fd5b611eaa87878761377c565b6000863b905060008111156120145763150b7a0260e01b7bffffffffffffffffffffffffffffffffffffffffffffffffffffffff19168773ffffffffffffffffffffffffffffffffffffffff1663150b7a02338b8a6040518463ffffffff1660e01b8152600401808473ffffffffffffffffffffffffffffffffffffffff1673ffffffffffffffffffffffffffffffffffffffff1681526020018373ffffffffffffffffffffffffffffffffffffffff1673ffffffffffffffffffffffffffffffffffffffff16815260200182815260200180602001828103825260008152602001602001945050505050602060405180830381600087803b158015611faf57600080fd5b505af1158015611fc3573d6000803e3d6000fd5b505050506040513d6020811015611fd957600080fd5b81019080805190602001909291905050507bffffffffffffffffffffffffffffffffffffffffffffffffffffffff19161461201357600080fd5b5b5050505050505050565b60056020528060005260406000206000915090505481565b600f60009054906101000a900473ffffffffffffffffffffffffffffffffffffffff1681565b600b6020528060005260406000206000915090505481565b6000600480549050821061208757600080fd5b6004828154811061209457fe5b90600052602060002001549050919050565b600260009054906101000a900473ffffffffffffffffffffffffffffffffffffffff1673ffffffffffffffffffffffffffffffffffffffff163373ffffffffffffffffffffffffffffffffffffffff16148061215357506000600c60003373ffffffffffffffffffffffffffffffffffffffff1673ffffffffffffffffffffffffffffffffffffffff16815260200190815260200160002060006003815260200190815260200160002054115b6121a8576040517f08c379a0000000000000000000000000000000000000000000000000000000008152600401808060200182810382526024815260200180613e786024913960400191505060405180910390fd5b80600e90805190602001906121be929190613d89565b5050565b60035481565b600c602052816000526040600020602052806000526040600020600091509150505481565b600481815481106121fa57fe5b906000526020600020016000915090505481565b60008160006008600083815260200190815260200160002060009054906101000a900473ffffffffffffffffffffffffffffffffffffffff1673ffffffffffffffffffffffffffffffffffffffff16141561226857600080fd5b6008600084815260200190815260200160002060009054906101000a900473ffffffffffffffffffffffffffffffffffffffff16915050919050565b600181565b80600260009054906101000a900473ffffffffffffffffffffffffffffffffffffffff1673ffffffffffffffffffffffffffffffffffffffff163373ffffffffffffffffffffffffffffffffffffffff16148061235757506000600c60003373ffffffffffffffffffffffffffffffffffffffff1673ffffffffffffffffffffffffffffffffffffffff16815260200190815260200160002060006003815260200190815260200160002054115b806123d057506000600c60003373ffffffffffffffffffffffffffffffffffffffff1673ffffffffffffffffffffffffffffffffffffffff1681526020019081526020016000206000600d84815481106123ad57fe5b906000526020600020906004020160030154815260200190815260200160002054115b612425576040517f08c379a000000000000000000000000000000000000000000000000000000000815260040180806020018281038252602d815260200180613e9c602d913960400191505060405180910390fd5b8160096000600354815260200190815260200160002081905550600a600083815260200190815260200160002060035490806001815401808255809150506001900390600052602060002001600090919091909150556001600a60008481526020019081526020016000208054905003600b6000848152602001908152602001600020819055506124b8836003546137f0565b6003548373ffffffffffffffffffffffffffffffffffffffff16600073ffffffffffffffffffffffffffffffffffffffff167fddf252ad1be2c89b69c2b068fc378daa952ba7f163c4a11628f55a4df523b3ef60405160405180910390a46001600360008282540192505081905550505050565b600381565b6000808273ffffffffffffffffffffffffffffffffffffffff16141561255657600080fd5b600660008373ffffffffffffffffffffffffffffffffffffffff1673ffffffffffffffffffffffffffffffffffffffff168152602001908152602001600020805490509050919050565b60076020528060005260406000206000915090505481565b3373ffffffffffffffffffffffffffffffffffffffff166008600083815260200190815260200160002060009054906101000a900473ffffffffffffffffffffffffffffffffffffffff1673ffffffffffffffffffffffffffffffffffffffff161461266f576040517f08c379a0000000000000000000000000000000000000000000000000000000008152600401808060200182810382526023815260200180613e556023913960400191505060405180910390fd5b6000600960008381526020019081526020016000205490506000600b60008481526020019081526020016000205490506000600a6000848152602001908152602001600020805490509050600a600084815260200190815260200160002060018203815481106126db57fe5b9060005260206000200154600a6000858152602001908152602001600020838154811061270457fe5b906000526020600020018190555081600b6000600a6000878152602001908152602001600020600185038154811061273857fe5b9060005260206000200154815260200190815260200160002081905550600a600084815260200190815260200160002080548061277157fe5b6001900381819060005260206000200160009055905561279133856139cb565b83600073ffffffffffffffffffffffffffffffffffffffff163373ffffffffffffffffffffffffffffffffffffffff167fddf252ad1be2c89b69c2b068fc378daa952ba7f163c4a11628f55a4df523b3ef60405160405180910390a450505050565b6000600260009054906101000a900473ffffffffffffffffffffffffffffffffffffffff1673ffffffffffffffffffffffffffffffffffffffff163373ffffffffffffffffffffffffffffffffffffffff1614806128a257506000600c60003373ffffffffffffffffffffffffffffffffffffffff1673ffffffffffffffffffffffffffffffffffffffff16815260200190815260200160002060006003815260200190815260200160002054115b806128fe57506000600c60003373ffffffffffffffffffffffffffffffffffffffff1673ffffffffffffffffffffffffffffffffffffffff16815260200190815260200160002060006005815260200190815260200160002054115b612953576040517f08c379a0000000000000000000000000000000000000000000000000000000008152600401808060200182810382526026815260200180613e2f6026913960400191505060405180910390fd5b600d6040518060c00160405280886040516020018082805190602001908083835b602083106129975780518252602082019150602081019050602083039250612974565b6001836020036101000a038019825116818451168082178552505050505050905001807f2d6d616e6167657200000000000000000000000000000000000000000000000081525060080191505060405160208183030381529060405281526020016040518060600160405280602e8152602001613ec9602e91398152602001600015158152602001600015158152602001600015158152602001600081525090806001815401808255809150506001900390600052602060002090600402016000909190919091506000820151816000019080519060200190612a7b929190613d89565b506020820151816001019080519060200190612a98929190613d89565b5060408201518160020160006101000a81548160ff02191690831515021790555060608201518160020160016101000a81548160ff02191690831515021790555060808201518160020160026101000a81548160ff02191690831515021790555060a082015181600301555050600d6040518060c001604052808881526020018781526020018615158152602001851515815260200184151581526020016001600d805490500381525090806001815401808255809150506001900390600052602060002090600402016000909190919091506000820151816000019080519060200190612b87929190613d89565b506020820151816001019080519060200190612ba4929190613d89565b5060408201518160020160006101000a81548160ff02191690831515021790555060608201518160020160016101000a81548160ff02191690831515021790555060808201518160020160026101000a81548160ff02191690831515021790555060a082015181600301555050612c45600260009054906101000a900473ffffffffffffffffffffffffffffffffffffffff166002600d80549050036122a9565b612c79600260009054906101000a900473ffffffffffffffffffffffffffffffffffffffff166001600d80549050036122a9565b6001600d8054905003905095945050505050565b600581565b60128054600181600116156101000203166002900480601f016020809104026020016040519081016040528092919081815260200182805460018160011615610100020316600290048015612d285780601f10612cfd57610100808354040283529160200191612d28565b820191906000526020600020905b815481529060010190602001808311612d0b57829003601f168201915b505050505081565b600481565b60018054600181600116156101000203166002900480601f016020809104026020016040519081016040528092919081815260200182805460018160011615610100020316600290048015612dcb5780601f10612da057610100808354040283529160200191612dcb565b820191906000526020600020905b815481529060010190602001808311612dae57829003601f168201915b505050505081565b6000600a6000848152602001908152602001600020805490508210612df757600080fd5b600a60008481526020019081526020016000208281548110612e1557fe5b9060005260206000200154905092915050565b600281565b8160006008600083815260200190815260200160002060009054906101000a900473ffffffffffffffffffffffffffffffffffffffff1673ffffffffffffffffffffffffffffffffffffffff161415612e8557600080fd5b8484848273ffffffffffffffffffffffffffffffffffffffff166008600083815260200190815260200160002060009054906101000a900473ffffffffffffffffffffffffffffffffffffffff1673ffffffffffffffffffffffffffffffffffffffff1614612ef357600080fd5b60008273ffffffffffffffffffffffffffffffffffffffff161415612f1757600080fd5b612f2288888861377c565b6000873b905060008111156130e55763150b7a0260e01b7bffffffffffffffffffffffffffffffffffffffffffffffffffffffff19168873ffffffffffffffffffffffffffffffffffffffff1663150b7a02338c8b8b6040518563ffffffff1660e01b8152600401808573ffffffffffffffffffffffffffffffffffffffff1673ffffffffffffffffffffffffffffffffffffffff1681526020018473ffffffffffffffffffffffffffffffffffffffff1673ffffffffffffffffffffffffffffffffffffffff16815260200183815260200180602001828103825283818151815260200191508051906020019080838360005b83811015613031578082015181840152602081019050613016565b50505050905090810190601f16801561305e5780820380516001836020036101000a031916815260200191505b5095505050505050602060405180830381600087803b15801561308057600080fd5b505af1158015613094573d6000803e3d6000fd5b505050506040513d60208110156130aa57600080fd5b81019080805190602001909291905050507bffffffffffffffffffffffffffffffffffffffffffffffffffffffff1916146130e457600080fd5b5b505050505050505050565b600d81815481106130fd57fe5b9060005260206000209060040201600091509050806000018054600181600116156101000203166002900480601f0160208091040260200160405190810160405280929190818152602001828054600181600116156101000203166002900480156131a95780601f1061317e576101008083540402835291602001916131a9565b820191906000526020600020905b81548152906001019060200180831161318c57829003601f168201915b505050505090806001018054600181600116156101000203166002900480601f0160208091040260200160405190810160405280929190818152602001828054600181600116156101000203166002900480156132475780601f1061321c57610100808354040283529160200191613247565b820191906000526020600020905b81548152906001019060200180831161322a57829003601f168201915b5050505050908060020160009054906101000a900460ff16908060020160019054906101000a900460ff16908060020160029054906101000a900460ff16908060030154905086565b60096020528060005260406000206000915090505481565b60086020528060005260406000206000915054906101000a900473ffffffffffffffffffffffffffffffffffffffff1681565b600081565b6060600060096000848152602001908152602001600020549050600e600d828154811061330957fe5b906000526020600020906004020160010160405160200180838054600181600116156101000203166002900480156133785780601f10613356576101008083540402835291820191613378565b820191906000526020600020905b815481529060010190602001808311613364575b5050828054600181600116156101000203166002900480156133d15780601f106133af5761010080835404028352918201916133d1565b820191906000526020600020905b8154815290600101906020018083116133bd575b505092505050604051602081830303815290604052915050919050565b600260009054906101000a900473ffffffffffffffffffffffffffffffffffffffff1673ffffffffffffffffffffffffffffffffffffffff163373ffffffffffffffffffffffffffffffffffffffff16148061349b57506000600c60003373ffffffffffffffffffffffffffffffffffffffff1673ffffffffffffffffffffffffffffffffffffffff16815260200190815260200160002060006003815260200190815260200160002054115b6134f0576040517f08c379a0000000000000000000000000000000000000000000000000000000008152600401808060200182810382526024815260200180613e786024913960400191505060405180910390fd5b6040518060c0016040528087815260200186815260200185151581526020018415158152602001831515815260200182815250600d888154811061353057fe5b9060005260206000209060040201600082015181600001908051906020019061355a929190613d89565b506020820151816001019080519060200190613577929190613d89565b5060408201518160020160006101000a81548160ff02191690831515021790555060608201518160020160016101000a81548160ff02191690831515021790555060808201518160020160026101000a81548160ff02191690831515021790555060a0820151816003015590505050505050505050565b6006602052816000526040600020818154811061360757fe5b90600052602060002001600091509150505481565b6000600a6000838152602001908152602001600020805490509050919050565b6060600e600d60008154811061364e57fe5b906000526020600020906004020160010160405160200180838054600181600116156101000203166002900480156136bd5780601f1061369b5761010080835404028352918201916136bd565b820191906000526020600020905b8154815290600101906020018083116136a9575b5050828054600181600116156101000203166002900480156137165780601f106136f4576101008083540402835291820191613716565b820191906000526020600020905b815481529060010190602001808311613702575b505092505050604051602081830303815290604052905090565b600260009054906101000a900473ffffffffffffffffffffffffffffffffffffffff1681565b601060009054906101000a900473ffffffffffffffffffffffffffffffffffffffff1681565b61378683826139cb565b61379082826137f0565b808273ffffffffffffffffffffffffffffffffffffffff168473ffffffffffffffffffffffffffffffffffffffff167fddf252ad1be2c89b69c2b068fc378daa952ba7f163c4a11628f55a4df523b3ef60405160405180910390a4505050565b60048190806001815401808255809150506001900390600052602060002001600090919091909150556001600480549050036005600083815260200190815260200160002081905550816008600083815260200190815260200160002060006101000a81548173ffffffffffffffffffffffffffffffffffffffff021916908373ffffffffffffffffffffffffffffffffffffffff160217905550600660008373ffffffffffffffffffffffffffffffffffffffff1673ffffffffffffffffffffffffffffffffffffffff1681526020019081526020016000208190806001815401808255809150506001900390600052602060002001600090919091909150556001600660008473ffffffffffffffffffffffffffffffffffffffff1673ffffffffffffffffffffffffffffffffffffffff16815260200190815260200160002080549050036007600083815260200190815260200160002081905550600060096000838152602001908152602001600020549050600c60008473ffffffffffffffffffffffffffffffffffffffff1673ffffffffffffffffffffffffffffffffffffffff168152602001908152602001600020600082815260200190815260200160002060008154809291906001019190505550505050565b60006005600083815260200190815260200160002054905060006004805490509050600460018203815481106139fd57fe5b906000526020600020015460048381548110613a1557fe5b9060005260206000200181905550816005600060046001850381548110613a3857fe5b90600052602060002001548152602001908152602001600020819055506004805480613a6057fe5b600190038181906000526020600020016000905590556000600760008581526020019081526020016000205490506000600660008773ffffffffffffffffffffffffffffffffffffffff1673ffffffffffffffffffffffffffffffffffffffff168152602001908152602001600020805490509050600660008773ffffffffffffffffffffffffffffffffffffffff1673ffffffffffffffffffffffffffffffffffffffff1681526020019081526020016000206001820381548110613b2257fe5b9060005260206000200154600660008873ffffffffffffffffffffffffffffffffffffffff1673ffffffffffffffffffffffffffffffffffffffff1681526020019081526020016000208381548110613b7757fe5b90600052602060002001819055508160076000600660008a73ffffffffffffffffffffffffffffffffffffffff1673ffffffffffffffffffffffffffffffffffffffff1681526020019081526020016000206001850381548110613bd757fe5b9060005260206000200154815260200190815260200160002081905550600660008773ffffffffffffffffffffffffffffffffffffffff1673ffffffffffffffffffffffffffffffffffffffff168152602001908152602001600020805480613c3c57fe5b60019003818190600052602060002001600090559055600060096000878152602001908152602001600020549050600c60008873ffffffffffffffffffffffffffffffffffffffff1673ffffffffffffffffffffffffffffffffffffffff1681526020019081526020016000206000828152602001908152602001600020600081548092919060010191905055506008600087815260200190815260200160002060006101000a81549073ffffffffffffffffffffffffffffffffffffffff021916905550505050505050565b828054600181600116156101000203166002900490600052602060002090601f016020900481019282601f10613d4a57805160ff1916838001178555613d78565b82800160010185558215613d78579182015b82811115613d77578251825591602001919060010190613d5c565b5b509050613d859190613e09565b5090565b828054600181600116156101000203166002900490600052602060002090601f016020900481019282601f10613dca57805160ff1916838001178555613df8565b82800160010185558215613df8579182015b82811115613df7578251825591602001919060010190613ddc565b5b509050613e059190613e09565b5090565b613e2b91905b80821115613e27576000816000905550600101613e0f565b5090565b9056fe4d75737420686176652061646d696e206f722062616467652063726561746f7220726f6c6520546f6b656e2073686f756c6420626520696e20636f6e74726f6c206f66206f776e65724d75737420686176652061646d696e20726f6c6520746f2063726561746520746f6b656e4d75737420686176652061646d696e206f72206d616e6167657220726f6c6520666f7220746865206261646765516d57354437683665764d63716f4a5672654b474e6a357551416664346577646f4e63537441584b4e3442615575a2646970667358221220c180c49040d9530e990e6808c7d4478393cc41297829f5aef087436b35ed151764736f6c63430006090033516d61636d77564e4c65514c34446a68506f6a74793563684c37473767315a4131395367736e724d3844523843734d75737420686176652061646d696e206f722062616467652063726561746f7220726f6c6520516d5a4755655434795972627452506254676a31724677564e61554a414d6d583238504277434a3551697136346e4d75737420686176652061646d696e206f72206d616e6167657220726f6c6520666f7220746865206261646765516d57354437683665764d63716f4a5672654b474e6a357551416664346577646f4e63537441584b4e3442615575",
  "source": "// SPDX-License-Identifier: MIT\r\n// based on https://github.com/ConsenSys/artifaqt/blob/master/contract/contracts/eip721\r\n// Use for educational purposes only // without approval functions\r\n// Extended with templates\r\npragma solidity ^0.6.9;\r\n\r\ncontract KOIOSNFT {  \r\n    event Transfer(address indexed _from, address indexed _to, uint256 indexed _tokenId);\r\n\r\n    string public  name;\r\n    string public  symbol;\r\n    address public  admin;\r\n    uint256 public  counter = 10;\r\n    \r\n    uint256[]                      public allTokens; \r\n    mapping(uint256 => uint256)    public allTokensIndex;      \r\n    mapping(address => uint256[])  public ownedTokens;  \r\n    mapping(uint256 => uint256)    public ownedTokensIndex;     \r\n    mapping(uint256 => address)    public ownerOfToken;\r\n    mapping(uint256 => uint256)    public templateOf; // bundle NTF's\r\n    mapping(uint256 => uint256[])  public typedTokens; // get list per bundle\r\n    mapping(uint256 => uint256)    public typedTokensIndex;     \r\n    \r\n    \r\n    mapping(address => mapping( uint256 => uint256))  public ownedTypedTokens;  \r\n    \r\n    \r\n    \r\n    struct Template {\r\n        string  name;\r\n        string  cid;\r\n        bool SelfMint;\r\n        bool SelfBurn; \r\n        bool AllowTransfer;\r\n        uint256 Manager;\r\n    }\r\n\r\n    Template[] public templates;\r\n    // Base URI\r\n    string private baseURI;\r\n    \r\n    address public receivedOperator;    // public to easily check\r\n    address public receivedFrom;        // public to easily check\r\n    uint256 public receivedTokenId;     // public to easily check\r\n    bytes   public receivedData;        // public to easily check\r\n    bytes4 internal constant ERC721_BASE_INTERFACE_SIGNATURE = 0x80ac58cd;\r\n    bytes4 internal constant ERC721_METADATA_INTERFACE_SIGNATURE = 0x5b5e139f;\r\n    bytes4 internal constant ERC721_ENUMERABLE_INTERFACE_SIGNATURE = 0x780e9d63;\r\n    bytes4 internal constant ONERC721RECEIVED_FUNCTION_SIGNATURE = 0x150b7a02;\r\n\r\n    uint256 public constant CONTRACTINFOMANAGER = 0;\r\n    uint256 public constant CONTRACTINFO = 1;\r\n    uint256 public constant ADMINTOKENMANAGER   = 2;\r\n    uint256 public constant ADMINTOKEN   = 3;\r\n    uint256 public constant BADGECREATORTOKENMANAGER = 4;\r\n    uint256 public constant BADGECREATORTOKEN = 5;\r\n    \r\n    \r\n\r\n    modifier tokenExists(uint256 _tokenId) {\r\n        require(uint256(ownerOfToken[_tokenId]) != 0);\r\n        _;\r\n    }\r\n    \r\n    modifier isAdmin {\r\n        require(msg.sender == admin || (ownedTypedTokens[msg.sender][ADMINTOKEN] > 0),\"Must have admin role to create token\");\r\n        _;\r\n    }\r\n    \r\n    modifier isBadgeCreator {\r\n        require(msg.sender == admin || (ownedTypedTokens[msg.sender][ADMINTOKEN] > 0) || (ownedTypedTokens[msg.sender][BADGECREATORTOKEN] > 0),\"Must have admin or badge creator role \");\r\n        _;\r\n    }\r\n    \r\n    modifier isManager(uint256 _templateId) {\r\n        require(msg.sender == admin || \r\n            (ownedTypedTokens[msg.sender][ADMINTOKEN] > 0) || (ownedTypedTokens[msg.sender][templates[_templateId].Manager] > 0),\"Must have admin or manager role for the badge\");\r\n        _;\r\n        \r\n    }        \r\n    \r\n    \r\n    \r\n    // string memory _name, string memory _symbol, string memory _baseURI, string memory _cidcontract,string memory _cidadmin\r\n    constructor () public {\r\n        admin = msg.sender;\r\n        name = \"koios\";\r\n        symbol = \"koios\";\r\n        baseURI = \"ipfs://ipfs/\";\r\n        CreateNewBadge(name, \"QmacmwVNLeQL4DjhPojty5chL7G7g1ZA19SgsnrM8DR8Cs\", true,true,true);\r\n        CreateNewBadge(\"admin\", \"QmZGUeT4yYrbtRPbTgj1rFwVNaUJAMmX28PBwCJ5Qiq64n\", true,true,true);\r\n        CreateNewBadge(\"badgecreator\", \"QmW5D7h6evMcqoJVreKGNj5uQAfd4ewdoNcStAXKN4BaUu\", true,true,true);\r\n\r\n    }\r\n    function onERC721Received(address _operator, address _from, uint256 _tokenId, bytes memory _data) public returns(bytes4) {\r\n        receivedOperator = _operator;\r\n        receivedFrom     = _from;\r\n        receivedTokenId  = _tokenId;\r\n        receivedData     = _data;\r\n        return ONERC721RECEIVED_FUNCTION_SIGNATURE;    \r\n    } \r\n    modifier allowedToTransfer(address _from, address _to, uint256 _tokenId) {\r\n        require(ownerOfToken[_tokenId] == _from);\r\n        require(uint256(_to) != 0); //not allowed to burn in transfer method\r\n        _;\r\n    }\r\n   \r\n    function settleTransfer(address _from, address _to, uint256 _tokenId) internal {\r\n        removeToken(_from, _tokenId);\r\n        addToken(_to, _tokenId);\r\n        emit Transfer(_from, _to, _tokenId);\r\n    }\r\n    function addToken(address _to, uint256 _tokenId) internal {\r\n        allTokens.push(_tokenId);\r\n        allTokensIndex[_tokenId] = allTokens.length-1;\r\n        ownerOfToken[_tokenId] = _to;        \r\n        ownedTokens[_to].push(_tokenId);\r\n        ownedTokensIndex[_tokenId] = ownedTokens[_to].length-1;\r\n        \r\n        uint256 templateId=templateOf[_tokenId];\r\n        ownedTypedTokens[_to][templateId]++;\r\n    }\r\n    function removeToken(address _from, uint256 _tokenId) internal {\r\n        uint256 allIndex = allTokensIndex[_tokenId];\r\n        uint256 allTokensLength = allTokens.length;\r\n        allTokens[allIndex] = allTokens[allTokensLength - 1];\r\n        allTokensIndex[allTokens[allTokensLength-1]] = allIndex;\r\n        allTokens.pop();\r\n        \r\n        uint256 ownerIndex = ownedTokensIndex[_tokenId];\r\n        uint256 ownerLength = ownedTokens[_from].length;\r\n        ownedTokens[_from][ownerIndex] = ownedTokens[_from][ownerLength-1];\r\n        ownedTokensIndex[ownedTokens[_from][ownerLength-1]] = ownerIndex;\r\n        ownedTokens[_from].pop();\r\n        uint256 templateId=templateOf[_tokenId];\r\n        ownedTypedTokens[_from][templateId]++;\r\n         \r\n        delete ownerOfToken[_tokenId];\r\n    }\r\n    \r\n    // public functions -------------------------------------------------------------------------------\r\n    \r\n    function transferFrom(address _from, address _to, uint256 _tokenId) public payable\r\n    tokenExists(_tokenId)\r\n    allowedToTransfer(_from, _to, _tokenId) {       \r\n        settleTransfer(_from, _to, _tokenId);\r\n    }\r\n    function safeTransferFrom(address _from, address _to, uint256 _tokenId, bytes memory data) public payable\r\n    tokenExists(_tokenId)\r\n    allowedToTransfer(_from, _to, _tokenId) {\r\n        settleTransfer(_from, _to, _tokenId);\r\n        uint256 size;\r\n        assembly { size := extcodesize(_to) }  // solhint-disable-line no-inline-assembly\r\n        if (size > 0) {\r\n            require(KOIOSNFT(_to).onERC721Received(msg.sender, _from, _tokenId, data) == ONERC721RECEIVED_FUNCTION_SIGNATURE);\r\n        }\r\n    }\r\n    function safeTransferFrom(address _from, address _to, uint256 _tokenId) public payable\r\n    tokenExists(_tokenId)\r\n    allowedToTransfer(_from, _to, _tokenId) {\r\n        settleTransfer(_from, _to, _tokenId);\r\n        uint256 size;\r\n        assembly { size := extcodesize(_to) }  // solhint-disable-line no-inline-assembly\r\n        if (size > 0) {\r\n            require(KOIOSNFT(_to).onERC721Received(msg.sender, _from, _tokenId, \"\") == ONERC721RECEIVED_FUNCTION_SIGNATURE);\r\n        }\r\n    }\r\n    function totalSupply() public view returns (uint256) {\r\n        return allTokens.length;\r\n    }\r\n    function ownerOf(uint256 _tokenId) external view\r\n    tokenExists(_tokenId) returns (address) {\r\n        return ownerOfToken[_tokenId];\r\n    }\r\n    function tokenByIndex(uint256 _index) external view returns (uint256) {\r\n        require(_index < allTokens.length);\r\n        return allTokens[_index];\r\n    }\r\n    function tokenOfOwnerByIndex(address _owner, uint256 _index) external view\r\n    tokenExists(_tokenId) returns (uint256 _tokenId) {\r\n        require(_index < ownedTokens[_owner].length);\r\n        return ownedTokens[_owner][_index];\r\n    }\r\n    function balanceOf(address _owner) external view returns (uint256) {\r\n        require(uint256(_owner) != 0);\r\n        return ownedTokens[_owner].length;\r\n    }\r\n\r\n    function tokensOfType(uint256 _type) external view returns (uint256) {\r\n        return typedTokens[_type].length;\r\n    }\r\n    function tokenOfTypeByIndex(uint256 _type, uint256 _index) external view returns (uint256 _tokenId) {\r\n        require(_index < typedTokens[_type].length);\r\n        return typedTokens[_type][_index];\r\n    }\r\n    \r\n    function tokenURI(uint256 _tokenId) public view returns (string memory) {\r\n        uint256 templateId=templateOf[_tokenId];\r\n        return string(abi.encodePacked(baseURI, templates[templateId].cid));\r\n    }\r\n    \r\n    \r\n    \r\n    function supportsInterface(bytes4 interfaceID) external pure returns (bool) {\r\n        if (interfaceID == ERC721_BASE_INTERFACE_SIGNATURE ||\r\n        interfaceID == ERC721_METADATA_INTERFACE_SIGNATURE ||\r\n        interfaceID == ERC721_ENUMERABLE_INTERFACE_SIGNATURE) {\r\n            return true;\r\n        } else { return false; }\r\n    }\r\n    \r\n    \r\n    function createToken(address _minter,uint256 _templateId) public isManager( _templateId) {\r\n        \r\n        templateOf[counter]=_templateId;\r\n        typedTokens[_templateId].push(counter);\r\n        typedTokensIndex[_templateId] = typedTokens[_templateId].length-1;\r\n        \r\n        addToken(_minter, counter);\r\n        emit Transfer(address(0), _minter, counter);\r\n        counter += 1; // every new token gets a new ID\r\n    }\r\n    function burnToken(uint256 _tokenId) public {\r\n        require(ownerOfToken[_tokenId] == msg.sender,\"Token should be in control of owner\");\r\n        uint256 templateId=templateOf[_tokenId];\r\n         \r\n        uint256 typedIndex = typedTokensIndex[_tokenId];\r\n        uint256 typedLength = typedTokens[templateId].length;\r\n        typedTokens[templateId][typedIndex] = typedTokens[templateId][typedLength-1];\r\n        typedTokensIndex[typedTokens[templateId][typedLength-1]] = typedIndex;\r\n        typedTokens[templateId].pop();\r\n        \r\n        removeToken(msg.sender, _tokenId);\r\n        emit Transfer(msg.sender, address(0), _tokenId);\r\n    }\r\n\r\n    function CreateNewBadge(string memory _name, string memory _cid, bool _SelfMint, bool _SelfBurn, bool _AllowTransfer) public isBadgeCreator returns (uint256)  {\r\n       \r\n       templates.push(Template(string(abi.encodePacked(_name, \"-manager\")), \"QmW5D7h6evMcqoJVreKGNj5uQAfd4ewdoNcStAXKN4BaUu\" ,  false,false,false,0));\r\n       templates.push(Template(_name, _cid,  _SelfMint,  _SelfBurn,  _AllowTransfer,templates.length-1)); // manager is the token perviousely created\r\n       \r\n       createToken(admin,templates.length-2); // give everything also to admin\r\n       createToken(admin,templates.length-1); // give everything also to admin\r\n       \r\n       return templates.length-1;\r\n    }\r\n    \r\n    \r\n    function assignManager(address _to, uint256 _templateid) public isBadgeCreator {\r\n         createToken(_to,templates[_templateid].Manager);\r\n    }\r\n    \r\n    function UpdateBadge(uint256 _templateid,string memory _name, string memory _cid, bool _SelfMint, bool _SelfBurn, bool _AllowTransfer, uint256 _Manager) public isAdmin {\r\n       \r\n       templates[_templateid]=Template(_name, _cid,  _SelfMint,  _SelfBurn,  _AllowTransfer, _Manager);\r\n    }\r\n    \r\n    \r\n    function nrTemplates() external view returns (uint256) {\r\n        return templates.length;\r\n    }\r\n    function setBaseURI(string memory _baseURI) public isAdmin {\r\n         baseURI = _baseURI;\r\n    }\r\n    \r\n    function contractURI() public view returns (string memory) { // for opensea, use the template#0\r\n        return string(abi.encodePacked(baseURI, templates[0].cid));\r\n    }\r\n\r\n}\r\n",
  "sourcePath": "W:/gpersoon/koios/lib/smartcontracts/contracts/KOIOSNFT.sol",
  "compiler": {
    "name": "solc",
    "version": "0.6.9+commit.3e3065ac.Emscripten.clang"
  },
  "schemaVersion": "3.0.21",
  "updatedAt": "2020-08-02T12:25:29.084Z",
  "networkType": "ethereum",
  "devdoc": {
    "methods": {}
  },
  "userdoc": {
    "methods": {}
  }
}