{
  "contractName": "KOIOSNFT",
  "abi": [
    {
      "inputs": [],
      "stateMutability": "nonpayable",
      "type": "constructor"
    },
    {
      "anonymous": false,
      "inputs": [
        {
          "indexed": true,
          "internalType": "address",
          "name": "_from",
          "type": "address"
        },
        {
          "indexed": true,
          "internalType": "address",
          "name": "_to",
          "type": "address"
        },
        {
          "indexed": true,
          "internalType": "uint256",
          "name": "_tokenId",
          "type": "uint256"
        }
      ],
      "name": "Transfer",
      "type": "event"
    },
    {
      "inputs": [],
      "name": "ADMINTOKEN",
      "outputs": [
        {
          "internalType": "uint256",
          "name": "",
          "type": "uint256"
        }
      ],
      "stateMutability": "view",
      "type": "function",
      "constant": true
    },
    {
      "inputs": [],
      "name": "ADMINTOKENMANAGER",
      "outputs": [
        {
          "internalType": "uint256",
          "name": "",
          "type": "uint256"
        }
      ],
      "stateMutability": "view",
      "type": "function",
      "constant": true
    },
    {
      "inputs": [],
      "name": "BADGECREATORTOKEN",
      "outputs": [
        {
          "internalType": "uint256",
          "name": "",
          "type": "uint256"
        }
      ],
      "stateMutability": "view",
      "type": "function",
      "constant": true
    },
    {
      "inputs": [],
      "name": "BADGECREATORTOKENMANAGER",
      "outputs": [
        {
          "internalType": "uint256",
          "name": "",
          "type": "uint256"
        }
      ],
      "stateMutability": "view",
      "type": "function",
      "constant": true
    },
    {
      "inputs": [],
      "name": "CONTRACTINFO",
      "outputs": [
        {
          "internalType": "uint256",
          "name": "",
          "type": "uint256"
        }
      ],
      "stateMutability": "view",
      "type": "function",
      "constant": true
    },
    {
      "inputs": [],
      "name": "CONTRACTINFOMANAGER",
      "outputs": [
        {
          "internalType": "uint256",
          "name": "",
          "type": "uint256"
        }
      ],
      "stateMutability": "view",
      "type": "function",
      "constant": true
    },
    {
      "inputs": [],
      "name": "admin",
      "outputs": [
        {
          "internalType": "address",
          "name": "",
          "type": "address"
        }
      ],
      "stateMutability": "view",
      "type": "function",
      "constant": true
    },
    {
      "inputs": [
        {
          "internalType": "uint256",
          "name": "",
          "type": "uint256"
        }
      ],
      "name": "allTokens",
      "outputs": [
        {
          "internalType": "uint256",
          "name": "",
          "type": "uint256"
        }
      ],
      "stateMutability": "view",
      "type": "function",
      "constant": true
    },
    {
      "inputs": [
        {
          "internalType": "uint256",
          "name": "",
          "type": "uint256"
        }
      ],
      "name": "allTokensIndex",
      "outputs": [
        {
          "internalType": "uint256",
          "name": "",
          "type": "uint256"
        }
      ],
      "stateMutability": "view",
      "type": "function",
      "constant": true
    },
    {
      "inputs": [],
      "name": "counter",
      "outputs": [
        {
          "internalType": "uint256",
          "name": "",
          "type": "uint256"
        }
      ],
      "stateMutability": "view",
      "type": "function",
      "constant": true
    },
    {
      "inputs": [],
      "name": "name",
      "outputs": [
        {
          "internalType": "string",
          "name": "",
          "type": "string"
        }
      ],
      "stateMutability": "view",
      "type": "function",
      "constant": true
    },
    {
      "inputs": [
        {
          "internalType": "address",
          "name": "",
          "type": "address"
        },
        {
          "internalType": "uint256",
          "name": "",
          "type": "uint256"
        }
      ],
      "name": "ownedTokens",
      "outputs": [
        {
          "internalType": "uint256",
          "name": "",
          "type": "uint256"
        }
      ],
      "stateMutability": "view",
      "type": "function",
      "constant": true
    },
    {
      "inputs": [
        {
          "internalType": "uint256",
          "name": "",
          "type": "uint256"
        }
      ],
      "name": "ownedTokensIndex",
      "outputs": [
        {
          "internalType": "uint256",
          "name": "",
          "type": "uint256"
        }
      ],
      "stateMutability": "view",
      "type": "function",
      "constant": true
    },
    {
      "inputs": [
        {
          "internalType": "address",
          "name": "",
          "type": "address"
        },
        {
          "internalType": "uint256",
          "name": "",
          "type": "uint256"
        }
      ],
      "name": "ownedTypedTokens",
      "outputs": [
        {
          "internalType": "uint256",
          "name": "",
          "type": "uint256"
        }
      ],
      "stateMutability": "view",
      "type": "function",
      "constant": true
    },
    {
      "inputs": [
        {
          "internalType": "uint256",
          "name": "",
          "type": "uint256"
        }
      ],
      "name": "ownerOfToken",
      "outputs": [
        {
          "internalType": "address",
          "name": "",
          "type": "address"
        }
      ],
      "stateMutability": "view",
      "type": "function",
      "constant": true
    },
    {
      "inputs": [],
      "name": "receivedData",
      "outputs": [
        {
          "internalType": "bytes",
          "name": "",
          "type": "bytes"
        }
      ],
      "stateMutability": "view",
      "type": "function",
      "constant": true
    },
    {
      "inputs": [],
      "name": "receivedFrom",
      "outputs": [
        {
          "internalType": "address",
          "name": "",
          "type": "address"
        }
      ],
      "stateMutability": "view",
      "type": "function",
      "constant": true
    },
    {
      "inputs": [],
      "name": "receivedOperator",
      "outputs": [
        {
          "internalType": "address",
          "name": "",
          "type": "address"
        }
      ],
      "stateMutability": "view",
      "type": "function",
      "constant": true
    },
    {
      "inputs": [],
      "name": "receivedTokenId",
      "outputs": [
        {
          "internalType": "uint256",
          "name": "",
          "type": "uint256"
        }
      ],
      "stateMutability": "view",
      "type": "function",
      "constant": true
    },
    {
      "inputs": [],
      "name": "symbol",
      "outputs": [
        {
          "internalType": "string",
          "name": "",
          "type": "string"
        }
      ],
      "stateMutability": "view",
      "type": "function",
      "constant": true
    },
    {
      "inputs": [
        {
          "internalType": "uint256",
          "name": "",
          "type": "uint256"
        }
      ],
      "name": "templateOf",
      "outputs": [
        {
          "internalType": "uint256",
          "name": "",
          "type": "uint256"
        }
      ],
      "stateMutability": "view",
      "type": "function",
      "constant": true
    },
    {
      "inputs": [
        {
          "internalType": "uint256",
          "name": "",
          "type": "uint256"
        }
      ],
      "name": "templates",
      "outputs": [
        {
          "internalType": "string",
          "name": "name",
          "type": "string"
        },
        {
          "internalType": "string",
          "name": "cid",
          "type": "string"
        },
        {
          "internalType": "bool",
          "name": "SelfMint",
          "type": "bool"
        },
        {
          "internalType": "bool",
          "name": "SelfBurn",
          "type": "bool"
        },
        {
          "internalType": "bool",
          "name": "AllowTransfer",
          "type": "bool"
        },
        {
          "internalType": "uint256",
          "name": "Manager",
          "type": "uint256"
        }
      ],
      "stateMutability": "view",
      "type": "function",
      "constant": true
    },
    {
      "inputs": [
        {
          "internalType": "uint256",
          "name": "",
          "type": "uint256"
        },
        {
          "internalType": "uint256",
          "name": "",
          "type": "uint256"
        }
      ],
      "name": "typedTokens",
      "outputs": [
        {
          "internalType": "uint256",
          "name": "",
          "type": "uint256"
        }
      ],
      "stateMutability": "view",
      "type": "function",
      "constant": true
    },
    {
      "inputs": [
        {
          "internalType": "uint256",
          "name": "",
          "type": "uint256"
        }
      ],
      "name": "typedTokensIndex",
      "outputs": [
        {
          "internalType": "uint256",
          "name": "",
          "type": "uint256"
        }
      ],
      "stateMutability": "view",
      "type": "function",
      "constant": true
    },
    {
      "inputs": [
        {
          "internalType": "address",
          "name": "_operator",
          "type": "address"
        },
        {
          "internalType": "address",
          "name": "_from",
          "type": "address"
        },
        {
          "internalType": "uint256",
          "name": "_tokenId",
          "type": "uint256"
        },
        {
          "internalType": "bytes",
          "name": "_data",
          "type": "bytes"
        }
      ],
      "name": "onERC721Received",
      "outputs": [
        {
          "internalType": "bytes4",
          "name": "",
          "type": "bytes4"
        }
      ],
      "stateMutability": "nonpayable",
      "type": "function"
    },
    {
      "inputs": [
        {
          "internalType": "address",
          "name": "_from",
          "type": "address"
        },
        {
          "internalType": "address",
          "name": "_to",
          "type": "address"
        },
        {
          "internalType": "uint256",
          "name": "_tokenId",
          "type": "uint256"
        }
      ],
      "name": "transferFrom",
      "outputs": [],
      "stateMutability": "payable",
      "type": "function",
      "payable": true
    },
    {
      "inputs": [
        {
          "internalType": "address",
          "name": "_from",
          "type": "address"
        },
        {
          "internalType": "address",
          "name": "_to",
          "type": "address"
        },
        {
          "internalType": "uint256",
          "name": "_tokenId",
          "type": "uint256"
        }
      ],
      "name": "safeTransferFrom",
      "outputs": [],
      "stateMutability": "payable",
      "type": "function",
      "payable": true
    },
    {
      "inputs": [
        {
          "internalType": "address",
          "name": "_from",
          "type": "address"
        },
        {
          "internalType": "address",
          "name": "_to",
          "type": "address"
        },
        {
          "internalType": "uint256",
          "name": "_tokenId",
          "type": "uint256"
        },
        {
          "internalType": "bytes",
          "name": "data",
          "type": "bytes"
        }
      ],
      "name": "safeTransferFrom",
      "outputs": [],
      "stateMutability": "payable",
      "type": "function",
      "payable": true
    },
    {
      "inputs": [],
      "name": "totalSupply",
      "outputs": [
        {
          "internalType": "uint256",
          "name": "",
          "type": "uint256"
        }
      ],
      "stateMutability": "view",
      "type": "function",
      "constant": true
    },
    {
      "inputs": [
        {
          "internalType": "uint256",
          "name": "_tokenId",
          "type": "uint256"
        }
      ],
      "name": "ownerOf",
      "outputs": [
        {
          "internalType": "address",
          "name": "",
          "type": "address"
        }
      ],
      "stateMutability": "view",
      "type": "function",
      "constant": true
    },
    {
      "inputs": [
        {
          "internalType": "uint256",
          "name": "_index",
          "type": "uint256"
        }
      ],
      "name": "tokenByIndex",
      "outputs": [
        {
          "internalType": "uint256",
          "name": "",
          "type": "uint256"
        }
      ],
      "stateMutability": "view",
      "type": "function",
      "constant": true
    },
    {
      "inputs": [
        {
          "internalType": "address",
          "name": "_owner",
          "type": "address"
        },
        {
          "internalType": "uint256",
          "name": "_index",
          "type": "uint256"
        }
      ],
      "name": "tokenOfOwnerByIndex",
      "outputs": [
        {
          "internalType": "uint256",
          "name": "_tokenId",
          "type": "uint256"
        }
      ],
      "stateMutability": "view",
      "type": "function",
      "constant": true
    },
    {
      "inputs": [
        {
          "internalType": "address",
          "name": "_owner",
          "type": "address"
        }
      ],
      "name": "balanceOf",
      "outputs": [
        {
          "internalType": "uint256",
          "name": "",
          "type": "uint256"
        }
      ],
      "stateMutability": "view",
      "type": "function",
      "constant": true
    },
    {
      "inputs": [
        {
          "internalType": "uint256",
          "name": "_type",
          "type": "uint256"
        }
      ],
      "name": "tokensOfType",
      "outputs": [
        {
          "internalType": "uint256",
          "name": "",
          "type": "uint256"
        }
      ],
      "stateMutability": "view",
      "type": "function",
      "constant": true
    },
    {
      "inputs": [
        {
          "internalType": "uint256",
          "name": "_type",
          "type": "uint256"
        },
        {
          "internalType": "uint256",
          "name": "_index",
          "type": "uint256"
        }
      ],
      "name": "tokenOfTypeByIndex",
      "outputs": [
        {
          "internalType": "uint256",
          "name": "_tokenId",
          "type": "uint256"
        }
      ],
      "stateMutability": "view",
      "type": "function",
      "constant": true
    },
    {
      "inputs": [
        {
          "internalType": "uint256",
          "name": "_tokenId",
          "type": "uint256"
        }
      ],
      "name": "tokenURI",
      "outputs": [
        {
          "internalType": "string",
          "name": "",
          "type": "string"
        }
      ],
      "stateMutability": "view",
      "type": "function",
      "constant": true
    },
    {
      "inputs": [
        {
          "internalType": "bytes4",
          "name": "interfaceID",
          "type": "bytes4"
        }
      ],
      "name": "supportsInterface",
      "outputs": [
        {
          "internalType": "bool",
          "name": "",
          "type": "bool"
        }
      ],
      "stateMutability": "pure",
      "type": "function",
      "constant": true
    },
    {
      "inputs": [
        {
          "internalType": "address",
          "name": "_minter",
          "type": "address"
        },
        {
          "internalType": "uint256",
          "name": "_templateId",
          "type": "uint256"
        }
      ],
      "name": "createToken",
      "outputs": [],
      "stateMutability": "nonpayable",
      "type": "function"
    },
    {
      "inputs": [
        {
          "internalType": "uint256",
          "name": "_tokenId",
          "type": "uint256"
        }
      ],
      "name": "burnToken",
      "outputs": [],
      "stateMutability": "nonpayable",
      "type": "function"
    },
    {
      "inputs": [
        {
          "internalType": "string",
          "name": "_name",
          "type": "string"
        },
        {
          "internalType": "string",
          "name": "_cid",
          "type": "string"
        },
        {
          "internalType": "bool",
          "name": "_SelfMint",
          "type": "bool"
        },
        {
          "internalType": "bool",
          "name": "_SelfBurn",
          "type": "bool"
        },
        {
          "internalType": "bool",
          "name": "_AllowTransfer",
          "type": "bool"
        }
      ],
      "name": "CreateNewBadge",
      "outputs": [
        {
          "internalType": "uint256",
          "name": "",
          "type": "uint256"
        }
      ],
      "stateMutability": "nonpayable",
      "type": "function"
    },
    {
      "inputs": [
        {
          "internalType": "address",
          "name": "_to",
          "type": "address"
        },
        {
          "internalType": "uint256",
          "name": "_templateid",
          "type": "uint256"
        }
      ],
      "name": "assignManager",
      "outputs": [],
      "stateMutability": "nonpayable",
      "type": "function"
    },
    {
      "inputs": [
        {
          "internalType": "uint256",
          "name": "_templateid",
          "type": "uint256"
        },
        {
          "internalType": "string",
          "name": "_name",
          "type": "string"
        },
        {
          "internalType": "string",
          "name": "_cid",
          "type": "string"
        },
        {
          "internalType": "bool",
          "name": "_SelfMint",
          "type": "bool"
        },
        {
          "internalType": "bool",
          "name": "_SelfBurn",
          "type": "bool"
        },
        {
          "internalType": "bool",
          "name": "_AllowTransfer",
          "type": "bool"
        },
        {
          "internalType": "uint256",
          "name": "_Manager",
          "type": "uint256"
        }
      ],
      "name": "UpdateBadge",
      "outputs": [],
      "stateMutability": "nonpayable",
      "type": "function"
    },
    {
      "inputs": [],
      "name": "nrTemplates",
      "outputs": [
        {
          "internalType": "uint256",
          "name": "",
          "type": "uint256"
        }
      ],
      "stateMutability": "view",
      "type": "function",
      "constant": true
    },
    {
      "inputs": [
        {
          "internalType": "string",
          "name": "_baseURI",
          "type": "string"
        }
      ],
      "name": "setBaseURI",
      "outputs": [],
      "stateMutability": "nonpayable",
      "type": "function"
    },
    {
      "inputs": [],
      "name": "contractURI",
      "outputs": [
        {
          "internalType": "string",
          "name": "",
          "type": "string"
        }
      ],
      "stateMutability": "view",
      "type": "function",
      "constant": true
    },
    {
      "inputs": [],
      "name": "checkIsAdmin",
      "outputs": [
        {
          "internalType": "bool",
          "name": "",
          "type": "bool"
        }
      ],
      "stateMutability": "view",
      "type": "function",
      "constant": true
    },
    {
      "inputs": [],
      "name": "checkIsBadgeCreator",
      "outputs": [
        {
          "internalType": "bool",
          "name": "",
          "type": "bool"
        }
      ],
      "stateMutability": "view",
      "type": "function",
      "constant": true
    },
    {
      "inputs": [
        {
          "internalType": "uint256",
          "name": "_templateId",
          "type": "uint256"
        }
      ],
      "name": "checkIsManager",
      "outputs": [
        {
          "internalType": "bool",
          "name": "",
          "type": "bool"
        }
      ],
      "stateMutability": "view",
      "type": "function",
      "constant": true
    }
  ],
  "bytecode": "0x6080604052600a6003553480156200001657600080fd5b5033600260006101000a81548173ffffffffffffffffffffffffffffffffffffffff021916908373ffffffffffffffffffffffffffffffffffffffff1602179055506040518060400160405280600581526020017f6b6f696f7300000000000000000000000000000000000000000000000000000081525060009080519060200190620000a592919062000c64565b506040518060400160405280600581526020017f6b6f696f7300000000000000000000000000000000000000000000000000000081525060019080519060200190620000f392919062000c64565b506040518060400160405280600c81526020017f697066733a2f2f697066732f0000000000000000000000000000000000000000815250600e90805190602001906200014192919062000c64565b506200021060008054600181600116156101000203166002900480601f016020809104026020016040519081016040528092919081815260200182805460018160011615610100020316600290048015620001e05780601f10620001b457610100808354040283529160200191620001e0565b820191906000526020600020905b815481529060010190602001808311620001c257829003601f168201915b50505050506040518060600160405280602e815260200162005025602e91396001806001620002e360201b60201c565b50620002766040518060400160405280600581526020017f61646d696e0000000000000000000000000000000000000000000000000000008152506040518060600160405280602e815260200162005079602e91396001806001620002e360201b60201c565b50620002dc6040518060400160405280600c81526020017f626164676563726561746f7200000000000000000000000000000000000000008152506040518060600160405280602e8152602001620050e2602e91396001806001620002e360201b60201c565b5062000d13565b6000600260009054906101000a900473ffffffffffffffffffffffffffffffffffffffff1673ffffffffffffffffffffffffffffffffffffffff163373ffffffffffffffffffffffffffffffffffffffff1614806200039357506000600c60003373ffffffffffffffffffffffffffffffffffffffff1673ffffffffffffffffffffffffffffffffffffffff16815260200190815260200160002060006003815260200190815260200160002054115b80620003f057506000600c60003373ffffffffffffffffffffffffffffffffffffffff1673ffffffffffffffffffffffffffffffffffffffff16815260200190815260200160002060006005815260200190815260200160002054115b62000447576040517f08c379a0000000000000000000000000000000000000000000000000000000008152600401808060200182810382526026815260200180620050536026913960400191505060405180910390fd5b600d6040518060c00160405280886040516020018082805190602001908083835b602083106200048d578051825260208201915060208101905060208303925062000468565b6001836020036101000a038019825116818451168082178552505050505050905001807f2d6d616e6167657200000000000000000000000000000000000000000000000081525060080191505060405160208183030381529060405281526020016040518060600160405280602e8152602001620050e2602e913981526020016000151581526020016000151581526020016000151581526020016000815250908060018154018082558091505060019003906000526020600020906004020160009091909190915060008201518160000190805190602001906200057492919062000c64565b5060208201518160010190805190602001906200059392919062000c64565b5060408201518160020160006101000a81548160ff02191690831515021790555060608201518160020160016101000a81548160ff02191690831515021790555060808201518160020160026101000a81548160ff02191690831515021790555060a082015181600301555050600d6040518060c001604052808881526020018781526020018615158152602001851515815260200184151581526020016001600d8054905003815250908060018154018082558091505060019003906000526020600020906004020160009091909190915060008201518160000190805190602001906200068492919062000c64565b506020820151816001019080519060200190620006a392919062000c64565b5060408201518160020160006101000a81548160ff02191690831515021790555060608201518160020160016101000a81548160ff02191690831515021790555060808201518160020160026101000a81548160ff02191690831515021790555060a0820151816003015550506200074c600260009054906101000a900473ffffffffffffffffffffffffffffffffffffffff166002600d80549050036200079c60201b60201c565b62000788600260009054906101000a900473ffffffffffffffffffffffffffffffffffffffff166001600d80549050036200079c60201b60201c565b6001600d8054905003905095945050505050565b80600260009054906101000a900473ffffffffffffffffffffffffffffffffffffffff1673ffffffffffffffffffffffffffffffffffffffff163373ffffffffffffffffffffffffffffffffffffffff1614806200084b57506000600c60003373ffffffffffffffffffffffffffffffffffffffff1673ffffffffffffffffffffffffffffffffffffffff16815260200190815260200160002060006003815260200190815260200160002054115b80620008a857506000600c60003373ffffffffffffffffffffffffffffffffffffffff1673ffffffffffffffffffffffffffffffffffffffff16815260200190815260200160002060006005815260200190815260200160002054115b806200092357506000600c60003373ffffffffffffffffffffffffffffffffffffffff1673ffffffffffffffffffffffffffffffffffffffff1681526020019081526020016000206000600d84815481106200090057fe5b906000526020600020906004020160030154815260200190815260200160002054115b6200097a576040517f08c379a000000000000000000000000000000000000000000000000000000000815260040180806020018281038252603b815260200180620050a7603b913960400191505060405180910390fd5b8160096000600354815260200190815260200160002081905550600a600083815260200190815260200160002060035490806001815401808255809150506001900390600052602060002001600090919091909150556001600a60008481526020019081526020016000208054905003600b60008481526020019081526020016000208190555062000a158360035462000a8960201b60201c565b6003548373ffffffffffffffffffffffffffffffffffffffff16600073ffffffffffffffffffffffffffffffffffffffff167fddf252ad1be2c89b69c2b068fc378daa952ba7f163c4a11628f55a4df523b3ef60405160405180910390a46001600360008282540192505081905550505050565b60048190806001815401808255809150506001900390600052602060002001600090919091909150556001600480549050036005600083815260200190815260200160002081905550816008600083815260200190815260200160002060006101000a81548173ffffffffffffffffffffffffffffffffffffffff021916908373ffffffffffffffffffffffffffffffffffffffff160217905550600660008373ffffffffffffffffffffffffffffffffffffffff1673ffffffffffffffffffffffffffffffffffffffff1681526020019081526020016000208190806001815401808255809150506001900390600052602060002001600090919091909150556001600660008473ffffffffffffffffffffffffffffffffffffffff1673ffffffffffffffffffffffffffffffffffffffff16815260200190815260200160002080549050036007600083815260200190815260200160002081905550600060096000838152602001908152602001600020549050600c60008473ffffffffffffffffffffffffffffffffffffffff1673ffffffffffffffffffffffffffffffffffffffff168152602001908152602001600020600082815260200190815260200160002060008154809291906001019190505550505050565b828054600181600116156101000203166002900490600052602060002090601f016020900481019282601f1062000ca757805160ff191683800117855562000cd8565b8280016001018555821562000cd8579182015b8281111562000cd757825182559160200191906001019062000cba565b5b50905062000ce7919062000ceb565b5090565b62000d1091905b8082111562000d0c57600081600090555060010162000cf2565b5090565b90565b6143028062000d236000396000f3fe6080604052600436106102935760003560e01c806370a082311161015a578063b88d4fde116100c1578063d1c0c1bf1161007a578063d1c0c1bf146114c6578063e149f0361461165d578063e5956a19146116cc578063e8a3d4851461171b578063f851a440146117ab578063f91108c81461180257610293565b8063b88d4fde146110d0578063bc525652146111d5578063bfacd7e81461131d578063c57ac5d61461136c578063c83a976b146113e7578063c87b56dd1461141257610293565b806387d40a701161011357806387d40a7014610ed25780638b75ccc914610f62578063905aa6c114610f9157806395d89b4114610fbc578063a0eb027a1461104c578063a9abf938146110a557610293565b806370a0823114610bf257806374e2436714610c575780637b47ec1a14610ca6578063803d4d9f14610ce157806383e6ed5a14610e78578063864039de14610ea357610293565b806342d8edea116101fe578063620de08b116101b7578063620de08b14610a08578063634282af14610a775780636352211e14610ac6578063639f40ed14610b415780636a10d4d614610b6c5780636fb0518e14610bc757610293565b806342d8edea146107d157806344fd706a146108205780634da7a043146108775780634f6ccce7146108c657806355f804b31461091557806361bc221a146109dd57610293565b806323b872dd1161025057806323b872dd146105d757806326f18fa3146106455780632edd2674146106705780632f745c59146106c957806338cc60711461073857806342842e0e1461076357610293565b806301ffc9a7146102985780630381e8301461030a57806306fdde031461035d578063150b7a02146103ed57806318160ddd14610551578063216311771461057c575b600080fd5b3480156102a457600080fd5b506102f0600480360360208110156102bb57600080fd5b8101908080357bffffffffffffffffffffffffffffffffffffffffffffffffffffffff19169060200190929190505050611859565b604051808215151515815260200191505060405180910390f35b34801561031657600080fd5b506103436004803603602081101561032d57600080fd5b8101908080359060200190929190505050611959565b604051808215151515815260200191505060405180910390f35b34801561036957600080fd5b50610372611a88565b6040518080602001828103825283818151815260200191508051906020019080838360005b838110156103b2578082015181840152602081019050610397565b50505050905090810190601f1680156103df5780820380516001836020036101000a031916815260200191505b509250505060405180910390f35b3480156103f957600080fd5b506104fd6004803603608081101561041057600080fd5b81019080803573ffffffffffffffffffffffffffffffffffffffff169060200190929190803573ffffffffffffffffffffffffffffffffffffffff169060200190929190803590602001909291908035906020019064010000000081111561047757600080fd5b82018360208201111561048957600080fd5b803590602001918460018302840111640100000000831117156104ab57600080fd5b91908080601f016020809104026020016040519081016040528093929190818152602001838380828437600081840152601f19601f820116905080830192505050505050509192919290505050611b26565b60405180827bffffffffffffffffffffffffffffffffffffffffffffffffffffffff19167bffffffffffffffffffffffffffffffffffffffffffffffffffffffff1916815260200191505060405180910390f35b34801561055d57600080fd5b50610566611bda565b6040518082815260200191505060405180910390f35b34801561058857600080fd5b506105d56004803603604081101561059f57600080fd5b81019080803573ffffffffffffffffffffffffffffffffffffffff16906020019092919080359060200190929190505050611be7565b005b610643600480360360608110156105ed57600080fd5b81019080803573ffffffffffffffffffffffffffffffffffffffff169060200190929190803573ffffffffffffffffffffffffffffffffffffffff16906020019092919080359060200190929190505050611d71565b005b34801561065157600080fd5b5061065a611e6f565b6040518082815260200191505060405180910390f35b34801561067c57600080fd5b506106b36004803603604081101561069357600080fd5b810190808035906020019092919080359060200190929190505050611e7c565b6040518082815260200191505060405180910390f35b3480156106d557600080fd5b50610722600480360360408110156106ec57600080fd5b81019080803573ffffffffffffffffffffffffffffffffffffffff16906020019092919080359060200190929190505050611eaa565b6040518082815260200191505060405180910390f35b34801561074457600080fd5b5061074d611f57565b6040518082815260200191505060405180910390f35b6107cf6004803603606081101561077957600080fd5b81019080803573ffffffffffffffffffffffffffffffffffffffff169060200190929190803573ffffffffffffffffffffffffffffffffffffffff16906020019092919080359060200190929190505050611f5d565b005b3480156107dd57600080fd5b5061080a600480360360208110156107f457600080fd5b81019080803590602001909291905050506121c6565b6040518082815260200191505060405180910390f35b34801561082c57600080fd5b506108356121de565b604051808273ffffffffffffffffffffffffffffffffffffffff1673ffffffffffffffffffffffffffffffffffffffff16815260200191505060405180910390f35b34801561088357600080fd5b506108b06004803603602081101561089a57600080fd5b8101908080359060200190929190505050612204565b6040518082815260200191505060405180910390f35b3480156108d257600080fd5b506108ff600480360360208110156108e957600080fd5b810190808035906020019092919050505061221c565b6040518082815260200191505060405180910390f35b34801561092157600080fd5b506109db6004803603602081101561093857600080fd5b810190808035906020019064010000000081111561095557600080fd5b82018360208201111561096757600080fd5b8035906020019184600183028401116401000000008311171561098957600080fd5b91908080601f016020809104026020016040519081016040528093929190818152602001838380828437600081840152601f19601f82011690508083019250505050505050919291929050505061224e565b005b3480156109e957600080fd5b506109f261236a565b6040518082815260200191505060405180910390f35b348015610a1457600080fd5b50610a6160048036036040811015610a2b57600080fd5b81019080803573ffffffffffffffffffffffffffffffffffffffff16906020019092919080359060200190929190505050612370565b6040518082815260200191505060405180910390f35b348015610a8357600080fd5b50610ab060048036036020811015610a9a57600080fd5b8101908080359060200190929190505050612395565b6040518082815260200191505060405180910390f35b348015610ad257600080fd5b50610aff60048036036020811015610ae957600080fd5b81019080803590602001909291905050506123b6565b604051808273ffffffffffffffffffffffffffffffffffffffff1673ffffffffffffffffffffffffffffffffffffffff16815260200191505060405180910390f35b348015610b4d57600080fd5b50610b5661244c565b6040518082815260200191505060405180910390f35b348015610b7857600080fd5b50610bc560048036036040811015610b8f57600080fd5b81019080803573ffffffffffffffffffffffffffffffffffffffff16906020019092919080359060200190929190505050612451565b005b348015610bd357600080fd5b50610bdc612730565b6040518082815260200191505060405180910390f35b348015610bfe57600080fd5b50610c4160048036036020811015610c1557600080fd5b81019080803573ffffffffffffffffffffffffffffffffffffffff169060200190929190505050612735565b6040518082815260200191505060405180910390f35b348015610c6357600080fd5b50610c9060048036036020811015610c7a57600080fd5b81019080803590602001909291905050506127a4565b6040518082815260200191505060405180910390f35b348015610cb257600080fd5b50610cdf60048036036020811015610cc957600080fd5b81019080803590602001909291905050506127bc565b005b348015610ced57600080fd5b50610e62600480360360a0811015610d0457600080fd5b8101908080359060200190640100000000811115610d2157600080fd5b820183602082011115610d3357600080fd5b80359060200191846001830284011164010000000083111715610d5557600080fd5b91908080601f016020809104026020016040519081016040528093929190818152602001838380828437600081840152601f19601f82011690508083019250505050505050919291929080359060200190640100000000811115610db857600080fd5b820183602082011115610dca57600080fd5b80359060200191846001830284011164010000000083111715610dec57600080fd5b91908080601f016020809104026020016040519081016040528093929190818152602001838380828437600081840152601f19601f8201169050808301925050505050505091929192908035151590602001909291908035151590602001909291908035151590602001909291905050506129f7565b6040518082815260200191505060405180910390f35b348015610e8457600080fd5b50610e8d612e91565b6040518082815260200191505060405180910390f35b348015610eaf57600080fd5b50610eb8612e96565b604051808215151515815260200191505060405180910390f35b348015610ede57600080fd5b50610ee7612fa6565b6040518080602001828103825283818151815260200191508051906020019080838360005b83811015610f27578082015181840152602081019050610f0c565b50505050905090810190601f168015610f545780820380516001836020036101000a031916815260200191505b509250505060405180910390f35b348015610f6e57600080fd5b50610f77613044565b604051808215151515815260200191505060405180910390f35b348015610f9d57600080fd5b50610fa66130f8565b6040518082815260200191505060405180910390f35b348015610fc857600080fd5b50610fd16130fd565b6040518080602001828103825283818151815260200191508051906020019080838360005b83811015611011578082015181840152602081019050610ff6565b50505050905090810190601f16801561103e5780820380516001836020036101000a031916815260200191505b509250505060405180910390f35b34801561105857600080fd5b5061108f6004803603604081101561106f57600080fd5b81019080803590602001909291908035906020019092919050505061319b565b6040518082815260200191505060405180910390f35b3480156110b157600080fd5b506110ba6131f0565b6040518082815260200191505060405180910390f35b6111d3600480360360808110156110e657600080fd5b81019080803573ffffffffffffffffffffffffffffffffffffffff169060200190929190803573ffffffffffffffffffffffffffffffffffffffff169060200190929190803590602001909291908035906020019064010000000081111561114d57600080fd5b82018360208201111561115f57600080fd5b8035906020019184600183028401116401000000008311171561118157600080fd5b91908080601f016020809104026020016040519081016040528093929190818152602001838380828437600081840152601f19601f8201169050808301925050505050505091929192905050506131f5565b005b3480156111e157600080fd5b5061120e600480360360208110156111f857600080fd5b81019080803590602001909291905050506134b8565b604051808060200180602001871515151581526020018615151515815260200185151515158152602001848152602001838103835289818151815260200191508051906020019080838360005b8381101561127657808201518184015260208101905061125b565b50505050905090810190601f1680156112a35780820380516001836020036101000a031916815260200191505b50838103825288818151815260200191508051906020019080838360005b838110156112dc5780820151818401526020810190506112c1565b50505050905090810190601f1680156113095780820380516001836020036101000a031916815260200191505b509850505050505050505060405180910390f35b34801561132957600080fd5b506113566004803603602081101561134057600080fd5b8101908080359060200190929190505050613658565b6040518082815260200191505060405180910390f35b34801561137857600080fd5b506113a56004803603602081101561138f57600080fd5b8101908080359060200190929190505050613670565b604051808273ffffffffffffffffffffffffffffffffffffffff1673ffffffffffffffffffffffffffffffffffffffff16815260200191505060405180910390f35b3480156113f357600080fd5b506113fc6136a3565b6040518082815260200191505060405180910390f35b34801561141e57600080fd5b5061144b6004803603602081101561143557600080fd5b81019080803590602001909291905050506136a8565b6040518080602001828103825283818151815260200191508051906020019080838360005b8381101561148b578082015181840152602081019050611470565b50505050905090810190601f1680156114b85780820380516001836020036101000a031916815260200191505b509250505060405180910390f35b3480156114d257600080fd5b5061165b600480360360e08110156114e957600080fd5b81019080803590602001909291908035906020019064010000000081111561151057600080fd5b82018360208201111561152257600080fd5b8035906020019184600183028401116401000000008311171561154457600080fd5b91908080601f016020809104026020016040519081016040528093929190818152602001838380828437600081840152601f19601f820116905080830192505050505050509192919290803590602001906401000000008111156115a757600080fd5b8201836020820111156115b957600080fd5b803590602001918460018302840111640100000000831117156115db57600080fd5b91908080601f016020809104026020016040519081016040528093929190818152602001838380828437600081840152601f19601f820116905080830192505050505050509192919290803515159060200190929190803515159060200190929190803515159060200190929190803590602001909291905050506137b6565b005b34801561166957600080fd5b506116b66004803603604081101561168057600080fd5b81019080803573ffffffffffffffffffffffffffffffffffffffff169060200190929190803590602001909291905050506139b6565b6040518082815260200191505060405180910390f35b3480156116d857600080fd5b50611705600480360360208110156116ef57600080fd5b81019080803590602001909291905050506139e4565b6040518082815260200191505060405180910390f35b34801561172757600080fd5b50611730613a04565b6040518080602001828103825283818151815260200191508051906020019080838360005b83811015611770578082015181840152602081019050611755565b50505050905090810190601f16801561179d5780820380516001836020036101000a031916815260200191505b509250505060405180910390f35b3480156117b757600080fd5b506117c0613af8565b604051808273ffffffffffffffffffffffffffffffffffffffff1673ffffffffffffffffffffffffffffffffffffffff16815260200191505060405180910390f35b34801561180e57600080fd5b50611817613b1e565b604051808273ffffffffffffffffffffffffffffffffffffffff1673ffffffffffffffffffffffffffffffffffffffff16815260200191505060405180910390f35b60006380ac58cd60e01b7bffffffffffffffffffffffffffffffffffffffffffffffffffffffff1916827bffffffffffffffffffffffffffffffffffffffffffffffffffffffff191614806118f25750635b5e139f60e01b7bffffffffffffffffffffffffffffffffffffffffffffffffffffffff1916827bffffffffffffffffffffffffffffffffffffffffffffffffffffffff1916145b80611941575063780e9d6360e01b7bffffffffffffffffffffffffffffffffffffffffffffffffffffffff1916827bffffffffffffffffffffffffffffffffffffffffffffffffffffffff1916145b1561194f5760019050611954565b600090505b919050565b6000600260009054906101000a900473ffffffffffffffffffffffffffffffffffffffff1673ffffffffffffffffffffffffffffffffffffffff163373ffffffffffffffffffffffffffffffffffffffff161480611a0857506000600c60003373ffffffffffffffffffffffffffffffffffffffff1673ffffffffffffffffffffffffffffffffffffffff16815260200190815260200160002060006003815260200190815260200160002054115b80611a8157506000600c60003373ffffffffffffffffffffffffffffffffffffffff1673ffffffffffffffffffffffffffffffffffffffff1681526020019081526020016000206000600d8581548110611a5e57fe5b906000526020600020906004020160030154815260200190815260200160002054115b9050919050565b60008054600181600116156101000203166002900480601f016020809104026020016040519081016040528092919081815260200182805460018160011615610100020316600290048015611b1e5780601f10611af357610100808354040283529160200191611b1e565b820191906000526020600020905b815481529060010190602001808311611b0157829003601f168201915b505050505081565b600084600f60006101000a81548173ffffffffffffffffffffffffffffffffffffffff021916908373ffffffffffffffffffffffffffffffffffffffff16021790555083601060006101000a81548173ffffffffffffffffffffffffffffffffffffffff021916908373ffffffffffffffffffffffffffffffffffffffff160217905550826011819055508160129080519060200190611bc79291906140d1565b5063150b7a0260e01b9050949350505050565b6000600480549050905090565b600260009054906101000a900473ffffffffffffffffffffffffffffffffffffffff1673ffffffffffffffffffffffffffffffffffffffff163373ffffffffffffffffffffffffffffffffffffffff161480611c9457506000600c60003373ffffffffffffffffffffffffffffffffffffffff1673ffffffffffffffffffffffffffffffffffffffff16815260200190815260200160002060006003815260200190815260200160002054115b80611cf057506000600c60003373ffffffffffffffffffffffffffffffffffffffff1673ffffffffffffffffffffffffffffffffffffffff16815260200190815260200160002060006005815260200190815260200160002054115b611d45576040517f08c379a00000000000000000000000000000000000000000000000000000000081526004018080602001828103825260268152602001806141f76026913960400191505060405180910390fd5b611d6d82600d8381548110611d5657fe5b906000526020600020906004020160030154612451565b5050565b8060006008600083815260200190815260200160002060009054906101000a900473ffffffffffffffffffffffffffffffffffffffff1673ffffffffffffffffffffffffffffffffffffffff161415611dc957600080fd5b8383838273ffffffffffffffffffffffffffffffffffffffff166008600083815260200190815260200160002060009054906101000a900473ffffffffffffffffffffffffffffffffffffffff1673ffffffffffffffffffffffffffffffffffffffff1614611e3757600080fd5b60008273ffffffffffffffffffffffffffffffffffffffff161415611e5b57600080fd5b611e66878787613b44565b50505050505050565b6000600d80549050905090565b600a6020528160005260406000208181548110611e9557fe5b90600052602060002001600091509150505481565b6000600660008473ffffffffffffffffffffffffffffffffffffffff1673ffffffffffffffffffffffffffffffffffffffff168152602001908152602001600020805490508210611efa57600080fd5b600660008473ffffffffffffffffffffffffffffffffffffffff1673ffffffffffffffffffffffffffffffffffffffff1681526020019081526020016000208281548110611f4457fe5b9060005260206000200154905092915050565b60115481565b8060006008600083815260200190815260200160002060009054906101000a900473ffffffffffffffffffffffffffffffffffffffff1673ffffffffffffffffffffffffffffffffffffffff161415611fb557600080fd5b8383838273ffffffffffffffffffffffffffffffffffffffff166008600083815260200190815260200160002060009054906101000a900473ffffffffffffffffffffffffffffffffffffffff1673ffffffffffffffffffffffffffffffffffffffff161461202357600080fd5b60008273ffffffffffffffffffffffffffffffffffffffff16141561204757600080fd5b612052878787613b44565b6000863b905060008111156121bc5763150b7a0260e01b7bffffffffffffffffffffffffffffffffffffffffffffffffffffffff19168773ffffffffffffffffffffffffffffffffffffffff1663150b7a02338b8a6040518463ffffffff1660e01b8152600401808473ffffffffffffffffffffffffffffffffffffffff1673ffffffffffffffffffffffffffffffffffffffff1681526020018373ffffffffffffffffffffffffffffffffffffffff1673ffffffffffffffffffffffffffffffffffffffff16815260200182815260200180602001828103825260008152602001602001945050505050602060405180830381600087803b15801561215757600080fd5b505af115801561216b573d6000803e3d6000fd5b505050506040513d602081101561218157600080fd5b81019080805190602001909291905050507bffffffffffffffffffffffffffffffffffffffffffffffffffffffff1916146121bb57600080fd5b5b5050505050505050565b60056020528060005260406000206000915090505481565b600f60009054906101000a900473ffffffffffffffffffffffffffffffffffffffff1681565b600b6020528060005260406000206000915090505481565b6000600480549050821061222f57600080fd5b6004828154811061223c57fe5b90600052602060002001549050919050565b600260009054906101000a900473ffffffffffffffffffffffffffffffffffffffff1673ffffffffffffffffffffffffffffffffffffffff163373ffffffffffffffffffffffffffffffffffffffff1614806122fb57506000600c60003373ffffffffffffffffffffffffffffffffffffffff1673ffffffffffffffffffffffffffffffffffffffff16815260200190815260200160002060006003815260200190815260200160002054115b612350576040517f08c379a000000000000000000000000000000000000000000000000000000000815260040180806020018281038252602481526020018061427b6024913960400191505060405180910390fd5b80600e9080519060200190612366929190614151565b5050565b60035481565b600c602052816000526040600020602052806000526040600020600091509150505481565b600481815481106123a257fe5b906000526020600020016000915090505481565b60008160006008600083815260200190815260200160002060009054906101000a900473ffffffffffffffffffffffffffffffffffffffff1673ffffffffffffffffffffffffffffffffffffffff16141561241057600080fd5b6008600084815260200190815260200160002060009054906101000a900473ffffffffffffffffffffffffffffffffffffffff16915050919050565b600181565b80600260009054906101000a900473ffffffffffffffffffffffffffffffffffffffff1673ffffffffffffffffffffffffffffffffffffffff163373ffffffffffffffffffffffffffffffffffffffff1614806124ff57506000600c60003373ffffffffffffffffffffffffffffffffffffffff1673ffffffffffffffffffffffffffffffffffffffff16815260200190815260200160002060006003815260200190815260200160002054115b8061255b57506000600c60003373ffffffffffffffffffffffffffffffffffffffff1673ffffffffffffffffffffffffffffffffffffffff16815260200190815260200160002060006005815260200190815260200160002054115b806125d457506000600c60003373ffffffffffffffffffffffffffffffffffffffff1673ffffffffffffffffffffffffffffffffffffffff1681526020019081526020016000206000600d84815481106125b157fe5b906000526020600020906004020160030154815260200190815260200160002054115b612629576040517f08c379a000000000000000000000000000000000000000000000000000000000815260040180806020018281038252603b815260200180614240603b913960400191505060405180910390fd5b8160096000600354815260200190815260200160002081905550600a600083815260200190815260200160002060035490806001815401808255809150506001900390600052602060002001600090919091909150556001600a60008481526020019081526020016000208054905003600b6000848152602001908152602001600020819055506126bc83600354613bb8565b6003548373ffffffffffffffffffffffffffffffffffffffff16600073ffffffffffffffffffffffffffffffffffffffff167fddf252ad1be2c89b69c2b068fc378daa952ba7f163c4a11628f55a4df523b3ef60405160405180910390a46001600360008282540192505081905550505050565b600381565b6000808273ffffffffffffffffffffffffffffffffffffffff16141561275a57600080fd5b600660008373ffffffffffffffffffffffffffffffffffffffff1673ffffffffffffffffffffffffffffffffffffffff168152602001908152602001600020805490509050919050565b60076020528060005260406000206000915090505481565b3373ffffffffffffffffffffffffffffffffffffffff166008600083815260200190815260200160002060009054906101000a900473ffffffffffffffffffffffffffffffffffffffff1673ffffffffffffffffffffffffffffffffffffffff1614612873576040517f08c379a000000000000000000000000000000000000000000000000000000000815260040180806020018281038252602381526020018061421d6023913960400191505060405180910390fd5b6000600960008381526020019081526020016000205490506000600b60008481526020019081526020016000205490506000600a6000848152602001908152602001600020805490509050600a600084815260200190815260200160002060018203815481106128df57fe5b9060005260206000200154600a6000858152602001908152602001600020838154811061290857fe5b906000526020600020018190555081600b6000600a6000878152602001908152602001600020600185038154811061293c57fe5b9060005260206000200154815260200190815260200160002081905550600a600084815260200190815260200160002080548061297557fe5b600190038181906000526020600020016000905590556129953385613d93565b83600073ffffffffffffffffffffffffffffffffffffffff163373ffffffffffffffffffffffffffffffffffffffff167fddf252ad1be2c89b69c2b068fc378daa952ba7f163c4a11628f55a4df523b3ef60405160405180910390a450505050565b6000600260009054906101000a900473ffffffffffffffffffffffffffffffffffffffff1673ffffffffffffffffffffffffffffffffffffffff163373ffffffffffffffffffffffffffffffffffffffff161480612aa657506000600c60003373ffffffffffffffffffffffffffffffffffffffff1673ffffffffffffffffffffffffffffffffffffffff16815260200190815260200160002060006003815260200190815260200160002054115b80612b0257506000600c60003373ffffffffffffffffffffffffffffffffffffffff1673ffffffffffffffffffffffffffffffffffffffff16815260200190815260200160002060006005815260200190815260200160002054115b612b57576040517f08c379a00000000000000000000000000000000000000000000000000000000081526004018080602001828103825260268152602001806141f76026913960400191505060405180910390fd5b600d6040518060c00160405280886040516020018082805190602001908083835b60208310612b9b5780518252602082019150602081019050602083039250612b78565b6001836020036101000a038019825116818451168082178552505050505050905001807f2d6d616e6167657200000000000000000000000000000000000000000000000081525060080191505060405160208183030381529060405281526020016040518060600160405280602e815260200161429f602e91398152602001600015158152602001600015158152602001600015158152602001600081525090806001815401808255809150506001900390600052602060002090600402016000909190919091506000820151816000019080519060200190612c7f929190614151565b506020820151816001019080519060200190612c9c929190614151565b5060408201518160020160006101000a81548160ff02191690831515021790555060608201518160020160016101000a81548160ff02191690831515021790555060808201518160020160026101000a81548160ff02191690831515021790555060a082015181600301555050600d6040518060c001604052808881526020018781526020018615158152602001851515815260200184151581526020016001600d805490500381525090806001815401808255809150506001900390600052602060002090600402016000909190919091506000820151816000019080519060200190612d8b929190614151565b506020820151816001019080519060200190612da8929190614151565b5060408201518160020160006101000a81548160ff02191690831515021790555060608201518160020160016101000a81548160ff02191690831515021790555060808201518160020160026101000a81548160ff02191690831515021790555060a082015181600301555050612e49600260009054906101000a900473ffffffffffffffffffffffffffffffffffffffff166002600d8054905003612451565b612e7d600260009054906101000a900473ffffffffffffffffffffffffffffffffffffffff166001600d8054905003612451565b6001600d8054905003905095945050505050565b600581565b6000600260009054906101000a900473ffffffffffffffffffffffffffffffffffffffff1673ffffffffffffffffffffffffffffffffffffffff163373ffffffffffffffffffffffffffffffffffffffff161480612f4557506000600c60003373ffffffffffffffffffffffffffffffffffffffff1673ffffffffffffffffffffffffffffffffffffffff16815260200190815260200160002060006003815260200190815260200160002054115b80612fa157506000600c60003373ffffffffffffffffffffffffffffffffffffffff1673ffffffffffffffffffffffffffffffffffffffff16815260200190815260200160002060006005815260200190815260200160002054115b905090565b60128054600181600116156101000203166002900480601f01602080910402602001604051908101604052809291908181526020018280546001816001161561010002031660029004801561303c5780601f106130115761010080835404028352916020019161303c565b820191906000526020600020905b81548152906001019060200180831161301f57829003601f168201915b505050505081565b6000600260009054906101000a900473ffffffffffffffffffffffffffffffffffffffff1673ffffffffffffffffffffffffffffffffffffffff163373ffffffffffffffffffffffffffffffffffffffff1614806130f357506000600c60003373ffffffffffffffffffffffffffffffffffffffff1673ffffffffffffffffffffffffffffffffffffffff16815260200190815260200160002060006003815260200190815260200160002054115b905090565b600481565b60018054600181600116156101000203166002900480601f0160208091040260200160405190810160405280929190818152602001828054600181600116156101000203166002900480156131935780601f1061316857610100808354040283529160200191613193565b820191906000526020600020905b81548152906001019060200180831161317657829003601f168201915b505050505081565b6000600a60008481526020019081526020016000208054905082106131bf57600080fd5b600a600084815260200190815260200160002082815481106131dd57fe5b9060005260206000200154905092915050565b600281565b8160006008600083815260200190815260200160002060009054906101000a900473ffffffffffffffffffffffffffffffffffffffff1673ffffffffffffffffffffffffffffffffffffffff16141561324d57600080fd5b8484848273ffffffffffffffffffffffffffffffffffffffff166008600083815260200190815260200160002060009054906101000a900473ffffffffffffffffffffffffffffffffffffffff1673ffffffffffffffffffffffffffffffffffffffff16146132bb57600080fd5b60008273ffffffffffffffffffffffffffffffffffffffff1614156132df57600080fd5b6132ea888888613b44565b6000873b905060008111156134ad5763150b7a0260e01b7bffffffffffffffffffffffffffffffffffffffffffffffffffffffff19168873ffffffffffffffffffffffffffffffffffffffff1663150b7a02338c8b8b6040518563ffffffff1660e01b8152600401808573ffffffffffffffffffffffffffffffffffffffff1673ffffffffffffffffffffffffffffffffffffffff1681526020018473ffffffffffffffffffffffffffffffffffffffff1673ffffffffffffffffffffffffffffffffffffffff16815260200183815260200180602001828103825283818151815260200191508051906020019080838360005b838110156133f95780820151818401526020810190506133de565b50505050905090810190601f1680156134265780820380516001836020036101000a031916815260200191505b5095505050505050602060405180830381600087803b15801561344857600080fd5b505af115801561345c573d6000803e3d6000fd5b505050506040513d602081101561347257600080fd5b81019080805190602001909291905050507bffffffffffffffffffffffffffffffffffffffffffffffffffffffff1916146134ac57600080fd5b5b505050505050505050565b600d81815481106134c557fe5b9060005260206000209060040201600091509050806000018054600181600116156101000203166002900480601f0160208091040260200160405190810160405280929190818152602001828054600181600116156101000203166002900480156135715780601f1061354657610100808354040283529160200191613571565b820191906000526020600020905b81548152906001019060200180831161355457829003601f168201915b505050505090806001018054600181600116156101000203166002900480601f01602080910402602001604051908101604052809291908181526020018280546001816001161561010002031660029004801561360f5780601f106135e45761010080835404028352916020019161360f565b820191906000526020600020905b8154815290600101906020018083116135f257829003601f168201915b5050505050908060020160009054906101000a900460ff16908060020160019054906101000a900460ff16908060020160029054906101000a900460ff16908060030154905086565b60096020528060005260406000206000915090505481565b60086020528060005260406000206000915054906101000a900473ffffffffffffffffffffffffffffffffffffffff1681565b600081565b6060600060096000848152602001908152602001600020549050600e600d82815481106136d157fe5b906000526020600020906004020160010160405160200180838054600181600116156101000203166002900480156137405780601f1061371e576101008083540402835291820191613740565b820191906000526020600020905b81548152906001019060200180831161372c575b5050828054600181600116156101000203166002900480156137995780601f10613777576101008083540402835291820191613799565b820191906000526020600020905b815481529060010190602001808311613785575b505092505050604051602081830303815290604052915050919050565b600260009054906101000a900473ffffffffffffffffffffffffffffffffffffffff1673ffffffffffffffffffffffffffffffffffffffff163373ffffffffffffffffffffffffffffffffffffffff16148061386357506000600c60003373ffffffffffffffffffffffffffffffffffffffff1673ffffffffffffffffffffffffffffffffffffffff16815260200190815260200160002060006003815260200190815260200160002054115b6138b8576040517f08c379a000000000000000000000000000000000000000000000000000000000815260040180806020018281038252602481526020018061427b6024913960400191505060405180910390fd5b6040518060c0016040528087815260200186815260200185151581526020018415158152602001831515815260200182815250600d88815481106138f857fe5b90600052602060002090600402016000820151816000019080519060200190613922929190614151565b50602082015181600101908051906020019061393f929190614151565b5060408201518160020160006101000a81548160ff02191690831515021790555060608201518160020160016101000a81548160ff02191690831515021790555060808201518160020160026101000a81548160ff02191690831515021790555060a0820151816003015590505050505050505050565b600660205281600052604060002081815481106139cf57fe5b90600052602060002001600091509150505481565b6000600a6000838152602001908152602001600020805490509050919050565b6060600e600d600081548110613a1657fe5b90600052602060002090600402016001016040516020018083805460018160011615610100020316600290048015613a855780601f10613a63576101008083540402835291820191613a85565b820191906000526020600020905b815481529060010190602001808311613a71575b505082805460018160011615610100020316600290048015613ade5780601f10613abc576101008083540402835291820191613ade565b820191906000526020600020905b815481529060010190602001808311613aca575b505092505050604051602081830303815290604052905090565b600260009054906101000a900473ffffffffffffffffffffffffffffffffffffffff1681565b601060009054906101000a900473ffffffffffffffffffffffffffffffffffffffff1681565b613b4e8382613d93565b613b588282613bb8565b808273ffffffffffffffffffffffffffffffffffffffff168473ffffffffffffffffffffffffffffffffffffffff167fddf252ad1be2c89b69c2b068fc378daa952ba7f163c4a11628f55a4df523b3ef60405160405180910390a4505050565b60048190806001815401808255809150506001900390600052602060002001600090919091909150556001600480549050036005600083815260200190815260200160002081905550816008600083815260200190815260200160002060006101000a81548173ffffffffffffffffffffffffffffffffffffffff021916908373ffffffffffffffffffffffffffffffffffffffff160217905550600660008373ffffffffffffffffffffffffffffffffffffffff1673ffffffffffffffffffffffffffffffffffffffff1681526020019081526020016000208190806001815401808255809150506001900390600052602060002001600090919091909150556001600660008473ffffffffffffffffffffffffffffffffffffffff1673ffffffffffffffffffffffffffffffffffffffff16815260200190815260200160002080549050036007600083815260200190815260200160002081905550600060096000838152602001908152602001600020549050600c60008473ffffffffffffffffffffffffffffffffffffffff1673ffffffffffffffffffffffffffffffffffffffff168152602001908152602001600020600082815260200190815260200160002060008154809291906001019190505550505050565b6000600560008381526020019081526020016000205490506000600480549050905060046001820381548110613dc557fe5b906000526020600020015460048381548110613ddd57fe5b9060005260206000200181905550816005600060046001850381548110613e0057fe5b90600052602060002001548152602001908152602001600020819055506004805480613e2857fe5b600190038181906000526020600020016000905590556000600760008581526020019081526020016000205490506000600660008773ffffffffffffffffffffffffffffffffffffffff1673ffffffffffffffffffffffffffffffffffffffff168152602001908152602001600020805490509050600660008773ffffffffffffffffffffffffffffffffffffffff1673ffffffffffffffffffffffffffffffffffffffff1681526020019081526020016000206001820381548110613eea57fe5b9060005260206000200154600660008873ffffffffffffffffffffffffffffffffffffffff1673ffffffffffffffffffffffffffffffffffffffff1681526020019081526020016000208381548110613f3f57fe5b90600052602060002001819055508160076000600660008a73ffffffffffffffffffffffffffffffffffffffff1673ffffffffffffffffffffffffffffffffffffffff1681526020019081526020016000206001850381548110613f9f57fe5b9060005260206000200154815260200190815260200160002081905550600660008773ffffffffffffffffffffffffffffffffffffffff1673ffffffffffffffffffffffffffffffffffffffff16815260200190815260200160002080548061400457fe5b60019003818190600052602060002001600090559055600060096000878152602001908152602001600020549050600c60008873ffffffffffffffffffffffffffffffffffffffff1673ffffffffffffffffffffffffffffffffffffffff1681526020019081526020016000206000828152602001908152602001600020600081548092919060010191905055506008600087815260200190815260200160002060006101000a81549073ffffffffffffffffffffffffffffffffffffffff021916905550505050505050565b828054600181600116156101000203166002900490600052602060002090601f016020900481019282601f1061411257805160ff1916838001178555614140565b82800160010185558215614140579182015b8281111561413f578251825591602001919060010190614124565b5b50905061414d91906141d1565b5090565b828054600181600116156101000203166002900490600052602060002090601f016020900481019282601f1061419257805160ff19168380011785556141c0565b828001600101855582156141c0579182015b828111156141bf5782518255916020019190600101906141a4565b5b5090506141cd91906141d1565b5090565b6141f391905b808211156141ef5760008160009055506001016141d7565b5090565b9056fe4d75737420686176652061646d696e206f722062616467652063726561746f7220726f6c6520546f6b656e2073686f756c6420626520696e20636f6e74726f6c206f66206f776e65724d75737420686176652061646d696e2c20626164676563726561746f72206f72206d616e6167657220726f6c6520666f72207468652062616467654d75737420686176652061646d696e20726f6c6520746f2063726561746520746f6b656e516d57354437683665764d63716f4a5672654b474e6a357551416664346577646f4e63537441584b4e3442615575a26469706673582212201b252fb481faa6bcd2213fc5f2ae742bf085392d26528f2016ae84bbd319dc8f64736f6c63430006090033516d61636d77564e4c65514c34446a68506f6a74793563684c37473767315a4131395367736e724d3844523843734d75737420686176652061646d696e206f722062616467652063726561746f7220726f6c6520516d5a4755655434795972627452506254676a31724677564e61554a414d6d583238504277434a3551697136346e4d75737420686176652061646d696e2c20626164676563726561746f72206f72206d616e6167657220726f6c6520666f7220746865206261646765516d57354437683665764d63716f4a5672654b474e6a357551416664346577646f4e63537441584b4e3442615575",
  "source": "// SPDX-License-Identifier: MIT\r\n// based on https://github.com/ConsenSys/artifaqt/blob/master/contract/contracts/KOIOSNFT\r\n// Use for educational purposes only // without approval functions\r\n// Extended with templates\r\npragma solidity ^0.6.9;\r\n\r\ncontract KOIOSNFT {  \r\n    event Transfer(address indexed _from, address indexed _to, uint256 indexed _tokenId);\r\n\r\n    string public  name;\r\n    string public  symbol;\r\n    address public  admin;\r\n    uint256 public  counter = 10;\r\n    \r\n    uint256[]                      public allTokens; \r\n    mapping(uint256 => uint256)    public allTokensIndex;      \r\n    mapping(address => uint256[])  public ownedTokens;  \r\n    mapping(uint256 => uint256)    public ownedTokensIndex;     \r\n    mapping(uint256 => address)    public ownerOfToken;\r\n    mapping(uint256 => uint256)    public templateOf; // bundle NTF's\r\n    mapping(uint256 => uint256[])  public typedTokens; // get list per bundle\r\n    mapping(uint256 => uint256)    public typedTokensIndex;     \r\n    \r\n    \r\n    mapping(address => mapping( uint256 => uint256))  public ownedTypedTokens;  \r\n    \r\n    \r\n    \r\n    struct Template {\r\n        string  name;\r\n        string  cid;\r\n        bool SelfMint;\r\n        bool SelfBurn; \r\n        bool AllowTransfer;\r\n        uint256 Manager;\r\n    }\r\n\r\n    Template[] public templates;\r\n    // Base URI\r\n    string private baseURI;\r\n    \r\n    address public receivedOperator;    // public to easily check\r\n    address public receivedFrom;        // public to easily check\r\n    uint256 public receivedTokenId;     // public to easily check\r\n    bytes   public receivedData;        // public to easily check\r\n    bytes4 internal constant ERC721_BASE_INTERFACE_SIGNATURE = 0x80ac58cd;\r\n    bytes4 internal constant ERC721_METADATA_INTERFACE_SIGNATURE = 0x5b5e139f;\r\n    bytes4 internal constant ERC721_ENUMERABLE_INTERFACE_SIGNATURE = 0x780e9d63;\r\n    bytes4 internal constant ONERC721RECEIVED_FUNCTION_SIGNATURE = 0x150b7a02;\r\n\r\n    uint256 public constant CONTRACTINFOMANAGER = 0;\r\n    uint256 public constant CONTRACTINFO = 1;\r\n    uint256 public constant ADMINTOKENMANAGER   = 2;\r\n    uint256 public constant ADMINTOKEN   = 3;\r\n    uint256 public constant BADGECREATORTOKENMANAGER = 4;\r\n    uint256 public constant BADGECREATORTOKEN = 5;\r\n    \r\n    \r\n\r\n    modifier tokenExists(uint256 _tokenId) {\r\n        require(uint256(ownerOfToken[_tokenId]) != 0);\r\n        _;\r\n    }\r\n    \r\n    modifier isAdmin {\r\n        require(msg.sender == admin || (ownedTypedTokens[msg.sender][ADMINTOKEN] > 0),\"Must have admin role to create token\");\r\n        _;\r\n    }\r\n    \r\n    modifier isBadgeCreator {\r\n        require(msg.sender == admin || (ownedTypedTokens[msg.sender][ADMINTOKEN] > 0) || (ownedTypedTokens[msg.sender][BADGECREATORTOKEN] > 0),\"Must have admin or badge creator role \");\r\n        _;\r\n    }\r\n    \r\n    modifier isManager(uint256 _templateId) {\r\n        require(msg.sender == admin || \r\n            (ownedTypedTokens[msg.sender][ADMINTOKEN] > 0) || (ownedTypedTokens[msg.sender][BADGECREATORTOKEN] > 0) || (ownedTypedTokens[msg.sender][templates[_templateId].Manager] > 0),\"Must have admin, badgecreator or manager role for the badge\");\r\n        _;\r\n        \r\n    }        \r\n    \r\n    \r\n    \r\n    // string memory _name, string memory _symbol, string memory _baseURI, string memory _cidcontract,string memory _cidadmin\r\n    constructor () public {\r\n        admin = msg.sender;\r\n        name = \"koios\";\r\n        symbol = \"koios\";\r\n        baseURI = \"ipfs://ipfs/\";\r\n        CreateNewBadge(name, \"QmacmwVNLeQL4DjhPojty5chL7G7g1ZA19SgsnrM8DR8Cs\", true,true,true);\r\n        CreateNewBadge(\"admin\", \"QmZGUeT4yYrbtRPbTgj1rFwVNaUJAMmX28PBwCJ5Qiq64n\", true,true,true);\r\n        CreateNewBadge(\"badgecreator\", \"QmW5D7h6evMcqoJVreKGNj5uQAfd4ewdoNcStAXKN4BaUu\", true,true,true);\r\n\r\n    }\r\n    function onERC721Received(address _operator, address _from, uint256 _tokenId, bytes memory _data) public returns(bytes4) {\r\n        receivedOperator = _operator;\r\n        receivedFrom     = _from;\r\n        receivedTokenId  = _tokenId;\r\n        receivedData     = _data;\r\n        return ONERC721RECEIVED_FUNCTION_SIGNATURE;    \r\n    } \r\n    modifier allowedToTransfer(address _from, address _to, uint256 _tokenId) {\r\n        require(ownerOfToken[_tokenId] == _from);\r\n        require(uint256(_to) != 0); //not allowed to burn in transfer method\r\n        _;\r\n    }\r\n   \r\n    function settleTransfer(address _from, address _to, uint256 _tokenId) internal {\r\n        removeToken(_from, _tokenId);\r\n        addToken(_to, _tokenId);\r\n        emit Transfer(_from, _to, _tokenId);\r\n    }\r\n    function addToken(address _to, uint256 _tokenId) internal {\r\n        allTokens.push(_tokenId);\r\n        allTokensIndex[_tokenId] = allTokens.length-1;\r\n        ownerOfToken[_tokenId] = _to;        \r\n        ownedTokens[_to].push(_tokenId);\r\n        ownedTokensIndex[_tokenId] = ownedTokens[_to].length-1;\r\n        \r\n        uint256 templateId=templateOf[_tokenId];\r\n        ownedTypedTokens[_to][templateId]++;\r\n    }\r\n    function removeToken(address _from, uint256 _tokenId) internal {\r\n        uint256 allIndex = allTokensIndex[_tokenId];\r\n        uint256 allTokensLength = allTokens.length;\r\n        allTokens[allIndex] = allTokens[allTokensLength - 1];\r\n        allTokensIndex[allTokens[allTokensLength-1]] = allIndex;\r\n        allTokens.pop();\r\n        \r\n        uint256 ownerIndex = ownedTokensIndex[_tokenId];\r\n        uint256 ownerLength = ownedTokens[_from].length;\r\n        ownedTokens[_from][ownerIndex] = ownedTokens[_from][ownerLength-1];\r\n        ownedTokensIndex[ownedTokens[_from][ownerLength-1]] = ownerIndex;\r\n        ownedTokens[_from].pop();\r\n        uint256 templateId=templateOf[_tokenId];\r\n        ownedTypedTokens[_from][templateId]++;\r\n         \r\n        delete ownerOfToken[_tokenId];\r\n    }\r\n    \r\n    // public functions -------------------------------------------------------------------------------\r\n    \r\n    function transferFrom(address _from, address _to, uint256 _tokenId) public payable\r\n    tokenExists(_tokenId)\r\n    allowedToTransfer(_from, _to, _tokenId) {       \r\n        settleTransfer(_from, _to, _tokenId);\r\n    }\r\n    function safeTransferFrom(address _from, address _to, uint256 _tokenId, bytes memory data) public payable\r\n    tokenExists(_tokenId)\r\n    allowedToTransfer(_from, _to, _tokenId) {\r\n        settleTransfer(_from, _to, _tokenId);\r\n        uint256 size;\r\n        assembly { size := extcodesize(_to) }  // solhint-disable-line no-inline-assembly\r\n        if (size > 0) {\r\n            require(KOIOSNFT(_to).onERC721Received(msg.sender, _from, _tokenId, data) == ONERC721RECEIVED_FUNCTION_SIGNATURE);\r\n        }\r\n    }\r\n    function safeTransferFrom(address _from, address _to, uint256 _tokenId) public payable\r\n    tokenExists(_tokenId)\r\n    allowedToTransfer(_from, _to, _tokenId) {\r\n        settleTransfer(_from, _to, _tokenId);\r\n        uint256 size;\r\n        assembly { size := extcodesize(_to) }  // solhint-disable-line no-inline-assembly\r\n        if (size > 0) {\r\n            require(KOIOSNFT(_to).onERC721Received(msg.sender, _from, _tokenId, \"\") == ONERC721RECEIVED_FUNCTION_SIGNATURE);\r\n        }\r\n    }\r\n    function totalSupply() public view returns (uint256) {\r\n        return allTokens.length;\r\n    }\r\n    function ownerOf(uint256 _tokenId) external view\r\n    tokenExists(_tokenId) returns (address) {\r\n        return ownerOfToken[_tokenId];\r\n    }\r\n    function tokenByIndex(uint256 _index) external view returns (uint256) {\r\n        require(_index < allTokens.length);\r\n        return allTokens[_index];\r\n    }\r\n    function tokenOfOwnerByIndex(address _owner, uint256 _index) external view returns (uint256 _tokenId) {\r\n        require(_index < ownedTokens[_owner].length);\r\n        return ownedTokens[_owner][_index];\r\n    }\r\n    function balanceOf(address _owner) external view returns (uint256) {\r\n        require(uint256(_owner) != 0);\r\n        return ownedTokens[_owner].length;\r\n    }\r\n\r\n    function tokensOfType(uint256 _type) external view returns (uint256) {\r\n        return typedTokens[_type].length;\r\n    }\r\n    function tokenOfTypeByIndex(uint256 _type, uint256 _index) external view returns (uint256 _tokenId) {\r\n        require(_index < typedTokens[_type].length);\r\n        return typedTokens[_type][_index];\r\n    }\r\n    \r\n    function tokenURI(uint256 _tokenId) public view returns (string memory) {\r\n        uint256 templateId=templateOf[_tokenId];\r\n        return string(abi.encodePacked(baseURI, templates[templateId].cid));\r\n    }\r\n    \r\n    \r\n    \r\n    function supportsInterface(bytes4 interfaceID) external pure returns (bool) {\r\n        if (interfaceID == ERC721_BASE_INTERFACE_SIGNATURE ||\r\n        interfaceID == ERC721_METADATA_INTERFACE_SIGNATURE ||\r\n        interfaceID == ERC721_ENUMERABLE_INTERFACE_SIGNATURE) {\r\n            return true;\r\n        } else { return false; }\r\n    }\r\n    \r\n    \r\n    function createToken(address _minter,uint256 _templateId) public isManager( _templateId) {\r\n        \r\n        templateOf[counter]=_templateId;\r\n        typedTokens[_templateId].push(counter);\r\n        typedTokensIndex[_templateId] = typedTokens[_templateId].length-1;\r\n        \r\n        addToken(_minter, counter);\r\n        emit Transfer(address(0), _minter, counter);\r\n        counter += 1; // every new token gets a new ID\r\n    }\r\n    function burnToken(uint256 _tokenId) public {\r\n        require(ownerOfToken[_tokenId] == msg.sender,\"Token should be in control of owner\");\r\n        uint256 templateId=templateOf[_tokenId];\r\n         \r\n        uint256 typedIndex = typedTokensIndex[_tokenId];\r\n        uint256 typedLength = typedTokens[templateId].length;\r\n        typedTokens[templateId][typedIndex] = typedTokens[templateId][typedLength-1];\r\n        typedTokensIndex[typedTokens[templateId][typedLength-1]] = typedIndex;\r\n        typedTokens[templateId].pop();\r\n        \r\n        removeToken(msg.sender, _tokenId);\r\n        emit Transfer(msg.sender, address(0), _tokenId);\r\n    }\r\n\r\n    function CreateNewBadge(string memory _name, string memory _cid, bool _SelfMint, bool _SelfBurn, bool _AllowTransfer) public  isBadgeCreator returns (uint256)  {\r\n        \r\n\r\n       \r\n       templates.push(Template(string(abi.encodePacked(_name, \"-manager\")), \"QmW5D7h6evMcqoJVreKGNj5uQAfd4ewdoNcStAXKN4BaUu\" ,  false,false,false,0));\r\n       templates.push(Template(_name, _cid,  _SelfMint,  _SelfBurn,  _AllowTransfer,templates.length-1)); // manager is the token perviousely created\r\n       \r\n       createToken(admin,templates.length-2); // give everything also to admin\r\n       createToken(admin,templates.length-1); // give everything also to admin\r\n       \r\n       return templates.length-1;\r\n    }\r\n    \r\n    \r\n    function assignManager(address _to, uint256 _templateid) public isBadgeCreator {\r\n         createToken(_to,templates[_templateid].Manager);\r\n    }\r\n    \r\n    function UpdateBadge(uint256 _templateid,string memory _name, string memory _cid, bool _SelfMint, bool _SelfBurn, bool _AllowTransfer, uint256 _Manager) public isAdmin {\r\n       \r\n       templates[_templateid]=Template(_name, _cid,  _SelfMint,  _SelfBurn,  _AllowTransfer, _Manager);\r\n    }\r\n    \r\n    \r\n    function nrTemplates() external view returns (uint256) {\r\n        return templates.length;\r\n    }\r\n    function setBaseURI(string memory _baseURI) public isAdmin {\r\n         baseURI = _baseURI;\r\n    }\r\n    \r\n    function contractURI() public view returns (string memory) { // for opensea, use the template#0\r\n        return string(abi.encodePacked(baseURI, templates[0].cid));\r\n    }\r\n\r\n\r\n    function checkIsAdmin() public view returns (bool) {\r\n        return msg.sender == admin || (ownedTypedTokens[msg.sender][ADMINTOKEN] > 0);\r\n    }\r\n    \r\n    function checkIsBadgeCreator() public view returns (bool)  {\r\n        return msg.sender == admin || (ownedTypedTokens[msg.sender][ADMINTOKEN] > 0) || (ownedTypedTokens[msg.sender][BADGECREATORTOKEN] > 0);\r\n    }\r\n    \r\n    function checkIsManager(uint256 _templateId) public view returns (bool)  {\r\n        return msg.sender == admin || (ownedTypedTokens[msg.sender][ADMINTOKEN] > 0) || (ownedTypedTokens[msg.sender][templates[_templateId].Manager] > 0);\r\n\r\n    }        \r\n    \r\n\r\n\r\n}\r\n",
  "sourcePath": "W:/gpersoon/koios/lib/smartcontracts/contracts/KOIOSNFT.sol",
  "compiler": {
    "name": "solc",
    "version": "0.6.9+commit.3e3065ac.Emscripten.clang"
  },
  "schemaVersion": "3.0.21",
  "updatedAt": "2020-08-02T13:16:43.967Z",
  "networkType": "ethereum",
  "devdoc": {
    "methods": {}
  },
  "userdoc": {
    "methods": {}
  }
}