{
  "contractName": "KOIOSNFT",
  "abi": [
    {
      "inputs": [
        {
          "internalType": "string",
          "name": "_name",
          "type": "string"
        },
        {
          "internalType": "string",
          "name": "_symbol",
          "type": "string"
        },
        {
          "internalType": "string",
          "name": "_baseURI",
          "type": "string"
        }
      ],
      "stateMutability": "nonpayable",
      "type": "constructor"
    },
    {
      "anonymous": false,
      "inputs": [
        {
          "indexed": false,
          "internalType": "uint256",
          "name": "_templateid",
          "type": "uint256"
        },
        {
          "indexed": false,
          "internalType": "string",
          "name": "_name",
          "type": "string"
        }
      ],
      "name": "NewBadge",
      "type": "event"
    },
    {
      "anonymous": false,
      "inputs": [
        {
          "indexed": true,
          "internalType": "address",
          "name": "_from",
          "type": "address"
        },
        {
          "indexed": true,
          "internalType": "address",
          "name": "_to",
          "type": "address"
        },
        {
          "indexed": true,
          "internalType": "uint256",
          "name": "_tokenId",
          "type": "uint256"
        }
      ],
      "name": "Transfer",
      "type": "event"
    },
    {
      "inputs": [],
      "name": "ADMINTOKEN",
      "outputs": [
        {
          "internalType": "uint256",
          "name": "",
          "type": "uint256"
        }
      ],
      "stateMutability": "view",
      "type": "function",
      "constant": true
    },
    {
      "inputs": [],
      "name": "BADGECREATORTOKEN",
      "outputs": [
        {
          "internalType": "uint256",
          "name": "",
          "type": "uint256"
        }
      ],
      "stateMutability": "view",
      "type": "function",
      "constant": true
    },
    {
      "inputs": [],
      "name": "CONTRACTTOKEN",
      "outputs": [
        {
          "internalType": "uint256",
          "name": "",
          "type": "uint256"
        }
      ],
      "stateMutability": "view",
      "type": "function",
      "constant": true
    },
    {
      "inputs": [],
      "name": "admin",
      "outputs": [
        {
          "internalType": "address",
          "name": "",
          "type": "address"
        }
      ],
      "stateMutability": "view",
      "type": "function",
      "constant": true
    },
    {
      "inputs": [
        {
          "internalType": "uint256",
          "name": "",
          "type": "uint256"
        }
      ],
      "name": "allTokens",
      "outputs": [
        {
          "internalType": "uint256",
          "name": "",
          "type": "uint256"
        }
      ],
      "stateMutability": "view",
      "type": "function",
      "constant": true
    },
    {
      "inputs": [
        {
          "internalType": "uint256",
          "name": "",
          "type": "uint256"
        }
      ],
      "name": "allTokensIndex",
      "outputs": [
        {
          "internalType": "uint256",
          "name": "",
          "type": "uint256"
        }
      ],
      "stateMutability": "view",
      "type": "function",
      "constant": true
    },
    {
      "inputs": [],
      "name": "counter",
      "outputs": [
        {
          "internalType": "uint256",
          "name": "",
          "type": "uint256"
        }
      ],
      "stateMutability": "view",
      "type": "function",
      "constant": true
    },
    {
      "inputs": [],
      "name": "name",
      "outputs": [
        {
          "internalType": "string",
          "name": "",
          "type": "string"
        }
      ],
      "stateMutability": "view",
      "type": "function",
      "constant": true
    },
    {
      "inputs": [
        {
          "internalType": "address",
          "name": "",
          "type": "address"
        },
        {
          "internalType": "uint256",
          "name": "",
          "type": "uint256"
        }
      ],
      "name": "ownedTokens",
      "outputs": [
        {
          "internalType": "uint256",
          "name": "",
          "type": "uint256"
        }
      ],
      "stateMutability": "view",
      "type": "function",
      "constant": true
    },
    {
      "inputs": [
        {
          "internalType": "uint256",
          "name": "",
          "type": "uint256"
        }
      ],
      "name": "ownedTokensIndex",
      "outputs": [
        {
          "internalType": "uint256",
          "name": "",
          "type": "uint256"
        }
      ],
      "stateMutability": "view",
      "type": "function",
      "constant": true
    },
    {
      "inputs": [
        {
          "internalType": "address",
          "name": "",
          "type": "address"
        },
        {
          "internalType": "uint256",
          "name": "",
          "type": "uint256"
        }
      ],
      "name": "ownedTypedTokens",
      "outputs": [
        {
          "internalType": "uint256",
          "name": "",
          "type": "uint256"
        }
      ],
      "stateMutability": "view",
      "type": "function",
      "constant": true
    },
    {
      "inputs": [
        {
          "internalType": "uint256",
          "name": "",
          "type": "uint256"
        }
      ],
      "name": "ownerOfToken",
      "outputs": [
        {
          "internalType": "address",
          "name": "",
          "type": "address"
        }
      ],
      "stateMutability": "view",
      "type": "function",
      "constant": true
    },
    {
      "inputs": [],
      "name": "receivedData",
      "outputs": [
        {
          "internalType": "bytes",
          "name": "",
          "type": "bytes"
        }
      ],
      "stateMutability": "view",
      "type": "function",
      "constant": true
    },
    {
      "inputs": [],
      "name": "receivedFrom",
      "outputs": [
        {
          "internalType": "address",
          "name": "",
          "type": "address"
        }
      ],
      "stateMutability": "view",
      "type": "function",
      "constant": true
    },
    {
      "inputs": [],
      "name": "receivedOperator",
      "outputs": [
        {
          "internalType": "address",
          "name": "",
          "type": "address"
        }
      ],
      "stateMutability": "view",
      "type": "function",
      "constant": true
    },
    {
      "inputs": [],
      "name": "receivedTokenId",
      "outputs": [
        {
          "internalType": "uint256",
          "name": "",
          "type": "uint256"
        }
      ],
      "stateMutability": "view",
      "type": "function",
      "constant": true
    },
    {
      "inputs": [],
      "name": "symbol",
      "outputs": [
        {
          "internalType": "string",
          "name": "",
          "type": "string"
        }
      ],
      "stateMutability": "view",
      "type": "function",
      "constant": true
    },
    {
      "inputs": [
        {
          "internalType": "uint256",
          "name": "",
          "type": "uint256"
        }
      ],
      "name": "templateOf",
      "outputs": [
        {
          "internalType": "uint256",
          "name": "",
          "type": "uint256"
        }
      ],
      "stateMutability": "view",
      "type": "function",
      "constant": true
    },
    {
      "inputs": [
        {
          "internalType": "uint256",
          "name": "",
          "type": "uint256"
        }
      ],
      "name": "templates",
      "outputs": [
        {
          "internalType": "string",
          "name": "name",
          "type": "string"
        },
        {
          "internalType": "string",
          "name": "cid",
          "type": "string"
        },
        {
          "internalType": "uint256",
          "name": "managedBy",
          "type": "uint256"
        },
        {
          "internalType": "bool",
          "name": "SelfMint",
          "type": "bool"
        },
        {
          "internalType": "bool",
          "name": "SelfBurn",
          "type": "bool"
        },
        {
          "internalType": "bool",
          "name": "AllowTransfer",
          "type": "bool"
        }
      ],
      "stateMutability": "view",
      "type": "function",
      "constant": true
    },
    {
      "inputs": [
        {
          "internalType": "uint256",
          "name": "",
          "type": "uint256"
        },
        {
          "internalType": "uint256",
          "name": "",
          "type": "uint256"
        }
      ],
      "name": "typedTokens",
      "outputs": [
        {
          "internalType": "uint256",
          "name": "",
          "type": "uint256"
        }
      ],
      "stateMutability": "view",
      "type": "function",
      "constant": true
    },
    {
      "inputs": [
        {
          "internalType": "uint256",
          "name": "",
          "type": "uint256"
        }
      ],
      "name": "typedTokensIndex",
      "outputs": [
        {
          "internalType": "uint256",
          "name": "",
          "type": "uint256"
        }
      ],
      "stateMutability": "view",
      "type": "function",
      "constant": true
    },
    {
      "inputs": [
        {
          "internalType": "address",
          "name": "_operator",
          "type": "address"
        },
        {
          "internalType": "address",
          "name": "_from",
          "type": "address"
        },
        {
          "internalType": "uint256",
          "name": "_tokenId",
          "type": "uint256"
        },
        {
          "internalType": "bytes",
          "name": "_data",
          "type": "bytes"
        }
      ],
      "name": "onERC721Received",
      "outputs": [
        {
          "internalType": "bytes4",
          "name": "",
          "type": "bytes4"
        }
      ],
      "stateMutability": "nonpayable",
      "type": "function"
    },
    {
      "inputs": [
        {
          "internalType": "address",
          "name": "_from",
          "type": "address"
        },
        {
          "internalType": "address",
          "name": "_to",
          "type": "address"
        },
        {
          "internalType": "uint256",
          "name": "_tokenId",
          "type": "uint256"
        }
      ],
      "name": "transferFrom",
      "outputs": [],
      "stateMutability": "payable",
      "type": "function",
      "payable": true
    },
    {
      "inputs": [
        {
          "internalType": "address",
          "name": "_from",
          "type": "address"
        },
        {
          "internalType": "address",
          "name": "_to",
          "type": "address"
        },
        {
          "internalType": "uint256",
          "name": "_tokenId",
          "type": "uint256"
        }
      ],
      "name": "safeTransferFrom",
      "outputs": [],
      "stateMutability": "payable",
      "type": "function",
      "payable": true
    },
    {
      "inputs": [
        {
          "internalType": "address",
          "name": "_from",
          "type": "address"
        },
        {
          "internalType": "address",
          "name": "_to",
          "type": "address"
        },
        {
          "internalType": "uint256",
          "name": "_tokenId",
          "type": "uint256"
        },
        {
          "internalType": "bytes",
          "name": "data",
          "type": "bytes"
        }
      ],
      "name": "safeTransferFrom",
      "outputs": [],
      "stateMutability": "payable",
      "type": "function",
      "payable": true
    },
    {
      "inputs": [],
      "name": "totalSupply",
      "outputs": [
        {
          "internalType": "uint256",
          "name": "",
          "type": "uint256"
        }
      ],
      "stateMutability": "view",
      "type": "function",
      "constant": true
    },
    {
      "inputs": [
        {
          "internalType": "uint256",
          "name": "_tokenId",
          "type": "uint256"
        }
      ],
      "name": "ownerOf",
      "outputs": [
        {
          "internalType": "address",
          "name": "",
          "type": "address"
        }
      ],
      "stateMutability": "view",
      "type": "function",
      "constant": true
    },
    {
      "inputs": [
        {
          "internalType": "uint256",
          "name": "_index",
          "type": "uint256"
        }
      ],
      "name": "tokenByIndex",
      "outputs": [
        {
          "internalType": "uint256",
          "name": "",
          "type": "uint256"
        }
      ],
      "stateMutability": "view",
      "type": "function",
      "constant": true
    },
    {
      "inputs": [
        {
          "internalType": "address",
          "name": "_owner",
          "type": "address"
        },
        {
          "internalType": "uint256",
          "name": "_index",
          "type": "uint256"
        }
      ],
      "name": "tokenOfOwnerByIndex",
      "outputs": [
        {
          "internalType": "uint256",
          "name": "_tokenId",
          "type": "uint256"
        }
      ],
      "stateMutability": "view",
      "type": "function",
      "constant": true
    },
    {
      "inputs": [
        {
          "internalType": "address",
          "name": "_owner",
          "type": "address"
        }
      ],
      "name": "balanceOf",
      "outputs": [
        {
          "internalType": "uint256",
          "name": "",
          "type": "uint256"
        }
      ],
      "stateMutability": "view",
      "type": "function",
      "constant": true
    },
    {
      "inputs": [
        {
          "internalType": "uint256",
          "name": "_type",
          "type": "uint256"
        }
      ],
      "name": "tokensOfType",
      "outputs": [
        {
          "internalType": "uint256",
          "name": "",
          "type": "uint256"
        }
      ],
      "stateMutability": "view",
      "type": "function",
      "constant": true
    },
    {
      "inputs": [
        {
          "internalType": "uint256",
          "name": "_type",
          "type": "uint256"
        },
        {
          "internalType": "uint256",
          "name": "_index",
          "type": "uint256"
        }
      ],
      "name": "tokenOfTypeByIndex",
      "outputs": [
        {
          "internalType": "uint256",
          "name": "_tokenId",
          "type": "uint256"
        }
      ],
      "stateMutability": "view",
      "type": "function",
      "constant": true
    },
    {
      "inputs": [
        {
          "internalType": "uint256",
          "name": "_tokenId",
          "type": "uint256"
        }
      ],
      "name": "tokenURI",
      "outputs": [
        {
          "internalType": "string",
          "name": "",
          "type": "string"
        }
      ],
      "stateMutability": "view",
      "type": "function",
      "constant": true
    },
    {
      "inputs": [
        {
          "internalType": "bytes4",
          "name": "interfaceID",
          "type": "bytes4"
        }
      ],
      "name": "supportsInterface",
      "outputs": [
        {
          "internalType": "bool",
          "name": "",
          "type": "bool"
        }
      ],
      "stateMutability": "pure",
      "type": "function",
      "constant": true
    },
    {
      "inputs": [
        {
          "internalType": "address",
          "name": "_to",
          "type": "address"
        },
        {
          "internalType": "uint256",
          "name": "_templateId",
          "type": "uint256"
        }
      ],
      "name": "createToken",
      "outputs": [],
      "stateMutability": "nonpayable",
      "type": "function"
    },
    {
      "inputs": [
        {
          "internalType": "address[]",
          "name": "_to",
          "type": "address[]"
        },
        {
          "internalType": "uint256",
          "name": "_templateId",
          "type": "uint256"
        }
      ],
      "name": "createTokens",
      "outputs": [],
      "stateMutability": "nonpayable",
      "type": "function"
    },
    {
      "inputs": [
        {
          "internalType": "uint256",
          "name": "_tokenId",
          "type": "uint256"
        }
      ],
      "name": "burnToken",
      "outputs": [],
      "stateMutability": "nonpayable",
      "type": "function"
    },
    {
      "inputs": [
        {
          "internalType": "string",
          "name": "_name",
          "type": "string"
        },
        {
          "internalType": "string",
          "name": "_cid",
          "type": "string"
        },
        {
          "internalType": "uint256",
          "name": "_managedBy",
          "type": "uint256"
        },
        {
          "internalType": "bool",
          "name": "_SelfMint",
          "type": "bool"
        },
        {
          "internalType": "bool",
          "name": "_SelfBurn",
          "type": "bool"
        },
        {
          "internalType": "bool",
          "name": "_AllowTransfer",
          "type": "bool"
        }
      ],
      "name": "CreateNewBadge",
      "outputs": [
        {
          "internalType": "uint256",
          "name": "",
          "type": "uint256"
        }
      ],
      "stateMutability": "nonpayable",
      "type": "function"
    },
    {
      "inputs": [
        {
          "internalType": "uint256",
          "name": "_templateid",
          "type": "uint256"
        },
        {
          "internalType": "string",
          "name": "_name",
          "type": "string"
        },
        {
          "internalType": "string",
          "name": "_cid",
          "type": "string"
        },
        {
          "internalType": "uint256",
          "name": "_managedBy",
          "type": "uint256"
        },
        {
          "internalType": "bool",
          "name": "_SelfMint",
          "type": "bool"
        },
        {
          "internalType": "bool",
          "name": "_SelfBurn",
          "type": "bool"
        },
        {
          "internalType": "bool",
          "name": "_AllowTransfer",
          "type": "bool"
        }
      ],
      "name": "UpdateBadge",
      "outputs": [],
      "stateMutability": "nonpayable",
      "type": "function"
    },
    {
      "inputs": [
        {
          "internalType": "uint256",
          "name": "_tokenId",
          "type": "uint256"
        }
      ],
      "name": "GetTemplateId",
      "outputs": [
        {
          "internalType": "uint256",
          "name": "",
          "type": "uint256"
        }
      ],
      "stateMutability": "view",
      "type": "function",
      "constant": true
    },
    {
      "inputs": [
        {
          "internalType": "uint256",
          "name": "_templateid",
          "type": "uint256"
        }
      ],
      "name": "GetTemplateInfo",
      "outputs": [
        {
          "components": [
            {
              "internalType": "string",
              "name": "name",
              "type": "string"
            },
            {
              "internalType": "string",
              "name": "cid",
              "type": "string"
            },
            {
              "internalType": "uint256",
              "name": "managedBy",
              "type": "uint256"
            },
            {
              "internalType": "bool",
              "name": "SelfMint",
              "type": "bool"
            },
            {
              "internalType": "bool",
              "name": "SelfBurn",
              "type": "bool"
            },
            {
              "internalType": "bool",
              "name": "AllowTransfer",
              "type": "bool"
            }
          ],
          "internalType": "struct KOIOSNFT.Template",
          "name": "",
          "type": "tuple"
        }
      ],
      "stateMutability": "view",
      "type": "function",
      "constant": true
    },
    {
      "inputs": [],
      "name": "nrTemplates",
      "outputs": [
        {
          "internalType": "uint256",
          "name": "",
          "type": "uint256"
        }
      ],
      "stateMutability": "view",
      "type": "function",
      "constant": true
    },
    {
      "inputs": [
        {
          "internalType": "string",
          "name": "_baseURI",
          "type": "string"
        }
      ],
      "name": "setBaseURI",
      "outputs": [],
      "stateMutability": "nonpayable",
      "type": "function"
    },
    {
      "inputs": [
        {
          "internalType": "string",
          "name": "_contractURI",
          "type": "string"
        }
      ],
      "name": "setContractURI",
      "outputs": [],
      "stateMutability": "nonpayable",
      "type": "function"
    },
    {
      "inputs": [],
      "name": "contractURI",
      "outputs": [
        {
          "internalType": "string",
          "name": "",
          "type": "string"
        }
      ],
      "stateMutability": "view",
      "type": "function",
      "constant": true
    },
    {
      "inputs": [],
      "name": "checkIsAdmin",
      "outputs": [
        {
          "internalType": "bool",
          "name": "",
          "type": "bool"
        }
      ],
      "stateMutability": "view",
      "type": "function",
      "constant": true
    },
    {
      "inputs": [],
      "name": "checkIsBadgeCreator",
      "outputs": [
        {
          "internalType": "bool",
          "name": "",
          "type": "bool"
        }
      ],
      "stateMutability": "view",
      "type": "function",
      "constant": true
    },
    {
      "inputs": [
        {
          "internalType": "uint256",
          "name": "_templateId",
          "type": "uint256"
        }
      ],
      "name": "checkMayCreate",
      "outputs": [
        {
          "internalType": "bool",
          "name": "",
          "type": "bool"
        }
      ],
      "stateMutability": "view",
      "type": "function",
      "constant": true
    },
    {
      "inputs": [],
      "name": "destroy",
      "outputs": [],
      "stateMutability": "nonpayable",
      "type": "function"
    }
  ],
  "bytecode": "0x608060405260006003553480156200001657600080fd5b506040516200492b3803806200492b83398181016040528101906200003c9190620001d3565b33600260006101000a81548173ffffffffffffffffffffffffffffffffffffffff021916908373ffffffffffffffffffffffffffffffffffffffff160217905550826000908051906020019062000095929190620000d1565b508160019080519060200190620000ae929190620000d1565b5080600e9080519060200190620000c7929190620000d1565b5050505062000305565b828054600181600116156101000203166002900490600052602060002090601f016020900481019282601f106200011457805160ff191683800117855562000145565b8280016001018555821562000145579182015b828111156200014457825182559160200191906001019062000127565b5b50905062000154919062000158565b5090565b5b808211156200017357600081600090555060010162000159565b5090565b600082601f8301126200018957600080fd5b8151620001a06200019a82620002a2565b62000274565b91508082526020830160208301858383011115620001bd57600080fd5b620001ca838284620002cf565b50505092915050565b600080600060608486031215620001e957600080fd5b600084015167ffffffffffffffff8111156200020457600080fd5b620002128682870162000177565b935050602084015167ffffffffffffffff8111156200023057600080fd5b6200023e8682870162000177565b925050604084015167ffffffffffffffff8111156200025c57600080fd5b6200026a8682870162000177565b9150509250925092565b6000604051905081810181811067ffffffffffffffff821117156200029857600080fd5b8060405250919050565b600067ffffffffffffffff821115620002ba57600080fd5b601f19601f8301169050602081019050919050565b60005b83811015620002ef578082015181840152602081019050620002d2565b83811115620002ff576000848401525b50505050565b61461680620003156000396000f3fe6080604052600436106102ae5760003560e01c806370a08231116101755780639e8d994a116100dc578063c57ac5d611610095578063e5956a191161006f578063e5956a1914610b86578063e8a3d48514610bc3578063f851a44014610bee578063f91108c814610c19576102ae565b8063c57ac5d614610acf578063c87b56dd14610b0c578063e149f03614610b49576102ae565b80639e8d994a14610991578063a0eb027a146109ce578063b88d4fde14610a0b578063bc52565214610a27578063bfacd7e814610a69578063c194ba3114610aa6576102ae565b806387d40a701161012e57806387d40a701461086d5780638b75ccc9146108985780638c476c24146108c3578063938e3d7b1461090057806395cb25741461092957806395d89b4114610966576102ae565b806370a082311461075d57806374e243671461079a5780637b47ec1a146107d757806383197ef01461080057806383e6ed5a14610817578063864039de14610842576102ae565b806342842e0e1161021957806361bc221a116101d257806361bc221a14610627578063620de08b14610652578063634282af1461068f5780636352211e146106cc5780636a10d4d6146107095780636fb0518e14610732576102ae565b806342842e0e1461050057806342d8edea1461051c57806344fd706a146105595780634da7a043146105845780634f6ccce7146105c157806355f804b3146105fe576102ae565b80631f9f5a391161026b5780631f9f5a39146103d757806323b872dd1461041457806326f18fa3146104305780632edd26741461045b5780632f745c591461049857806338cc6071146104d5576102ae565b806301ffc9a7146102b35780630693518d146102f057806306fdde03146103195780630fb7e43314610344578063150b7a021461036f57806318160ddd146103ac575b600080fd5b3480156102bf57600080fd5b506102da60048036038101906102d591906139a3565b610c44565b6040516102e7919061415b565b60405180910390f35b3480156102fc57600080fd5b506103176004803603810190610312919061394f565b610d44565b005b34801561032557600080fd5b5061032e610f7b565b60405161033b91906141b3565b60405180910390f35b34801561035057600080fd5b50610359611019565b6040516103669190614326565b60405180910390f35b34801561037b57600080fd5b5061039660048036038101906103919190613898565b61101e565b6040516103a39190614176565b60405180910390f35b3480156103b857600080fd5b506103c16110d2565b6040516103ce9190614326565b60405180910390f35b3480156103e357600080fd5b506103fe60048036038101906103f99190613aef565b6110df565b60405161040b9190614326565b60405180910390f35b61042e60048036038101906104299190613849565b6110fc565b005b34801561043c57600080fd5b506104456111fa565b6040516104529190614326565b60405180910390f35b34801561046757600080fd5b50610482600480360381019061047d9190613be6565b611207565b60405161048f9190614326565b60405180910390f35b3480156104a457600080fd5b506104bf60048036038101906104ba9190613913565b611235565b6040516104cc9190614326565b60405180910390f35b3480156104e157600080fd5b506104ea6112e2565b6040516104f79190614326565b60405180910390f35b61051a60048036038101906105159190613849565b6112e8565b005b34801561052857600080fd5b50610543600480360381019061053e9190613aef565b6114d6565b6040516105509190614326565b60405180910390f35b34801561056557600080fd5b5061056e6114ee565b60405161057b91906140aa565b60405180910390f35b34801561059057600080fd5b506105ab60048036038101906105a69190613aef565b611514565b6040516105b89190614326565b60405180910390f35b3480156105cd57600080fd5b506105e860048036038101906105e39190613aef565b61152c565b6040516105f59190614326565b60405180910390f35b34801561060a57600080fd5b50610625600480360381019061062091906139f5565b61155e565b005b34801561063357600080fd5b5061063c611664565b6040516106499190614326565b60405180910390f35b34801561065e57600080fd5b5061067960048036038101906106749190613913565b61166a565b6040516106869190614326565b60405180910390f35b34801561069b57600080fd5b506106b660048036038101906106b19190613aef565b61168f565b6040516106c39190614326565b60405180910390f35b3480156106d857600080fd5b506106f360048036038101906106ee9190613aef565b6116b0565b60405161070091906140aa565b60405180910390f35b34801561071557600080fd5b50610730600480360381019061072b9190613913565b611746565b005b34801561073e57600080fd5b50610747611a42565b6040516107549190614326565b60405180910390f35b34801561076957600080fd5b50610784600480360381019061077f9190613820565b611a47565b6040516107919190614326565b60405180910390f35b3480156107a657600080fd5b506107c160048036038101906107bc9190613aef565b611ab6565b6040516107ce9190614326565b60405180910390f35b3480156107e357600080fd5b506107fe60048036038101906107f99190613aef565b611ace565b005b34801561080c57600080fd5b50610815611d5e565b005b34801561082357600080fd5b5061082c611e07565b6040516108399190614326565b60405180910390f35b34801561084e57600080fd5b50610857611e0c565b604051610864919061415b565b60405180910390f35b34801561087957600080fd5b50610882611f1c565b60405161088f9190614191565b60405180910390f35b3480156108a457600080fd5b506108ad611fba565b6040516108ba919061415b565b60405180910390f35b3480156108cf57600080fd5b506108ea60048036038101906108e59190613a36565b61206e565b6040516108f79190614326565b60405180910390f35b34801561090c57600080fd5b50610927600480360381019061092291906139f5565b612346565b005b34801561093557600080fd5b50610950600480360381019061094b9190613aef565b61244c565b60405161095d9190614304565b60405180910390f35b34801561097257600080fd5b5061097b612620565b60405161098891906141b3565b60405180910390f35b34801561099d57600080fd5b506109b860048036038101906109b39190613aef565b6126be565b6040516109c5919061415b565b60405180910390f35b3480156109da57600080fd5b506109f560048036038101906109f09190613be6565b6127ed565b604051610a029190614326565b60405180910390f35b610a256004803603810190610a209190613898565b612842565b005b348015610a3357600080fd5b50610a4e6004803603810190610a499190613aef565b612a33565b604051610a60969594939291906141d5565b60405180910390f35b348015610a7557600080fd5b50610a906004803603810190610a8b9190613aef565b612bd3565b604051610a9d9190614326565b60405180910390f35b348015610ab257600080fd5b50610acd6004803603810190610ac89190613b18565b612beb565b005b348015610adb57600080fd5b50610af66004803603810190610af19190613aef565b612dd5565b604051610b0391906140aa565b60405180910390f35b348015610b1857600080fd5b50610b336004803603810190610b2e9190613aef565b612e08565b604051610b4091906141b3565b60405180910390f35b348015610b5557600080fd5b50610b706004803603810190610b6b9190613913565b612e6a565b604051610b7d9190614326565b60405180910390f35b348015610b9257600080fd5b50610bad6004803603810190610ba89190613aef565b612e98565b604051610bba9190614326565b60405180910390f35b348015610bcf57600080fd5b50610bd8612eb8565b604051610be591906141b3565b60405180910390f35b348015610bfa57600080fd5b50610c03612f5a565b604051610c1091906140aa565b60405180910390f35b348015610c2557600080fd5b50610c2e612f80565b604051610c3b91906140aa565b60405180910390f35b60006380ac58cd60e01b7bffffffffffffffffffffffffffffffffffffffffffffffffffffffff1916827bffffffffffffffffffffffffffffffffffffffffffffffffffffffff19161480610cdd5750635b5e139f60e01b7bffffffffffffffffffffffffffffffffffffffffffffffffffffffff1916827bffffffffffffffffffffffffffffffffffffffffffffffffffffffff1916145b80610d2c575063780e9d6360e01b7bffffffffffffffffffffffffffffffffffffffffffffffffffffffff1916827bffffffffffffffffffffffffffffffffffffffffffffffffffffffff1916145b15610d3a5760019050610d3f565b600090505b919050565b80600260009054906101000a900473ffffffffffffffffffffffffffffffffffffffff1673ffffffffffffffffffffffffffffffffffffffff163373ffffffffffffffffffffffffffffffffffffffff161480610df257506000600c60003373ffffffffffffffffffffffffffffffffffffffff1673ffffffffffffffffffffffffffffffffffffffff16815260200190815260200160002060006001815260200190815260200160002054115b80610e4e57506000600c60003373ffffffffffffffffffffffffffffffffffffffff1673ffffffffffffffffffffffffffffffffffffffff16815260200190815260200160002060006002815260200190815260200160002054115b80610e815750600d8181548110610e6157fe5b906000526020600020906004020160030160009054906101000a900460ff165b80610efa57506000600c60003373ffffffffffffffffffffffffffffffffffffffff1673ffffffffffffffffffffffffffffffffffffffff1681526020019081526020016000206000600d8481548110610ed757fe5b906000526020600020906004020160020154815260200190815260200160002054115b610f39576040517f08c379a0000000000000000000000000000000000000000000000000000000008152600401610f30906142a4565b60405180910390fd5b60008351905060005b81811015610f7457610f67858281518110610f5957fe5b602002602001015185611746565b8080600101915050610f42565b5050505050565b60008054600181600116156101000203166002900480601f0160208091040260200160405190810160405280929190818152602001828054600181600116156101000203166002900480156110115780601f10610fe657610100808354040283529160200191611011565b820191906000526020600020905b815481529060010190602001808311610ff457829003601f168201915b505050505081565b600081565b600084601060006101000a81548173ffffffffffffffffffffffffffffffffffffffff021916908373ffffffffffffffffffffffffffffffffffffffff16021790555083601160006101000a81548173ffffffffffffffffffffffffffffffffffffffff021916908373ffffffffffffffffffffffffffffffffffffffff1602179055508260128190555081601390805190602001906110bf929190613533565b5063150b7a0260e01b9050949350505050565b6000600480549050905090565b600060096000838152602001908152602001600020549050919050565b8060006008600083815260200190815260200160002060009054906101000a900473ffffffffffffffffffffffffffffffffffffffff1673ffffffffffffffffffffffffffffffffffffffff16141561115457600080fd5b8383838273ffffffffffffffffffffffffffffffffffffffff166008600083815260200190815260200160002060009054906101000a900473ffffffffffffffffffffffffffffffffffffffff1673ffffffffffffffffffffffffffffffffffffffff16146111c257600080fd5b60008273ffffffffffffffffffffffffffffffffffffffff1614156111e657600080fd5b6111f1878787612fa6565b50505050505050565b6000600d80549050905090565b600a602052816000526040600020818154811061122057fe5b90600052602060002001600091509150505481565b6000600660008473ffffffffffffffffffffffffffffffffffffffff1673ffffffffffffffffffffffffffffffffffffffff16815260200190815260200160002080549050821061128557600080fd5b600660008473ffffffffffffffffffffffffffffffffffffffff1673ffffffffffffffffffffffffffffffffffffffff16815260200190815260200160002082815481106112cf57fe5b9060005260206000200154905092915050565b60125481565b8060006008600083815260200190815260200160002060009054906101000a900473ffffffffffffffffffffffffffffffffffffffff1673ffffffffffffffffffffffffffffffffffffffff16141561134057600080fd5b8383838273ffffffffffffffffffffffffffffffffffffffff166008600083815260200190815260200160002060009054906101000a900473ffffffffffffffffffffffffffffffffffffffff1673ffffffffffffffffffffffffffffffffffffffff16146113ae57600080fd5b60008273ffffffffffffffffffffffffffffffffffffffff1614156113d257600080fd5b6113dd878787612fa6565b6000863b905060008111156114cc5763150b7a0260e01b7bffffffffffffffffffffffffffffffffffffffffffffffffffffffff19168773ffffffffffffffffffffffffffffffffffffffff1663150b7a02338b8a6040518463ffffffff1660e01b815260040161145093929190614111565b602060405180830381600087803b15801561146a57600080fd5b505af115801561147e573d6000803e3d6000fd5b505050506040513d601f19601f820116820180604052508101906114a291906139cc565b7bffffffffffffffffffffffffffffffffffffffffffffffffffffffff1916146114cb57600080fd5b5b5050505050505050565b60056020528060005260406000206000915090505481565b601060009054906101000a900473ffffffffffffffffffffffffffffffffffffffff1681565b600b6020528060005260406000206000915090505481565b6000600480549050821061153f57600080fd5b6004828154811061154c57fe5b90600052602060002001549050919050565b600260009054906101000a900473ffffffffffffffffffffffffffffffffffffffff1673ffffffffffffffffffffffffffffffffffffffff163373ffffffffffffffffffffffffffffffffffffffff16148061160b57506000600c60003373ffffffffffffffffffffffffffffffffffffffff1673ffffffffffffffffffffffffffffffffffffffff16815260200190815260200160002060006001815260200190815260200160002054115b61164a576040517f08c379a0000000000000000000000000000000000000000000000000000000008152600401611641906142e4565b60405180910390fd5b80600e90805190602001906116609291906135b3565b5050565b60035481565b600c602052816000526040600020602052806000526040600020600091509150505481565b6004818154811061169c57fe5b906000526020600020016000915090505481565b60008160006008600083815260200190815260200160002060009054906101000a900473ffffffffffffffffffffffffffffffffffffffff1673ffffffffffffffffffffffffffffffffffffffff16141561170a57600080fd5b6008600084815260200190815260200160002060009054906101000a900473ffffffffffffffffffffffffffffffffffffffff16915050919050565b80600260009054906101000a900473ffffffffffffffffffffffffffffffffffffffff1673ffffffffffffffffffffffffffffffffffffffff163373ffffffffffffffffffffffffffffffffffffffff1614806117f457506000600c60003373ffffffffffffffffffffffffffffffffffffffff1673ffffffffffffffffffffffffffffffffffffffff16815260200190815260200160002060006001815260200190815260200160002054115b8061185057506000600c60003373ffffffffffffffffffffffffffffffffffffffff1673ffffffffffffffffffffffffffffffffffffffff16815260200190815260200160002060006002815260200190815260200160002054115b806118835750600d818154811061186357fe5b906000526020600020906004020160030160009054906101000a900460ff165b806118fc57506000600c60003373ffffffffffffffffffffffffffffffffffffffff1673ffffffffffffffffffffffffffffffffffffffff1681526020019081526020016000206000600d84815481106118d957fe5b906000526020600020906004020160020154815260200190815260200160002054115b61193b576040517f08c379a0000000000000000000000000000000000000000000000000000000008152600401611932906142a4565b60405180910390fd5b8160096000600354815260200190815260200160002081905550600a600083815260200190815260200160002060035490806001815401808255809150506001900390600052602060002001600090919091909150556001600a60008481526020019081526020016000208054905003600b6000848152602001908152602001600020819055506119ce8360035461301a565b6003548373ffffffffffffffffffffffffffffffffffffffff16600073ffffffffffffffffffffffffffffffffffffffff167fddf252ad1be2c89b69c2b068fc378daa952ba7f163c4a11628f55a4df523b3ef60405160405180910390a46001600360008282540192505081905550505050565b600181565b6000808273ffffffffffffffffffffffffffffffffffffffff161415611a6c57600080fd5b600660008373ffffffffffffffffffffffffffffffffffffffff1673ffffffffffffffffffffffffffffffffffffffff168152602001908152602001600020805490509050919050565b60076020528060005260406000206000915090505481565b3373ffffffffffffffffffffffffffffffffffffffff166008600083815260200190815260200160002060009054906101000a900473ffffffffffffffffffffffffffffffffffffffff1673ffffffffffffffffffffffffffffffffffffffff1614611b6f576040517f08c379a0000000000000000000000000000000000000000000000000000000008152600401611b6690614264565b60405180910390fd5b600060096000838152602001908152602001600020549050600d8181548110611b9457fe5b906000526020600020906004020160030160019054906101000a900460ff16611bf2576040517f08c379a0000000000000000000000000000000000000000000000000000000008152600401611be990614284565b60405180910390fd5b6000600b60008481526020019081526020016000205490506000600a6000848152602001908152602001600020805490509050600a60008481526020019081526020016000206001820381548110611c4657fe5b9060005260206000200154600a60008581526020019081526020016000208381548110611c6f57fe5b906000526020600020018190555081600b6000600a60008781526020019081526020016000206001850381548110611ca357fe5b9060005260206000200154815260200190815260200160002081905550600a6000848152602001908152602001600020805480611cdc57fe5b60019003818190600052602060002001600090559055611cfc33856131f5565b83600073ffffffffffffffffffffffffffffffffffffffff163373ffffffffffffffffffffffffffffffffffffffff167fddf252ad1be2c89b69c2b068fc378daa952ba7f163c4a11628f55a4df523b3ef60405160405180910390a450505050565b600260009054906101000a900473ffffffffffffffffffffffffffffffffffffffff1673ffffffffffffffffffffffffffffffffffffffff163373ffffffffffffffffffffffffffffffffffffffff1614611dee576040517f08c379a0000000000000000000000000000000000000000000000000000000008152600401611de5906142c4565b60405180910390fd5b3373ffffffffffffffffffffffffffffffffffffffff16ff5b600281565b6000600260009054906101000a900473ffffffffffffffffffffffffffffffffffffffff1673ffffffffffffffffffffffffffffffffffffffff163373ffffffffffffffffffffffffffffffffffffffff161480611ebb57506000600c60003373ffffffffffffffffffffffffffffffffffffffff1673ffffffffffffffffffffffffffffffffffffffff16815260200190815260200160002060006001815260200190815260200160002054115b80611f1757506000600c60003373ffffffffffffffffffffffffffffffffffffffff1673ffffffffffffffffffffffffffffffffffffffff16815260200190815260200160002060006002815260200190815260200160002054115b905090565b60138054600181600116156101000203166002900480601f016020809104026020016040519081016040528092919081815260200182805460018160011615610100020316600290048015611fb25780601f10611f8757610100808354040283529160200191611fb2565b820191906000526020600020905b815481529060010190602001808311611f9557829003601f168201915b505050505081565b6000600260009054906101000a900473ffffffffffffffffffffffffffffffffffffffff1673ffffffffffffffffffffffffffffffffffffffff163373ffffffffffffffffffffffffffffffffffffffff16148061206957506000600c60003373ffffffffffffffffffffffffffffffffffffffff1673ffffffffffffffffffffffffffffffffffffffff16815260200190815260200160002060006001815260200190815260200160002054115b905090565b6000600260009054906101000a900473ffffffffffffffffffffffffffffffffffffffff1673ffffffffffffffffffffffffffffffffffffffff163373ffffffffffffffffffffffffffffffffffffffff16148061211d57506000600c60003373ffffffffffffffffffffffffffffffffffffffff1673ffffffffffffffffffffffffffffffffffffffff16815260200190815260200160002060006001815260200190815260200160002054115b8061217957506000600c60003373ffffffffffffffffffffffffffffffffffffffff1673ffffffffffffffffffffffffffffffffffffffff16815260200190815260200160002060006002815260200190815260200160002054115b6121b8576040517f08c379a00000000000000000000000000000000000000000000000000000000081526004016121af90614244565b60405180910390fd5b600d6040518060c0016040528089815260200188815260200187815260200186151581526020018515158152602001841515815250908060018154018082558091505060019003906000526020600020906004020160009091909190915060008201518160000190805190602001906122329291906135b3565b50602082015181600101908051906020019061224f9291906135b3565b506040820151816002015560608201518160030160006101000a81548160ff02191690831515021790555060808201518160030160016101000a81548160ff02191690831515021790555060a08201518160030160026101000a81548160ff02191690831515021790555050506122f0600260009054906101000a900473ffffffffffffffffffffffffffffffffffffffff166001600d8054905003611746565b7f46beb6b91724233777b2403033beabc2d79994bcc50d854fa1bbb9e6b56b59026001600d805490500388604051612329929190614341565b60405180910390a16001600d805490500390509695505050505050565b600260009054906101000a900473ffffffffffffffffffffffffffffffffffffffff1673ffffffffffffffffffffffffffffffffffffffff163373ffffffffffffffffffffffffffffffffffffffff1614806123f357506000600c60003373ffffffffffffffffffffffffffffffffffffffff1673ffffffffffffffffffffffffffffffffffffffff16815260200190815260200160002060006001815260200190815260200160002054115b612432576040517f08c379a0000000000000000000000000000000000000000000000000000000008152600401612429906142e4565b60405180910390fd5b80600f90805190602001906124489291906135b3565b5050565b612454613633565b600d828154811061246157fe5b90600052602060002090600402016040518060c0016040529081600082018054600181600116156101000203166002900480601f0160208091040260200160405190810160405280929190818152602001828054600181600116156101000203166002900480156125135780601f106124e857610100808354040283529160200191612513565b820191906000526020600020905b8154815290600101906020018083116124f657829003601f168201915b50505050508152602001600182018054600181600116156101000203166002900480601f0160208091040260200160405190810160405280929190818152602001828054600181600116156101000203166002900480156125b55780601f1061258a576101008083540402835291602001916125b5565b820191906000526020600020905b81548152906001019060200180831161259857829003601f168201915b50505050508152602001600282015481526020016003820160009054906101000a900460ff161515151581526020016003820160019054906101000a900460ff161515151581526020016003820160029054906101000a900460ff1615151515815250509050919050565b60018054600181600116156101000203166002900480601f0160208091040260200160405190810160405280929190818152602001828054600181600116156101000203166002900480156126b65780601f1061268b576101008083540402835291602001916126b6565b820191906000526020600020905b81548152906001019060200180831161269957829003601f168201915b505050505081565b6000600260009054906101000a900473ffffffffffffffffffffffffffffffffffffffff1673ffffffffffffffffffffffffffffffffffffffff163373ffffffffffffffffffffffffffffffffffffffff16148061276d57506000600c60003373ffffffffffffffffffffffffffffffffffffffff1673ffffffffffffffffffffffffffffffffffffffff16815260200190815260200160002060006001815260200190815260200160002054115b806127e657506000600c60003373ffffffffffffffffffffffffffffffffffffffff1673ffffffffffffffffffffffffffffffffffffffff1681526020019081526020016000206000600d85815481106127c357fe5b906000526020600020906004020160020154815260200190815260200160002054115b9050919050565b6000600a600084815260200190815260200160002080549050821061281157600080fd5b600a6000848152602001908152602001600020828154811061282f57fe5b9060005260206000200154905092915050565b8160006008600083815260200190815260200160002060009054906101000a900473ffffffffffffffffffffffffffffffffffffffff1673ffffffffffffffffffffffffffffffffffffffff16141561289a57600080fd5b8484848273ffffffffffffffffffffffffffffffffffffffff166008600083815260200190815260200160002060009054906101000a900473ffffffffffffffffffffffffffffffffffffffff1673ffffffffffffffffffffffffffffffffffffffff161461290857600080fd5b60008273ffffffffffffffffffffffffffffffffffffffff16141561292c57600080fd5b612937888888612fa6565b6000873b90506000811115612a285763150b7a0260e01b7bffffffffffffffffffffffffffffffffffffffffffffffffffffffff19168873ffffffffffffffffffffffffffffffffffffffff1663150b7a02338c8b8b6040518563ffffffff1660e01b81526004016129ac94939291906140c5565b602060405180830381600087803b1580156129c657600080fd5b505af11580156129da573d6000803e3d6000fd5b505050506040513d601f19601f820116820180604052508101906129fe91906139cc565b7bffffffffffffffffffffffffffffffffffffffffffffffffffffffff191614612a2757600080fd5b5b505050505050505050565b600d8181548110612a4057fe5b9060005260206000209060040201600091509050806000018054600181600116156101000203166002900480601f016020809104026020016040519081016040528092919081815260200182805460018160011615610100020316600290048015612aec5780601f10612ac157610100808354040283529160200191612aec565b820191906000526020600020905b815481529060010190602001808311612acf57829003601f168201915b505050505090806001018054600181600116156101000203166002900480601f016020809104026020016040519081016040528092919081815260200182805460018160011615610100020316600290048015612b8a5780601f10612b5f57610100808354040283529160200191612b8a565b820191906000526020600020905b815481529060010190602001808311612b6d57829003601f168201915b5050505050908060020154908060030160009054906101000a900460ff16908060030160019054906101000a900460ff16908060030160029054906101000a900460ff16905086565b60096020528060005260406000206000915090505481565b600260009054906101000a900473ffffffffffffffffffffffffffffffffffffffff1673ffffffffffffffffffffffffffffffffffffffff163373ffffffffffffffffffffffffffffffffffffffff161480612c9857506000600c60003373ffffffffffffffffffffffffffffffffffffffff1673ffffffffffffffffffffffffffffffffffffffff16815260200190815260200160002060006001815260200190815260200160002054115b612cd7576040517f08c379a0000000000000000000000000000000000000000000000000000000008152600401612cce906142e4565b60405180910390fd5b6040518060c0016040528087815260200186815260200185815260200184151581526020018315158152602001821515815250600d8881548110612d1757fe5b90600052602060002090600402016000820151816000019080519060200190612d419291906135b3565b506020820151816001019080519060200190612d5e9291906135b3565b506040820151816002015560608201518160030160006101000a81548160ff02191690831515021790555060808201518160030160016101000a81548160ff02191690831515021790555060a08201518160030160026101000a81548160ff02191690831515021790555090505050505050505050565b60086020528060005260406000206000915054906101000a900473ffffffffffffffffffffffffffffffffffffffff1681565b6060600060096000848152602001908152602001600020549050600e600d8281548110612e3157fe5b9060005260206000209060040201600101604051602001612e53929190614086565b604051602081830303815290604052915050919050565b60066020528160005260406000208181548110612e8357fe5b90600052602060002001600091509150505481565b6000600a6000838152602001908152602001600020805490509050919050565b6060600f8054600181600116156101000203166002900480601f016020809104026020016040519081016040528092919081815260200182805460018160011615610100020316600290048015612f505780601f10612f2557610100808354040283529160200191612f50565b820191906000526020600020905b815481529060010190602001808311612f3357829003601f168201915b5050505050905090565b600260009054906101000a900473ffffffffffffffffffffffffffffffffffffffff1681565b601160009054906101000a900473ffffffffffffffffffffffffffffffffffffffff1681565b612fb083826131f5565b612fba828261301a565b808273ffffffffffffffffffffffffffffffffffffffff168473ffffffffffffffffffffffffffffffffffffffff167fddf252ad1be2c89b69c2b068fc378daa952ba7f163c4a11628f55a4df523b3ef60405160405180910390a4505050565b60048190806001815401808255809150506001900390600052602060002001600090919091909150556001600480549050036005600083815260200190815260200160002081905550816008600083815260200190815260200160002060006101000a81548173ffffffffffffffffffffffffffffffffffffffff021916908373ffffffffffffffffffffffffffffffffffffffff160217905550600660008373ffffffffffffffffffffffffffffffffffffffff1673ffffffffffffffffffffffffffffffffffffffff1681526020019081526020016000208190806001815401808255809150506001900390600052602060002001600090919091909150556001600660008473ffffffffffffffffffffffffffffffffffffffff1673ffffffffffffffffffffffffffffffffffffffff16815260200190815260200160002080549050036007600083815260200190815260200160002081905550600060096000838152602001908152602001600020549050600c60008473ffffffffffffffffffffffffffffffffffffffff1673ffffffffffffffffffffffffffffffffffffffff168152602001908152602001600020600082815260200190815260200160002060008154809291906001019190505550505050565b600060056000838152602001908152602001600020549050600060048054905090506004600182038154811061322757fe5b90600052602060002001546004838154811061323f57fe5b906000526020600020018190555081600560006004600185038154811061326257fe5b9060005260206000200154815260200190815260200160002081905550600480548061328a57fe5b600190038181906000526020600020016000905590556000600760008581526020019081526020016000205490506000600660008773ffffffffffffffffffffffffffffffffffffffff1673ffffffffffffffffffffffffffffffffffffffff168152602001908152602001600020805490509050600660008773ffffffffffffffffffffffffffffffffffffffff1673ffffffffffffffffffffffffffffffffffffffff168152602001908152602001600020600182038154811061334c57fe5b9060005260206000200154600660008873ffffffffffffffffffffffffffffffffffffffff1673ffffffffffffffffffffffffffffffffffffffff16815260200190815260200160002083815481106133a157fe5b90600052602060002001819055508160076000600660008a73ffffffffffffffffffffffffffffffffffffffff1673ffffffffffffffffffffffffffffffffffffffff168152602001908152602001600020600185038154811061340157fe5b9060005260206000200154815260200190815260200160002081905550600660008773ffffffffffffffffffffffffffffffffffffffff1673ffffffffffffffffffffffffffffffffffffffff16815260200190815260200160002080548061346657fe5b60019003818190600052602060002001600090559055600060096000878152602001908152602001600020549050600c60008873ffffffffffffffffffffffffffffffffffffffff1673ffffffffffffffffffffffffffffffffffffffff1681526020019081526020016000206000828152602001908152602001600020600081548092919060010191905055506008600087815260200190815260200160002060006101000a81549073ffffffffffffffffffffffffffffffffffffffff021916905550505050505050565b828054600181600116156101000203166002900490600052602060002090601f016020900481019282601f1061357457805160ff19168380011785556135a2565b828001600101855582156135a2579182015b828111156135a1578251825591602001919060010190613586565b5b5090506135af919061366f565b5090565b828054600181600116156101000203166002900490600052602060002090601f016020900481019282601f106135f457805160ff1916838001178555613622565b82800160010185558215613622579182015b82811115613621578251825591602001919060010190613606565b5b50905061362f919061366f565b5090565b6040518060c001604052806060815260200160608152602001600081526020016000151581526020016000151581526020016000151581525090565b5b80821115613688576000816000905550600101613670565b5090565b60008135905061369b81614584565b92915050565b600082601f8301126136b257600080fd5b81356136c56136c08261439e565b614371565b915081818352602084019350602081019050838560208402820111156136ea57600080fd5b60005b8381101561371a5781613700888261368c565b8452602084019350602083019250506001810190506136ed565b5050505092915050565b6000813590506137338161459b565b92915050565b600081359050613748816145b2565b92915050565b60008151905061375d816145b2565b92915050565b600082601f83011261377457600080fd5b8135613787613782826143c6565b614371565b915080825260208301602083018583830111156137a357600080fd5b6137ae838284614531565b50505092915050565b600082601f8301126137c857600080fd5b81356137db6137d6826143f2565b614371565b915080825260208301602083018583830111156137f757600080fd5b613802838284614531565b50505092915050565b60008135905061381a816145c9565b92915050565b60006020828403121561383257600080fd5b60006138408482850161368c565b91505092915050565b60008060006060848603121561385e57600080fd5b600061386c8682870161368c565b935050602061387d8682870161368c565b925050604061388e8682870161380b565b9150509250925092565b600080600080608085870312156138ae57600080fd5b60006138bc8782880161368c565b94505060206138cd8782880161368c565b93505060406138de8782880161380b565b925050606085013567ffffffffffffffff8111156138fb57600080fd5b61390787828801613763565b91505092959194509250565b6000806040838503121561392657600080fd5b60006139348582860161368c565b92505060206139458582860161380b565b9150509250929050565b6000806040838503121561396257600080fd5b600083013567ffffffffffffffff81111561397c57600080fd5b613988858286016136a1565b92505060206139998582860161380b565b9150509250929050565b6000602082840312156139b557600080fd5b60006139c384828501613739565b91505092915050565b6000602082840312156139de57600080fd5b60006139ec8482850161374e565b91505092915050565b600060208284031215613a0757600080fd5b600082013567ffffffffffffffff811115613a2157600080fd5b613a2d848285016137b7565b91505092915050565b60008060008060008060c08789031215613a4f57600080fd5b600087013567ffffffffffffffff811115613a6957600080fd5b613a7589828a016137b7565b965050602087013567ffffffffffffffff811115613a9257600080fd5b613a9e89828a016137b7565b9550506040613aaf89828a0161380b565b9450506060613ac089828a01613724565b9350506080613ad189828a01613724565b92505060a0613ae289828a01613724565b9150509295509295509295565b600060208284031215613b0157600080fd5b6000613b0f8482850161380b565b91505092915050565b600080600080600080600060e0888a031215613b3357600080fd5b6000613b418a828b0161380b565b975050602088013567ffffffffffffffff811115613b5e57600080fd5b613b6a8a828b016137b7565b965050604088013567ffffffffffffffff811115613b8757600080fd5b613b938a828b016137b7565b9550506060613ba48a828b0161380b565b9450506080613bb58a828b01613724565b93505060a0613bc68a828b01613724565b92505060c0613bd78a828b01613724565b91505092959891949750929550565b60008060408385031215613bf957600080fd5b6000613c078582860161380b565b9250506020613c188582860161380b565b9150509250929050565b613c2b816144fb565b82525050565b613c3a81614487565b82525050565b613c4981614499565b82525050565b613c5881614499565b82525050565b613c67816144a5565b82525050565b6000613c7882614433565b613c828185614449565b9350613c92818560208601614540565b613c9b81614573565b840191505092915050565b6000613cb18261443e565b613cbb818561445a565b9350613ccb818560208601614540565b613cd481614573565b840191505092915050565b6000613cea8261443e565b613cf4818561446b565b9350613d04818560208601614540565b613d0d81614573565b840191505092915050565b600081546001811660008114613d355760018114613d5a57613d9e565b607f6002830416613d46818761447c565b955060ff1983168652808601935050613d9e565b60028204613d68818761447c565b9550613d738561441e565b60005b82811015613d9557815481890152600182019150602081019050613d76565b82880195505050505b505092915050565b6000613db360268361446b565b91507f4d75737420686176652061646d696e206f722062616467652063726561746f7260008301527f20726f6c652000000000000000000000000000000000000000000000000000006020830152604082019050919050565b6000613e1960238361446b565b91507f546f6b656e2073686f756c6420626520696e20636f6e74726f6c206f66206f7760008301527f6e657200000000000000000000000000000000000000000000000000000000006020830152604082019050919050565b6000613e7f600c8361446b565b91507f4d6179206e6f74206275726e00000000000000000000000000000000000000006000830152602082019050919050565b6000613ebf603b8361446b565b91507f4d75737420686176652061646d696e2c20626164676563726561746f72206f7260008301527f206d616e6167657220726f6c6520666f722074686520626164676500000000006020830152604082019050919050565b6000613f25600083614449565b9150600082019050919050565b6000613f3f60188361446b565b91507f4d7573742062652061646d696e20746f2064657374726f7900000000000000006000830152602082019050919050565b6000613f7f60248361446b565b91507f4d75737420686176652061646d696e20726f6c6520746f20637265617465207460008301527f6f6b656e000000000000000000000000000000000000000000000000000000006020830152604082019050919050565b600060c0830160008301518482036000860152613ff58282613ca6565b9150506020830151848203602086015261400f8282613ca6565b91505060408301516140246040860182614068565b5060608301516140376060860182613c40565b50608083015161404a6080860182613c40565b5060a083015161405d60a0860182613c40565b508091505092915050565b614071816144f1565b82525050565b614080816144f1565b82525050565b60006140928285613d18565b915061409e8284613d18565b91508190509392505050565b60006020820190506140bf6000830184613c31565b92915050565b60006080820190506140da6000830187613c22565b6140e76020830186613c31565b6140f46040830185614077565b81810360608301526141068184613c6d565b905095945050505050565b60006080820190506141266000830186613c22565b6141336020830185613c31565b6141406040830184614077565b818103606083015261415181613f18565b9050949350505050565b60006020820190506141706000830184613c4f565b92915050565b600060208201905061418b6000830184613c5e565b92915050565b600060208201905081810360008301526141ab8184613c6d565b905092915050565b600060208201905081810360008301526141cd8184613cdf565b905092915050565b600060c08201905081810360008301526141ef8189613cdf565b905081810360208301526142038188613cdf565b90506142126040830187614077565b61421f6060830186613c4f565b61422c6080830185613c4f565b61423960a0830184613c4f565b979650505050505050565b6000602082019050818103600083015261425d81613da6565b9050919050565b6000602082019050818103600083015261427d81613e0c565b9050919050565b6000602082019050818103600083015261429d81613e72565b9050919050565b600060208201905081810360008301526142bd81613eb2565b9050919050565b600060208201905081810360008301526142dd81613f32565b9050919050565b600060208201905081810360008301526142fd81613f72565b9050919050565b6000602082019050818103600083015261431e8184613fd8565b905092915050565b600060208201905061433b6000830184614077565b92915050565b60006040820190506143566000830185614077565b81810360208301526143688184613cdf565b90509392505050565b6000604051905081810181811067ffffffffffffffff8211171561439457600080fd5b8060405250919050565b600067ffffffffffffffff8211156143b557600080fd5b602082029050602081019050919050565b600067ffffffffffffffff8211156143dd57600080fd5b601f19601f8301169050602081019050919050565b600067ffffffffffffffff82111561440957600080fd5b601f19601f8301169050602081019050919050565b60008190508160005260206000209050919050565b600081519050919050565b600081519050919050565b600082825260208201905092915050565b600082825260208201905092915050565b600082825260208201905092915050565b600081905092915050565b6000614492826144d1565b9050919050565b60008115159050919050565b60007fffffffff0000000000000000000000000000000000000000000000000000000082169050919050565b600073ffffffffffffffffffffffffffffffffffffffff82169050919050565b6000819050919050565b60006145068261450d565b9050919050565b60006145188261451f565b9050919050565b600061452a826144d1565b9050919050565b82818337600083830152505050565b60005b8381101561455e578082015181840152602081019050614543565b8381111561456d576000848401525b50505050565b6000601f19601f8301169050919050565b61458d81614487565b811461459857600080fd5b50565b6145a481614499565b81146145af57600080fd5b50565b6145bb816144a5565b81146145c657600080fd5b50565b6145d2816144f1565b81146145dd57600080fd5b5056fea26469706673582212206239d35d4eed3a321cbe95ed82333865b02e2b4de44a5869b477989850db9de264736f6c63430007000033",
  "immutableReferences": {},
  "source": "// SPDX-License-Identifier: MIT\r\n// based on https://github.com/ConsenSys/artifaqt/blob/master/contract/contracts/KOIOSNFT\r\n// Use for educational purposes only // without approval functions\r\n// Extended with templates\r\npragma experimental ABIEncoderV2;\r\npragma solidity ^0.7.0;\r\n\r\ncontract KOIOSNFT {  \r\n    event Transfer(address indexed _from, address indexed _to, uint256 indexed _tokenId);    \r\n    event NewBadge(uint256 _templateid,string _name);\r\n\r\n    string public  name;\r\n    string public  symbol;\r\n    address public  admin;\r\n    uint256 public  counter = 0;\r\n    \r\n    \r\n    uint256[]                      public allTokens; \r\n    mapping(uint256 => uint256)    public allTokensIndex;      \r\n    mapping(address => uint256[])  public ownedTokens;  \r\n    mapping(uint256 => uint256)    public ownedTokensIndex;     \r\n    mapping(uint256 => address)    public ownerOfToken;\r\n    mapping(uint256 => uint256)    public templateOf; // bundle NTF's\r\n    mapping(uint256 => uint256[])  public typedTokens; // get list per bundle\r\n    mapping(uint256 => uint256)    public typedTokensIndex;     \r\n    \r\n    \r\n    mapping(address => mapping( uint256 => uint256))  public ownedTypedTokens;  \r\n    \r\n    \r\n    \r\n    struct Template {\r\n        string  name;\r\n        string  cid;\r\n        uint256 managedBy; // template id of manager\r\n        bool SelfMint;\r\n        bool SelfBurn; \r\n        bool AllowTransfer;\r\n    }\r\n\r\n    Template[] public templates;\r\n    // Base URI\r\n    string private baseURI;\r\n\tstring private storecontractURI;\r\n    \r\n    address public receivedOperator;    // public to easily check\r\n    address public receivedFrom;        // public to easily check\r\n    uint256 public receivedTokenId;     // public to easily check\r\n    bytes   public receivedData;        // public to easily check\r\n    bytes4 internal constant ERC721_BASE_INTERFACE_SIGNATURE = 0x80ac58cd;\r\n    bytes4 internal constant ERC721_METADATA_INTERFACE_SIGNATURE = 0x5b5e139f;\r\n    bytes4 internal constant ERC721_ENUMERABLE_INTERFACE_SIGNATURE = 0x780e9d63;\r\n    bytes4 internal constant ONERC721RECEIVED_FUNCTION_SIGNATURE = 0x150b7a02;\r\n\r\n\tuint256 public constant CONTRACTTOKEN     = 0;    \r\n    uint256 public constant ADMINTOKEN        = 1;    \t\r\n    uint256 public constant BADGECREATORTOKEN = 2;\r\n\r\n    modifier tokenExists(uint256 _tokenId) {\r\n        require(uint256(ownerOfToken[_tokenId]) != 0);\r\n        _;\r\n    }\r\n    \r\n    modifier isAdmin {\r\n        require(msg.sender == admin || (ownedTypedTokens[msg.sender][ADMINTOKEN] > 0),\"Must have admin role to create token\");\r\n        _;\r\n    }\r\n    \r\n    modifier isBadgeCreator {\r\n        require(msg.sender == admin || (ownedTypedTokens[msg.sender][ADMINTOKEN] > 0) || (ownedTypedTokens[msg.sender][BADGECREATORTOKEN] > 0),\"Must have admin or badge creator role \");\r\n        _;\r\n    }\r\n    \r\n    modifier MayMint(uint256 _templateId) {\r\n        require(msg.sender == admin || \r\n            (ownedTypedTokens[msg.sender][ADMINTOKEN] > 0) || (ownedTypedTokens[msg.sender][BADGECREATORTOKEN] > 0) || templates[_templateId].SelfMint || (ownedTypedTokens[msg.sender][templates[_templateId].managedBy] > 0),\"Must have admin, badgecreator or manager role for the badge\");\r\n        _;\r\n        \r\n    }             \r\n    \r\n    constructor (string memory _name, string memory _symbol, string memory _baseURI) {\r\n        admin = msg.sender;\r\n        name = _name;\r\n        symbol = _symbol;\r\n        baseURI = _baseURI;\r\n    }\r\n    function onERC721Received(address _operator, address _from, uint256 _tokenId, bytes memory _data) public returns(bytes4) {\r\n        receivedOperator = _operator;\r\n        receivedFrom     = _from;\r\n        receivedTokenId  = _tokenId;\r\n        receivedData     = _data;\r\n        return ONERC721RECEIVED_FUNCTION_SIGNATURE;    \r\n    } \r\n    modifier allowedToTransfer(address _from, address _to, uint256 _tokenId) {\r\n        require(ownerOfToken[_tokenId] == _from);\r\n        require(uint256(_to) != 0); //not allowed to burn in transfer method\r\n        _;\r\n    }\r\n   \r\n    function settleTransfer(address _from, address _to, uint256 _tokenId) internal {\r\n        removeToken(_from, _tokenId);\r\n        addToken(_to, _tokenId);\r\n        emit Transfer(_from, _to, _tokenId);\r\n    }\r\n    function addToken(address _to, uint256 _tokenId) internal {\r\n        allTokens.push(_tokenId);\r\n        allTokensIndex[_tokenId] = allTokens.length-1;\r\n        ownerOfToken[_tokenId] = _to;        \r\n        ownedTokens[_to].push(_tokenId);\r\n        ownedTokensIndex[_tokenId] = ownedTokens[_to].length-1;\r\n        \r\n        uint256 templateId=templateOf[_tokenId];\r\n        ownedTypedTokens[_to][templateId]++;\r\n    }\r\n    function removeToken(address _from, uint256 _tokenId) internal {\r\n        uint256 allIndex = allTokensIndex[_tokenId];\r\n        uint256 allTokensLength = allTokens.length;\r\n        allTokens[allIndex] = allTokens[allTokensLength - 1];\r\n        allTokensIndex[allTokens[allTokensLength-1]] = allIndex;\r\n        allTokens.pop();\r\n        \r\n        uint256 ownerIndex = ownedTokensIndex[_tokenId];\r\n        uint256 ownerLength = ownedTokens[_from].length;\r\n        ownedTokens[_from][ownerIndex] = ownedTokens[_from][ownerLength-1];\r\n        ownedTokensIndex[ownedTokens[_from][ownerLength-1]] = ownerIndex;\r\n        ownedTokens[_from].pop();\r\n        uint256 templateId=templateOf[_tokenId];\r\n        ownedTypedTokens[_from][templateId]++;\r\n         \r\n        delete ownerOfToken[_tokenId];\r\n    }\r\n    \r\n    // public functions -------------------------------------------------------------------------------\r\n    \r\n    function transferFrom(address _from, address _to, uint256 _tokenId) public payable\r\n    tokenExists(_tokenId)\r\n    allowedToTransfer(_from, _to, _tokenId) {       \r\n        settleTransfer(_from, _to, _tokenId);\r\n    }\r\n    function safeTransferFrom(address _from, address _to, uint256 _tokenId, bytes memory data) public payable\r\n    tokenExists(_tokenId)\r\n    allowedToTransfer(_from, _to, _tokenId) {\r\n        settleTransfer(_from, _to, _tokenId);\r\n        uint256 size;\r\n        assembly { size := extcodesize(_to) }  // solhint-disable-line no-inline-assembly\r\n        if (size > 0) {\r\n            require(KOIOSNFT(_to).onERC721Received(msg.sender, _from, _tokenId, data) == ONERC721RECEIVED_FUNCTION_SIGNATURE);\r\n        }\r\n    }\r\n    function safeTransferFrom(address _from, address _to, uint256 _tokenId) public payable\r\n    tokenExists(_tokenId)\r\n    allowedToTransfer(_from, _to, _tokenId) {\r\n        settleTransfer(_from, _to, _tokenId);\r\n        uint256 size;\r\n        assembly { size := extcodesize(_to) }  // solhint-disable-line no-inline-assembly\r\n        if (size > 0) {\r\n            require(KOIOSNFT(_to).onERC721Received(msg.sender, _from, _tokenId, \"\") == ONERC721RECEIVED_FUNCTION_SIGNATURE);\r\n        }\r\n    }\r\n    function totalSupply() public view returns (uint256) {\r\n        return allTokens.length;\r\n    }\r\n    function ownerOf(uint256 _tokenId) external view\r\n    tokenExists(_tokenId) returns (address) {\r\n        return ownerOfToken[_tokenId];\r\n    }\r\n    function tokenByIndex(uint256 _index) external view returns (uint256) {\r\n        require(_index < allTokens.length);\r\n        return allTokens[_index];\r\n    }\r\n    function tokenOfOwnerByIndex(address _owner, uint256 _index) external view returns (uint256 _tokenId) {\r\n        require(_index < ownedTokens[_owner].length);\r\n        return ownedTokens[_owner][_index];\r\n    }\r\n    function balanceOf(address _owner) external view returns (uint256) {\r\n        require(uint256(_owner) != 0);\r\n        return ownedTokens[_owner].length;\r\n    }\r\n\r\n    function tokensOfType(uint256 _type) external view returns (uint256) {\r\n        return typedTokens[_type].length;\r\n    }\r\n    function tokenOfTypeByIndex(uint256 _type, uint256 _index) external view returns (uint256 _tokenId) {\r\n        require(_index < typedTokens[_type].length);\r\n        return typedTokens[_type][_index];\r\n    }\r\n    \r\n    function tokenURI(uint256 _tokenId) public view returns (string memory) {\r\n        uint256 templateId=templateOf[_tokenId];\r\n        return string(abi.encodePacked(baseURI, templates[templateId].cid));\r\n    }\r\n    \r\n    \r\n    \r\n    function supportsInterface(bytes4 interfaceID) external pure returns (bool) {\r\n        if (interfaceID == ERC721_BASE_INTERFACE_SIGNATURE ||\r\n        interfaceID == ERC721_METADATA_INTERFACE_SIGNATURE ||\r\n        interfaceID == ERC721_ENUMERABLE_INTERFACE_SIGNATURE) {\r\n            return true;\r\n        } else { return false; }\r\n    }\r\n    \r\n    \r\n    function createToken(address _to,uint256 _templateId) public MayMint( _templateId) {\r\n        \r\n        templateOf[counter]=_templateId;\r\n        typedTokens[_templateId].push(counter);\r\n        typedTokensIndex[_templateId] = typedTokens[_templateId].length-1;\r\n        \r\n        addToken(_to, counter);\r\n        emit Transfer(address(0), _to, counter);\r\n        counter += 1; // every new token gets a new ID\r\n    }\r\n    \r\n    \r\n    function createTokens(address[] memory _to,uint256 _templateId) public MayMint( _templateId) {\r\n        uint arrayLength = _to.length;\r\n        for (uint i = 0; i < arrayLength; i++) \r\n            createToken(_to[i],_templateId);        \r\n    }\r\n    \r\n    \r\n    function burnToken(uint256 _tokenId) public {\r\n        require(ownerOfToken[_tokenId] == msg.sender,\"Token should be in control of owner\");\r\n        uint256 templateId=templateOf[_tokenId];\r\n        \r\n        require(templates[templateId].SelfBurn,\"May not burn\");\r\n        \r\n        uint256 typedIndex = typedTokensIndex[_tokenId];\r\n        uint256 typedLength = typedTokens[templateId].length;\r\n        typedTokens[templateId][typedIndex] = typedTokens[templateId][typedLength-1];\r\n        typedTokensIndex[typedTokens[templateId][typedLength-1]] = typedIndex;\r\n        typedTokens[templateId].pop();\r\n        \r\n        removeToken(msg.sender, _tokenId);\r\n        emit Transfer(msg.sender, address(0), _tokenId);\r\n    }\r\n\r\n    function CreateNewBadge(string memory _name, string memory _cid, uint256 _managedBy, bool _SelfMint, bool _SelfBurn, bool _AllowTransfer) public  isBadgeCreator returns (uint256)  {        \r\n       templates.push(Template(_name, _cid,  _managedBy, _SelfMint,  _SelfBurn,  _AllowTransfer)); \r\n       createToken(admin,templates.length-1); // give everything also to admin       \r\n       \r\n       emit NewBadge(templates.length-1,_name);\r\n       return templates.length-1;\r\n    }\r\n    \r\n    \r\n    function UpdateBadge(uint256 _templateid,string memory _name, string memory _cid, uint256 _managedBy, bool _SelfMint, bool _SelfBurn, bool _AllowTransfer) public isAdmin {       \r\n       templates[_templateid]=Template(_name, _cid, _managedBy, _SelfMint,  _SelfBurn,  _AllowTransfer);\r\n    }\r\n    \r\n    function GetTemplateId(uint256 _tokenId) public view returns (uint256) {\r\n        return templateOf[_tokenId];\r\n    }\r\n    \r\n    function GetTemplateInfo(uint256 _templateid) public view returns ( Template memory)   {       \r\n       return templates[_templateid];\r\n    }\r\n    \r\n    function nrTemplates() external view returns (uint256) {\r\n        return templates.length;\r\n    }\r\n    function setBaseURI(string memory _baseURI) public isAdmin {\r\n         baseURI = _baseURI;\r\n    }\r\n\r\n    function setContractURI(string memory _contractURI) public isAdmin {\r\n         storecontractURI = _contractURI;\r\n    }\r\n    \r\n    function contractURI() public view returns (string memory) { // for opensea\r\n        return storecontractURI;\r\n    }\r\n\r\n\r\n    function checkIsAdmin() public view returns (bool) {\r\n        return msg.sender == admin || (ownedTypedTokens[msg.sender][ADMINTOKEN] > 0);\r\n    }\r\n    \r\n    function checkIsBadgeCreator() public view returns (bool)  {\r\n        return msg.sender == admin || (ownedTypedTokens[msg.sender][ADMINTOKEN] > 0) || (ownedTypedTokens[msg.sender][BADGECREATORTOKEN] > 0);\r\n    }\r\n    \r\n    function checkMayCreate(uint256 _templateId) public view returns (bool)  {\r\n        return msg.sender == admin || (ownedTypedTokens[msg.sender][ADMINTOKEN] > 0) || (ownedTypedTokens[msg.sender][templates[_templateId].managedBy] > 0);\r\n\r\n    }        \r\n    \r\n    function destroy() public  { \r\n        require(msg.sender == admin,\"Must be admin to destroy\");\r\n        selfdestruct(msg.sender);\r\n    }\r\n\r\n\r\n        \r\n         \r\n}",
  "sourcePath": "W:/gpersoon/koios/lib/smartcontracts/contracts/KOIOSNFT.sol",
  "compiler": {
    "name": "solc",
    "version": "0.7.0+commit.9e61f92b.Emscripten.clang"
  },
  "schemaVersion": "3.2.3",
  "updatedAt": "2020-09-02T15:13:57.845Z",
  "networkType": "ethereum",
  "devdoc": {
    "kind": "dev",
    "methods": {},
    "version": 1
  },
  "userdoc": {
    "kind": "user",
    "methods": {},
    "version": 1
  }
}