{
  "contractName": "KOIOSNFT",
  "abi": [
    {
      "inputs": [
        {
          "internalType": "string",
          "name": "_name",
          "type": "string"
        },
        {
          "internalType": "string",
          "name": "_symbol",
          "type": "string"
        },
        {
          "internalType": "string",
          "name": "_baseURI",
          "type": "string"
        }
      ],
      "stateMutability": "nonpayable",
      "type": "constructor"
    },
    {
      "anonymous": false,
      "inputs": [
        {
          "indexed": false,
          "internalType": "uint256",
          "name": "_templateid",
          "type": "uint256"
        },
        {
          "indexed": false,
          "internalType": "string",
          "name": "_name",
          "type": "string"
        }
      ],
      "name": "NewBadge",
      "type": "event"
    },
    {
      "anonymous": false,
      "inputs": [
        {
          "indexed": true,
          "internalType": "address",
          "name": "_from",
          "type": "address"
        },
        {
          "indexed": true,
          "internalType": "address",
          "name": "_to",
          "type": "address"
        },
        {
          "indexed": true,
          "internalType": "uint256",
          "name": "_tokenId",
          "type": "uint256"
        }
      ],
      "name": "Transfer",
      "type": "event"
    },
    {
      "inputs": [],
      "name": "ADMINTOKEN",
      "outputs": [
        {
          "internalType": "uint256",
          "name": "",
          "type": "uint256"
        }
      ],
      "stateMutability": "view",
      "type": "function",
      "constant": true
    },
    {
      "inputs": [],
      "name": "BADGECREATORTOKEN",
      "outputs": [
        {
          "internalType": "uint256",
          "name": "",
          "type": "uint256"
        }
      ],
      "stateMutability": "view",
      "type": "function",
      "constant": true
    },
    {
      "inputs": [],
      "name": "CONTRACTINFOTOKEN",
      "outputs": [
        {
          "internalType": "uint256",
          "name": "",
          "type": "uint256"
        }
      ],
      "stateMutability": "view",
      "type": "function",
      "constant": true
    },
    {
      "inputs": [],
      "name": "admin",
      "outputs": [
        {
          "internalType": "address",
          "name": "",
          "type": "address"
        }
      ],
      "stateMutability": "view",
      "type": "function",
      "constant": true
    },
    {
      "inputs": [
        {
          "internalType": "uint256",
          "name": "",
          "type": "uint256"
        }
      ],
      "name": "allTokens",
      "outputs": [
        {
          "internalType": "uint256",
          "name": "",
          "type": "uint256"
        }
      ],
      "stateMutability": "view",
      "type": "function",
      "constant": true
    },
    {
      "inputs": [
        {
          "internalType": "uint256",
          "name": "",
          "type": "uint256"
        }
      ],
      "name": "allTokensIndex",
      "outputs": [
        {
          "internalType": "uint256",
          "name": "",
          "type": "uint256"
        }
      ],
      "stateMutability": "view",
      "type": "function",
      "constant": true
    },
    {
      "inputs": [],
      "name": "counter",
      "outputs": [
        {
          "internalType": "uint256",
          "name": "",
          "type": "uint256"
        }
      ],
      "stateMutability": "view",
      "type": "function",
      "constant": true
    },
    {
      "inputs": [],
      "name": "name",
      "outputs": [
        {
          "internalType": "string",
          "name": "",
          "type": "string"
        }
      ],
      "stateMutability": "view",
      "type": "function",
      "constant": true
    },
    {
      "inputs": [
        {
          "internalType": "address",
          "name": "",
          "type": "address"
        },
        {
          "internalType": "uint256",
          "name": "",
          "type": "uint256"
        }
      ],
      "name": "ownedTokens",
      "outputs": [
        {
          "internalType": "uint256",
          "name": "",
          "type": "uint256"
        }
      ],
      "stateMutability": "view",
      "type": "function",
      "constant": true
    },
    {
      "inputs": [
        {
          "internalType": "uint256",
          "name": "",
          "type": "uint256"
        }
      ],
      "name": "ownedTokensIndex",
      "outputs": [
        {
          "internalType": "uint256",
          "name": "",
          "type": "uint256"
        }
      ],
      "stateMutability": "view",
      "type": "function",
      "constant": true
    },
    {
      "inputs": [
        {
          "internalType": "address",
          "name": "",
          "type": "address"
        },
        {
          "internalType": "uint256",
          "name": "",
          "type": "uint256"
        }
      ],
      "name": "ownedTypedTokens",
      "outputs": [
        {
          "internalType": "uint256",
          "name": "",
          "type": "uint256"
        }
      ],
      "stateMutability": "view",
      "type": "function",
      "constant": true
    },
    {
      "inputs": [
        {
          "internalType": "uint256",
          "name": "",
          "type": "uint256"
        }
      ],
      "name": "ownerOfToken",
      "outputs": [
        {
          "internalType": "address",
          "name": "",
          "type": "address"
        }
      ],
      "stateMutability": "view",
      "type": "function",
      "constant": true
    },
    {
      "inputs": [],
      "name": "receivedData",
      "outputs": [
        {
          "internalType": "bytes",
          "name": "",
          "type": "bytes"
        }
      ],
      "stateMutability": "view",
      "type": "function",
      "constant": true
    },
    {
      "inputs": [],
      "name": "receivedFrom",
      "outputs": [
        {
          "internalType": "address",
          "name": "",
          "type": "address"
        }
      ],
      "stateMutability": "view",
      "type": "function",
      "constant": true
    },
    {
      "inputs": [],
      "name": "receivedOperator",
      "outputs": [
        {
          "internalType": "address",
          "name": "",
          "type": "address"
        }
      ],
      "stateMutability": "view",
      "type": "function",
      "constant": true
    },
    {
      "inputs": [],
      "name": "receivedTokenId",
      "outputs": [
        {
          "internalType": "uint256",
          "name": "",
          "type": "uint256"
        }
      ],
      "stateMutability": "view",
      "type": "function",
      "constant": true
    },
    {
      "inputs": [],
      "name": "symbol",
      "outputs": [
        {
          "internalType": "string",
          "name": "",
          "type": "string"
        }
      ],
      "stateMutability": "view",
      "type": "function",
      "constant": true
    },
    {
      "inputs": [
        {
          "internalType": "uint256",
          "name": "",
          "type": "uint256"
        }
      ],
      "name": "templateOf",
      "outputs": [
        {
          "internalType": "uint256",
          "name": "",
          "type": "uint256"
        }
      ],
      "stateMutability": "view",
      "type": "function",
      "constant": true
    },
    {
      "inputs": [
        {
          "internalType": "uint256",
          "name": "",
          "type": "uint256"
        }
      ],
      "name": "templates",
      "outputs": [
        {
          "internalType": "string",
          "name": "name",
          "type": "string"
        },
        {
          "internalType": "string",
          "name": "cid",
          "type": "string"
        },
        {
          "internalType": "uint256",
          "name": "managedBy",
          "type": "uint256"
        },
        {
          "internalType": "bool",
          "name": "SelfMint",
          "type": "bool"
        },
        {
          "internalType": "bool",
          "name": "SelfBurn",
          "type": "bool"
        },
        {
          "internalType": "bool",
          "name": "AllowTransfer",
          "type": "bool"
        }
      ],
      "stateMutability": "view",
      "type": "function",
      "constant": true
    },
    {
      "inputs": [
        {
          "internalType": "uint256",
          "name": "",
          "type": "uint256"
        },
        {
          "internalType": "uint256",
          "name": "",
          "type": "uint256"
        }
      ],
      "name": "typedTokens",
      "outputs": [
        {
          "internalType": "uint256",
          "name": "",
          "type": "uint256"
        }
      ],
      "stateMutability": "view",
      "type": "function",
      "constant": true
    },
    {
      "inputs": [
        {
          "internalType": "uint256",
          "name": "",
          "type": "uint256"
        }
      ],
      "name": "typedTokensIndex",
      "outputs": [
        {
          "internalType": "uint256",
          "name": "",
          "type": "uint256"
        }
      ],
      "stateMutability": "view",
      "type": "function",
      "constant": true
    },
    {
      "inputs": [
        {
          "internalType": "address",
          "name": "_operator",
          "type": "address"
        },
        {
          "internalType": "address",
          "name": "_from",
          "type": "address"
        },
        {
          "internalType": "uint256",
          "name": "_tokenId",
          "type": "uint256"
        },
        {
          "internalType": "bytes",
          "name": "_data",
          "type": "bytes"
        }
      ],
      "name": "onERC721Received",
      "outputs": [
        {
          "internalType": "bytes4",
          "name": "",
          "type": "bytes4"
        }
      ],
      "stateMutability": "nonpayable",
      "type": "function"
    },
    {
      "inputs": [
        {
          "internalType": "address",
          "name": "_from",
          "type": "address"
        },
        {
          "internalType": "address",
          "name": "_to",
          "type": "address"
        },
        {
          "internalType": "uint256",
          "name": "_tokenId",
          "type": "uint256"
        }
      ],
      "name": "transferFrom",
      "outputs": [],
      "stateMutability": "payable",
      "type": "function",
      "payable": true
    },
    {
      "inputs": [
        {
          "internalType": "address",
          "name": "_from",
          "type": "address"
        },
        {
          "internalType": "address",
          "name": "_to",
          "type": "address"
        },
        {
          "internalType": "uint256",
          "name": "_tokenId",
          "type": "uint256"
        }
      ],
      "name": "safeTransferFrom",
      "outputs": [],
      "stateMutability": "payable",
      "type": "function",
      "payable": true
    },
    {
      "inputs": [
        {
          "internalType": "address",
          "name": "_from",
          "type": "address"
        },
        {
          "internalType": "address",
          "name": "_to",
          "type": "address"
        },
        {
          "internalType": "uint256",
          "name": "_tokenId",
          "type": "uint256"
        },
        {
          "internalType": "bytes",
          "name": "data",
          "type": "bytes"
        }
      ],
      "name": "safeTransferFrom",
      "outputs": [],
      "stateMutability": "payable",
      "type": "function",
      "payable": true
    },
    {
      "inputs": [],
      "name": "totalSupply",
      "outputs": [
        {
          "internalType": "uint256",
          "name": "",
          "type": "uint256"
        }
      ],
      "stateMutability": "view",
      "type": "function",
      "constant": true
    },
    {
      "inputs": [
        {
          "internalType": "uint256",
          "name": "_tokenId",
          "type": "uint256"
        }
      ],
      "name": "ownerOf",
      "outputs": [
        {
          "internalType": "address",
          "name": "",
          "type": "address"
        }
      ],
      "stateMutability": "view",
      "type": "function",
      "constant": true
    },
    {
      "inputs": [
        {
          "internalType": "uint256",
          "name": "_index",
          "type": "uint256"
        }
      ],
      "name": "tokenByIndex",
      "outputs": [
        {
          "internalType": "uint256",
          "name": "",
          "type": "uint256"
        }
      ],
      "stateMutability": "view",
      "type": "function",
      "constant": true
    },
    {
      "inputs": [
        {
          "internalType": "address",
          "name": "_owner",
          "type": "address"
        },
        {
          "internalType": "uint256",
          "name": "_index",
          "type": "uint256"
        }
      ],
      "name": "tokenOfOwnerByIndex",
      "outputs": [
        {
          "internalType": "uint256",
          "name": "_tokenId",
          "type": "uint256"
        }
      ],
      "stateMutability": "view",
      "type": "function",
      "constant": true
    },
    {
      "inputs": [
        {
          "internalType": "address",
          "name": "_owner",
          "type": "address"
        }
      ],
      "name": "balanceOf",
      "outputs": [
        {
          "internalType": "uint256",
          "name": "",
          "type": "uint256"
        }
      ],
      "stateMutability": "view",
      "type": "function",
      "constant": true
    },
    {
      "inputs": [
        {
          "internalType": "uint256",
          "name": "_type",
          "type": "uint256"
        }
      ],
      "name": "tokensOfType",
      "outputs": [
        {
          "internalType": "uint256",
          "name": "",
          "type": "uint256"
        }
      ],
      "stateMutability": "view",
      "type": "function",
      "constant": true
    },
    {
      "inputs": [
        {
          "internalType": "uint256",
          "name": "_type",
          "type": "uint256"
        },
        {
          "internalType": "uint256",
          "name": "_index",
          "type": "uint256"
        }
      ],
      "name": "tokenOfTypeByIndex",
      "outputs": [
        {
          "internalType": "uint256",
          "name": "_tokenId",
          "type": "uint256"
        }
      ],
      "stateMutability": "view",
      "type": "function",
      "constant": true
    },
    {
      "inputs": [
        {
          "internalType": "uint256",
          "name": "_tokenId",
          "type": "uint256"
        }
      ],
      "name": "tokenURI",
      "outputs": [
        {
          "internalType": "string",
          "name": "",
          "type": "string"
        }
      ],
      "stateMutability": "view",
      "type": "function",
      "constant": true
    },
    {
      "inputs": [
        {
          "internalType": "bytes4",
          "name": "interfaceID",
          "type": "bytes4"
        }
      ],
      "name": "supportsInterface",
      "outputs": [
        {
          "internalType": "bool",
          "name": "",
          "type": "bool"
        }
      ],
      "stateMutability": "pure",
      "type": "function",
      "constant": true
    },
    {
      "inputs": [
        {
          "internalType": "address",
          "name": "_to",
          "type": "address"
        },
        {
          "internalType": "uint256",
          "name": "_templateId",
          "type": "uint256"
        }
      ],
      "name": "createToken",
      "outputs": [],
      "stateMutability": "nonpayable",
      "type": "function"
    },
    {
      "inputs": [
        {
          "internalType": "address[]",
          "name": "_to",
          "type": "address[]"
        },
        {
          "internalType": "uint256",
          "name": "_templateId",
          "type": "uint256"
        }
      ],
      "name": "createTokens",
      "outputs": [],
      "stateMutability": "nonpayable",
      "type": "function"
    },
    {
      "inputs": [
        {
          "internalType": "uint256",
          "name": "_tokenId",
          "type": "uint256"
        }
      ],
      "name": "burnToken",
      "outputs": [],
      "stateMutability": "nonpayable",
      "type": "function"
    },
    {
      "inputs": [
        {
          "internalType": "string",
          "name": "_name",
          "type": "string"
        },
        {
          "internalType": "string",
          "name": "_cid",
          "type": "string"
        },
        {
          "internalType": "uint256",
          "name": "_managedBy",
          "type": "uint256"
        },
        {
          "internalType": "bool",
          "name": "_SelfMint",
          "type": "bool"
        },
        {
          "internalType": "bool",
          "name": "_SelfBurn",
          "type": "bool"
        },
        {
          "internalType": "bool",
          "name": "_AllowTransfer",
          "type": "bool"
        }
      ],
      "name": "CreateNewBadge",
      "outputs": [
        {
          "internalType": "uint256",
          "name": "",
          "type": "uint256"
        }
      ],
      "stateMutability": "nonpayable",
      "type": "function"
    },
    {
      "inputs": [
        {
          "internalType": "uint256",
          "name": "_templateid",
          "type": "uint256"
        },
        {
          "internalType": "string",
          "name": "_name",
          "type": "string"
        },
        {
          "internalType": "string",
          "name": "_cid",
          "type": "string"
        },
        {
          "internalType": "uint256",
          "name": "_managedBy",
          "type": "uint256"
        },
        {
          "internalType": "bool",
          "name": "_SelfMint",
          "type": "bool"
        },
        {
          "internalType": "bool",
          "name": "_SelfBurn",
          "type": "bool"
        },
        {
          "internalType": "bool",
          "name": "_AllowTransfer",
          "type": "bool"
        }
      ],
      "name": "UpdateBadge",
      "outputs": [],
      "stateMutability": "nonpayable",
      "type": "function"
    },
    {
      "inputs": [
        {
          "internalType": "uint256",
          "name": "_tokenId",
          "type": "uint256"
        }
      ],
      "name": "GetTemplateId",
      "outputs": [
        {
          "internalType": "uint256",
          "name": "",
          "type": "uint256"
        }
      ],
      "stateMutability": "view",
      "type": "function",
      "constant": true
    },
    {
      "inputs": [
        {
          "internalType": "uint256",
          "name": "_templateid",
          "type": "uint256"
        }
      ],
      "name": "GetTemplateInfo",
      "outputs": [
        {
          "components": [
            {
              "internalType": "string",
              "name": "name",
              "type": "string"
            },
            {
              "internalType": "string",
              "name": "cid",
              "type": "string"
            },
            {
              "internalType": "uint256",
              "name": "managedBy",
              "type": "uint256"
            },
            {
              "internalType": "bool",
              "name": "SelfMint",
              "type": "bool"
            },
            {
              "internalType": "bool",
              "name": "SelfBurn",
              "type": "bool"
            },
            {
              "internalType": "bool",
              "name": "AllowTransfer",
              "type": "bool"
            }
          ],
          "internalType": "struct KOIOSNFT.Template",
          "name": "",
          "type": "tuple"
        }
      ],
      "stateMutability": "view",
      "type": "function",
      "constant": true
    },
    {
      "inputs": [],
      "name": "nrTemplates",
      "outputs": [
        {
          "internalType": "uint256",
          "name": "",
          "type": "uint256"
        }
      ],
      "stateMutability": "view",
      "type": "function",
      "constant": true
    },
    {
      "inputs": [
        {
          "internalType": "string",
          "name": "_baseURI",
          "type": "string"
        }
      ],
      "name": "setBaseURI",
      "outputs": [],
      "stateMutability": "nonpayable",
      "type": "function"
    },
    {
      "inputs": [],
      "name": "contractURI",
      "outputs": [
        {
          "internalType": "string",
          "name": "",
          "type": "string"
        }
      ],
      "stateMutability": "view",
      "type": "function",
      "constant": true
    },
    {
      "inputs": [],
      "name": "checkIsAdmin",
      "outputs": [
        {
          "internalType": "bool",
          "name": "",
          "type": "bool"
        }
      ],
      "stateMutability": "view",
      "type": "function",
      "constant": true
    },
    {
      "inputs": [],
      "name": "checkIsBadgeCreator",
      "outputs": [
        {
          "internalType": "bool",
          "name": "",
          "type": "bool"
        }
      ],
      "stateMutability": "view",
      "type": "function",
      "constant": true
    },
    {
      "inputs": [
        {
          "internalType": "uint256",
          "name": "_templateId",
          "type": "uint256"
        }
      ],
      "name": "checkMayCreate",
      "outputs": [
        {
          "internalType": "bool",
          "name": "",
          "type": "bool"
        }
      ],
      "stateMutability": "view",
      "type": "function",
      "constant": true
    },
    {
      "inputs": [],
      "name": "destroy",
      "outputs": [],
      "stateMutability": "nonpayable",
      "type": "function"
    }
  ],
  "bytecode": "0x6080604052600a6003553480156200001657600080fd5b506040516200477f3803806200477f83398181016040528101906200003c9190620001d3565b33600260006101000a81548173ffffffffffffffffffffffffffffffffffffffff021916908373ffffffffffffffffffffffffffffffffffffffff160217905550826000908051906020019062000095929190620000d1565b508160019080519060200190620000ae929190620000d1565b5080600e9080519060200190620000c7929190620000d1565b5050505062000305565b828054600181600116156101000203166002900490600052602060002090601f016020900481019282601f106200011457805160ff191683800117855562000145565b8280016001018555821562000145579182015b828111156200014457825182559160200191906001019062000127565b5b50905062000154919062000158565b5090565b5b808211156200017357600081600090555060010162000159565b5090565b600082601f8301126200018957600080fd5b8151620001a06200019a82620002a2565b62000274565b91508082526020830160208301858383011115620001bd57600080fd5b620001ca838284620002cf565b50505092915050565b600080600060608486031215620001e957600080fd5b600084015167ffffffffffffffff8111156200020457600080fd5b620002128682870162000177565b935050602084015167ffffffffffffffff8111156200023057600080fd5b6200023e8682870162000177565b925050604084015167ffffffffffffffff8111156200025c57600080fd5b6200026a8682870162000177565b9150509250925092565b6000604051905081810181811067ffffffffffffffff821117156200029857600080fd5b8060405250919050565b600067ffffffffffffffff821115620002ba57600080fd5b601f19601f8301169050602081019050919050565b60005b83811015620002ef578082015181840152602081019050620002d2565b83811115620002ff576000848401525b50505050565b61446a80620003156000396000f3fe6080604052600436106102935760003560e01c806374e243671161015a578063b88d4fde116100c1578063c87b56dd1161007a578063c87b56dd14610ac8578063e149f03614610b05578063e5956a1914610b42578063e8a3d48514610b7f578063f851a44014610baa578063f91108c814610bd557610293565b8063b88d4fde1461099c578063bc525652146109b8578063bfacd7e8146109fa578063c194ba3114610a37578063c1afcfbb14610a60578063c57ac5d614610a8b57610293565b80638b75ccc9116101135780638b75ccc9146108525780638c476c241461087d57806395cb2574146108ba57806395d89b41146108f75780639e8d994a14610922578063a0eb027a1461095f57610293565b806374e24367146107545780637b47ec1a1461079157806383197ef0146107ba57806383e6ed5a146107d1578063864039de146107fc57806387d40a701461082757610293565b806342d8edea116101fe578063620de08b116101b7578063620de08b1461060c578063634282af146106495780636352211e146106865780636a10d4d6146106c35780636fb0518e146106ec57806370a082311461071757610293565b806342d8edea146104d657806344fd706a146105135780634da7a0431461053e5780634f6ccce71461057b57806355f804b3146105b857806361bc221a146105e157610293565b806323b872dd1161025057806323b872dd146103ce57806326f18fa3146103ea5780632edd2674146104155780632f745c591461045257806338cc60711461048f57806342842e0e146104ba57610293565b806301ffc9a7146102985780630693518d146102d557806306fdde03146102fe578063150b7a021461032957806318160ddd146103665780631f9f5a3914610391575b600080fd5b3480156102a457600080fd5b506102bf60048036038101906102ba91906137f7565b610c00565b6040516102cc9190613faf565b60405180910390f35b3480156102e157600080fd5b506102fc60048036038101906102f791906137a3565b610d00565b005b34801561030a57600080fd5b50610313610f36565b6040516103209190614007565b60405180910390f35b34801561033557600080fd5b50610350600480360381019061034b91906136ec565b610fd4565b60405161035d9190613fca565b60405180910390f35b34801561037257600080fd5b5061037b611088565b604051610388919061417a565b60405180910390f35b34801561039d57600080fd5b506103b860048036038101906103b39190613943565b611095565b6040516103c5919061417a565b60405180910390f35b6103e860048036038101906103e3919061369d565b6110b2565b005b3480156103f657600080fd5b506103ff6111b0565b60405161040c919061417a565b60405180910390f35b34801561042157600080fd5b5061043c60048036038101906104379190613a3a565b6111bd565b604051610449919061417a565b60405180910390f35b34801561045e57600080fd5b5061047960048036038101906104749190613767565b6111eb565b604051610486919061417a565b60405180910390f35b34801561049b57600080fd5b506104a4611298565b6040516104b1919061417a565b60405180910390f35b6104d460048036038101906104cf919061369d565b61129e565b005b3480156104e257600080fd5b506104fd60048036038101906104f89190613943565b61148c565b60405161050a919061417a565b60405180910390f35b34801561051f57600080fd5b506105286114a4565b6040516105359190613efe565b60405180910390f35b34801561054a57600080fd5b5061056560048036038101906105609190613943565b6114ca565b604051610572919061417a565b60405180910390f35b34801561058757600080fd5b506105a2600480360381019061059d9190613943565b6114e2565b6040516105af919061417a565b60405180910390f35b3480156105c457600080fd5b506105df60048036038101906105da9190613849565b611514565b005b3480156105ed57600080fd5b506105f6611619565b604051610603919061417a565b60405180910390f35b34801561061857600080fd5b50610633600480360381019061062e9190613767565b61161f565b604051610640919061417a565b60405180910390f35b34801561065557600080fd5b50610670600480360381019061066b9190613943565b611644565b60405161067d919061417a565b60405180910390f35b34801561069257600080fd5b506106ad60048036038101906106a89190613943565b611665565b6040516106ba9190613efe565b60405180910390f35b3480156106cf57600080fd5b506106ea60048036038101906106e59190613767565b6116fb565b005b3480156106f857600080fd5b506107016119f6565b60405161070e919061417a565b60405180910390f35b34801561072357600080fd5b5061073e60048036038101906107399190613674565b6119fb565b60405161074b919061417a565b60405180910390f35b34801561076057600080fd5b5061077b60048036038101906107769190613943565b611a6a565b604051610788919061417a565b60405180910390f35b34801561079d57600080fd5b506107b860048036038101906107b39190613943565b611a82565b005b3480156107c657600080fd5b506107cf611d12565b005b3480156107dd57600080fd5b506107e6611dbb565b6040516107f3919061417a565b60405180910390f35b34801561080857600080fd5b50610811611dc0565b60405161081e9190613faf565b60405180910390f35b34801561083357600080fd5b5061083c611ecf565b6040516108499190613fe5565b60405180910390f35b34801561085e57600080fd5b50610867611f6d565b6040516108749190613faf565b60405180910390f35b34801561088957600080fd5b506108a4600480360381019061089f919061388a565b612020565b6040516108b1919061417a565b60405180910390f35b3480156108c657600080fd5b506108e160048036038101906108dc9190613943565b6122f7565b6040516108ee9190614158565b60405180910390f35b34801561090357600080fd5b5061090c6124cb565b6040516109199190614007565b60405180910390f35b34801561092e57600080fd5b5061094960048036038101906109449190613943565b612569565b6040516109569190613faf565b60405180910390f35b34801561096b57600080fd5b5061098660048036038101906109819190613a3a565b612697565b604051610993919061417a565b60405180910390f35b6109b660048036038101906109b191906136ec565b6126ec565b005b3480156109c457600080fd5b506109df60048036038101906109da9190613943565b6128dd565b6040516109f196959493929190614029565b60405180910390f35b348015610a0657600080fd5b50610a216004803603810190610a1c9190613943565b612a7d565b604051610a2e919061417a565b60405180910390f35b348015610a4357600080fd5b50610a5e6004803603810190610a59919061396c565b612a95565b005b348015610a6c57600080fd5b50610a75612c7e565b604051610a82919061417a565b60405180910390f35b348015610a9757600080fd5b50610ab26004803603810190610aad9190613943565b612c83565b604051610abf9190613efe565b60405180910390f35b348015610ad457600080fd5b50610aef6004803603810190610aea9190613943565b612cb6565b604051610afc9190614007565b60405180910390f35b348015610b1157600080fd5b50610b2c6004803603810190610b279190613767565b612d18565b604051610b39919061417a565b60405180910390f35b348015610b4e57600080fd5b50610b696004803603810190610b649190613943565b612d46565b604051610b76919061417a565b60405180910390f35b348015610b8b57600080fd5b50610b94612d66565b604051610ba19190614007565b60405180910390f35b348015610bb657600080fd5b50610bbf612dae565b604051610bcc9190613efe565b60405180910390f35b348015610be157600080fd5b50610bea612dd4565b604051610bf79190613efe565b60405180910390f35b60006380ac58cd60e01b7bffffffffffffffffffffffffffffffffffffffffffffffffffffffff1916827bffffffffffffffffffffffffffffffffffffffffffffffffffffffff19161480610c995750635b5e139f60e01b7bffffffffffffffffffffffffffffffffffffffffffffffffffffffff1916827bffffffffffffffffffffffffffffffffffffffffffffffffffffffff1916145b80610ce8575063780e9d6360e01b7bffffffffffffffffffffffffffffffffffffffffffffffffffffffff1916827bffffffffffffffffffffffffffffffffffffffffffffffffffffffff1916145b15610cf65760019050610cfb565b600090505b919050565b80600260009054906101000a900473ffffffffffffffffffffffffffffffffffffffff1673ffffffffffffffffffffffffffffffffffffffff163373ffffffffffffffffffffffffffffffffffffffff161480610dad57506000600c60003373ffffffffffffffffffffffffffffffffffffffff1673ffffffffffffffffffffffffffffffffffffffff168152602001908152602001600020600080815260200190815260200160002054115b80610e0957506000600c60003373ffffffffffffffffffffffffffffffffffffffff1673ffffffffffffffffffffffffffffffffffffffff16815260200190815260200160002060006002815260200190815260200160002054115b80610e3c5750600d8181548110610e1c57fe5b906000526020600020906004020160030160009054906101000a900460ff165b80610eb557506000600c60003373ffffffffffffffffffffffffffffffffffffffff1673ffffffffffffffffffffffffffffffffffffffff1681526020019081526020016000206000600d8481548110610e9257fe5b906000526020600020906004020160020154815260200190815260200160002054115b610ef4576040517f08c379a0000000000000000000000000000000000000000000000000000000008152600401610eeb906140f8565b60405180910390fd5b60008351905060005b81811015610f2f57610f22858281518110610f1457fe5b6020026020010151856116fb565b8080600101915050610efd565b5050505050565b60008054600181600116156101000203166002900480601f016020809104026020016040519081016040528092919081815260200182805460018160011615610100020316600290048015610fcc5780601f10610fa157610100808354040283529160200191610fcc565b820191906000526020600020905b815481529060010190602001808311610faf57829003601f168201915b505050505081565b600084600f60006101000a81548173ffffffffffffffffffffffffffffffffffffffff021916908373ffffffffffffffffffffffffffffffffffffffff16021790555083601060006101000a81548173ffffffffffffffffffffffffffffffffffffffff021916908373ffffffffffffffffffffffffffffffffffffffff160217905550826011819055508160129080519060200190611075929190613387565b5063150b7a0260e01b9050949350505050565b6000600480549050905090565b600060096000838152602001908152602001600020549050919050565b8060006008600083815260200190815260200160002060009054906101000a900473ffffffffffffffffffffffffffffffffffffffff1673ffffffffffffffffffffffffffffffffffffffff16141561110a57600080fd5b8383838273ffffffffffffffffffffffffffffffffffffffff166008600083815260200190815260200160002060009054906101000a900473ffffffffffffffffffffffffffffffffffffffff1673ffffffffffffffffffffffffffffffffffffffff161461117857600080fd5b60008273ffffffffffffffffffffffffffffffffffffffff16141561119c57600080fd5b6111a7878787612dfa565b50505050505050565b6000600d80549050905090565b600a60205281600052604060002081815481106111d657fe5b90600052602060002001600091509150505481565b6000600660008473ffffffffffffffffffffffffffffffffffffffff1673ffffffffffffffffffffffffffffffffffffffff16815260200190815260200160002080549050821061123b57600080fd5b600660008473ffffffffffffffffffffffffffffffffffffffff1673ffffffffffffffffffffffffffffffffffffffff168152602001908152602001600020828154811061128557fe5b9060005260206000200154905092915050565b60115481565b8060006008600083815260200190815260200160002060009054906101000a900473ffffffffffffffffffffffffffffffffffffffff1673ffffffffffffffffffffffffffffffffffffffff1614156112f657600080fd5b8383838273ffffffffffffffffffffffffffffffffffffffff166008600083815260200190815260200160002060009054906101000a900473ffffffffffffffffffffffffffffffffffffffff1673ffffffffffffffffffffffffffffffffffffffff161461136457600080fd5b60008273ffffffffffffffffffffffffffffffffffffffff16141561138857600080fd5b611393878787612dfa565b6000863b905060008111156114825763150b7a0260e01b7bffffffffffffffffffffffffffffffffffffffffffffffffffffffff19168773ffffffffffffffffffffffffffffffffffffffff1663150b7a02338b8a6040518463ffffffff1660e01b815260040161140693929190613f65565b602060405180830381600087803b15801561142057600080fd5b505af1158015611434573d6000803e3d6000fd5b505050506040513d601f19601f820116820180604052508101906114589190613820565b7bffffffffffffffffffffffffffffffffffffffffffffffffffffffff19161461148157600080fd5b5b5050505050505050565b60056020528060005260406000206000915090505481565b600f60009054906101000a900473ffffffffffffffffffffffffffffffffffffffff1681565b600b6020528060005260406000206000915090505481565b600060048054905082106114f557600080fd5b6004828154811061150257fe5b90600052602060002001549050919050565b600260009054906101000a900473ffffffffffffffffffffffffffffffffffffffff1673ffffffffffffffffffffffffffffffffffffffff163373ffffffffffffffffffffffffffffffffffffffff1614806115c057506000600c60003373ffffffffffffffffffffffffffffffffffffffff1673ffffffffffffffffffffffffffffffffffffffff168152602001908152602001600020600080815260200190815260200160002054115b6115ff576040517f08c379a00000000000000000000000000000000000000000000000000000000081526004016115f690614138565b60405180910390fd5b80600e9080519060200190611615929190613407565b5050565b60035481565b600c602052816000526040600020602052806000526040600020600091509150505481565b6004818154811061165157fe5b906000526020600020016000915090505481565b60008160006008600083815260200190815260200160002060009054906101000a900473ffffffffffffffffffffffffffffffffffffffff1673ffffffffffffffffffffffffffffffffffffffff1614156116bf57600080fd5b6008600084815260200190815260200160002060009054906101000a900473ffffffffffffffffffffffffffffffffffffffff16915050919050565b80600260009054906101000a900473ffffffffffffffffffffffffffffffffffffffff1673ffffffffffffffffffffffffffffffffffffffff163373ffffffffffffffffffffffffffffffffffffffff1614806117a857506000600c60003373ffffffffffffffffffffffffffffffffffffffff1673ffffffffffffffffffffffffffffffffffffffff168152602001908152602001600020600080815260200190815260200160002054115b8061180457506000600c60003373ffffffffffffffffffffffffffffffffffffffff1673ffffffffffffffffffffffffffffffffffffffff16815260200190815260200160002060006002815260200190815260200160002054115b806118375750600d818154811061181757fe5b906000526020600020906004020160030160009054906101000a900460ff165b806118b057506000600c60003373ffffffffffffffffffffffffffffffffffffffff1673ffffffffffffffffffffffffffffffffffffffff1681526020019081526020016000206000600d848154811061188d57fe5b906000526020600020906004020160020154815260200190815260200160002054115b6118ef576040517f08c379a00000000000000000000000000000000000000000000000000000000081526004016118e6906140f8565b60405180910390fd5b8160096000600354815260200190815260200160002081905550600a600083815260200190815260200160002060035490806001815401808255809150506001900390600052602060002001600090919091909150556001600a60008481526020019081526020016000208054905003600b60008481526020019081526020016000208190555061198283600354612e6e565b6003548373ffffffffffffffffffffffffffffffffffffffff16600073ffffffffffffffffffffffffffffffffffffffff167fddf252ad1be2c89b69c2b068fc378daa952ba7f163c4a11628f55a4df523b3ef60405160405180910390a46001600360008282540192505081905550505050565b600081565b6000808273ffffffffffffffffffffffffffffffffffffffff161415611a2057600080fd5b600660008373ffffffffffffffffffffffffffffffffffffffff1673ffffffffffffffffffffffffffffffffffffffff168152602001908152602001600020805490509050919050565b60076020528060005260406000206000915090505481565b3373ffffffffffffffffffffffffffffffffffffffff166008600083815260200190815260200160002060009054906101000a900473ffffffffffffffffffffffffffffffffffffffff1673ffffffffffffffffffffffffffffffffffffffff1614611b23576040517f08c379a0000000000000000000000000000000000000000000000000000000008152600401611b1a906140b8565b60405180910390fd5b600060096000838152602001908152602001600020549050600d8181548110611b4857fe5b906000526020600020906004020160030160019054906101000a900460ff16611ba6576040517f08c379a0000000000000000000000000000000000000000000000000000000008152600401611b9d906140d8565b60405180910390fd5b6000600b60008481526020019081526020016000205490506000600a6000848152602001908152602001600020805490509050600a60008481526020019081526020016000206001820381548110611bfa57fe5b9060005260206000200154600a60008581526020019081526020016000208381548110611c2357fe5b906000526020600020018190555081600b6000600a60008781526020019081526020016000206001850381548110611c5757fe5b9060005260206000200154815260200190815260200160002081905550600a6000848152602001908152602001600020805480611c9057fe5b60019003818190600052602060002001600090559055611cb03385613049565b83600073ffffffffffffffffffffffffffffffffffffffff163373ffffffffffffffffffffffffffffffffffffffff167fddf252ad1be2c89b69c2b068fc378daa952ba7f163c4a11628f55a4df523b3ef60405160405180910390a450505050565b600260009054906101000a900473ffffffffffffffffffffffffffffffffffffffff1673ffffffffffffffffffffffffffffffffffffffff163373ffffffffffffffffffffffffffffffffffffffff1614611da2576040517f08c379a0000000000000000000000000000000000000000000000000000000008152600401611d9990614118565b60405180910390fd5b3373ffffffffffffffffffffffffffffffffffffffff16ff5b600281565b6000600260009054906101000a900473ffffffffffffffffffffffffffffffffffffffff1673ffffffffffffffffffffffffffffffffffffffff163373ffffffffffffffffffffffffffffffffffffffff161480611e6e57506000600c60003373ffffffffffffffffffffffffffffffffffffffff1673ffffffffffffffffffffffffffffffffffffffff168152602001908152602001600020600080815260200190815260200160002054115b80611eca57506000600c60003373ffffffffffffffffffffffffffffffffffffffff1673ffffffffffffffffffffffffffffffffffffffff16815260200190815260200160002060006002815260200190815260200160002054115b905090565b60128054600181600116156101000203166002900480601f016020809104026020016040519081016040528092919081815260200182805460018160011615610100020316600290048015611f655780601f10611f3a57610100808354040283529160200191611f65565b820191906000526020600020905b815481529060010190602001808311611f4857829003601f168201915b505050505081565b6000600260009054906101000a900473ffffffffffffffffffffffffffffffffffffffff1673ffffffffffffffffffffffffffffffffffffffff163373ffffffffffffffffffffffffffffffffffffffff16148061201b57506000600c60003373ffffffffffffffffffffffffffffffffffffffff1673ffffffffffffffffffffffffffffffffffffffff168152602001908152602001600020600080815260200190815260200160002054115b905090565b6000600260009054906101000a900473ffffffffffffffffffffffffffffffffffffffff1673ffffffffffffffffffffffffffffffffffffffff163373ffffffffffffffffffffffffffffffffffffffff1614806120ce57506000600c60003373ffffffffffffffffffffffffffffffffffffffff1673ffffffffffffffffffffffffffffffffffffffff168152602001908152602001600020600080815260200190815260200160002054115b8061212a57506000600c60003373ffffffffffffffffffffffffffffffffffffffff1673ffffffffffffffffffffffffffffffffffffffff16815260200190815260200160002060006002815260200190815260200160002054115b612169576040517f08c379a000000000000000000000000000000000000000000000000000000000815260040161216090614098565b60405180910390fd5b600d6040518060c0016040528089815260200188815260200187815260200186151581526020018515158152602001841515815250908060018154018082558091505060019003906000526020600020906004020160009091909190915060008201518160000190805190602001906121e3929190613407565b506020820151816001019080519060200190612200929190613407565b506040820151816002015560608201518160030160006101000a81548160ff02191690831515021790555060808201518160030160016101000a81548160ff02191690831515021790555060a08201518160030160026101000a81548160ff02191690831515021790555050506122a1600260009054906101000a900473ffffffffffffffffffffffffffffffffffffffff166001600d80549050036116fb565b7f46beb6b91724233777b2403033beabc2d79994bcc50d854fa1bbb9e6b56b59026001600d8054905003886040516122da929190614195565b60405180910390a16001600d805490500390509695505050505050565b6122ff613487565b600d828154811061230c57fe5b90600052602060002090600402016040518060c0016040529081600082018054600181600116156101000203166002900480601f0160208091040260200160405190810160405280929190818152602001828054600181600116156101000203166002900480156123be5780601f10612393576101008083540402835291602001916123be565b820191906000526020600020905b8154815290600101906020018083116123a157829003601f168201915b50505050508152602001600182018054600181600116156101000203166002900480601f0160208091040260200160405190810160405280929190818152602001828054600181600116156101000203166002900480156124605780601f1061243557610100808354040283529160200191612460565b820191906000526020600020905b81548152906001019060200180831161244357829003601f168201915b50505050508152602001600282015481526020016003820160009054906101000a900460ff161515151581526020016003820160019054906101000a900460ff161515151581526020016003820160029054906101000a900460ff1615151515815250509050919050565b60018054600181600116156101000203166002900480601f0160208091040260200160405190810160405280929190818152602001828054600181600116156101000203166002900480156125615780601f1061253657610100808354040283529160200191612561565b820191906000526020600020905b81548152906001019060200180831161254457829003601f168201915b505050505081565b6000600260009054906101000a900473ffffffffffffffffffffffffffffffffffffffff1673ffffffffffffffffffffffffffffffffffffffff163373ffffffffffffffffffffffffffffffffffffffff16148061261757506000600c60003373ffffffffffffffffffffffffffffffffffffffff1673ffffffffffffffffffffffffffffffffffffffff168152602001908152602001600020600080815260200190815260200160002054115b8061269057506000600c60003373ffffffffffffffffffffffffffffffffffffffff1673ffffffffffffffffffffffffffffffffffffffff1681526020019081526020016000206000600d858154811061266d57fe5b906000526020600020906004020160020154815260200190815260200160002054115b9050919050565b6000600a60008481526020019081526020016000208054905082106126bb57600080fd5b600a600084815260200190815260200160002082815481106126d957fe5b9060005260206000200154905092915050565b8160006008600083815260200190815260200160002060009054906101000a900473ffffffffffffffffffffffffffffffffffffffff1673ffffffffffffffffffffffffffffffffffffffff16141561274457600080fd5b8484848273ffffffffffffffffffffffffffffffffffffffff166008600083815260200190815260200160002060009054906101000a900473ffffffffffffffffffffffffffffffffffffffff1673ffffffffffffffffffffffffffffffffffffffff16146127b257600080fd5b60008273ffffffffffffffffffffffffffffffffffffffff1614156127d657600080fd5b6127e1888888612dfa565b6000873b905060008111156128d25763150b7a0260e01b7bffffffffffffffffffffffffffffffffffffffffffffffffffffffff19168873ffffffffffffffffffffffffffffffffffffffff1663150b7a02338c8b8b6040518563ffffffff1660e01b81526004016128569493929190613f19565b602060405180830381600087803b15801561287057600080fd5b505af1158015612884573d6000803e3d6000fd5b505050506040513d601f19601f820116820180604052508101906128a89190613820565b7bffffffffffffffffffffffffffffffffffffffffffffffffffffffff1916146128d157600080fd5b5b505050505050505050565b600d81815481106128ea57fe5b9060005260206000209060040201600091509050806000018054600181600116156101000203166002900480601f0160208091040260200160405190810160405280929190818152602001828054600181600116156101000203166002900480156129965780601f1061296b57610100808354040283529160200191612996565b820191906000526020600020905b81548152906001019060200180831161297957829003601f168201915b505050505090806001018054600181600116156101000203166002900480601f016020809104026020016040519081016040528092919081815260200182805460018160011615610100020316600290048015612a345780601f10612a0957610100808354040283529160200191612a34565b820191906000526020600020905b815481529060010190602001808311612a1757829003601f168201915b5050505050908060020154908060030160009054906101000a900460ff16908060030160019054906101000a900460ff16908060030160029054906101000a900460ff16905086565b60096020528060005260406000206000915090505481565b600260009054906101000a900473ffffffffffffffffffffffffffffffffffffffff1673ffffffffffffffffffffffffffffffffffffffff163373ffffffffffffffffffffffffffffffffffffffff161480612b4157506000600c60003373ffffffffffffffffffffffffffffffffffffffff1673ffffffffffffffffffffffffffffffffffffffff168152602001908152602001600020600080815260200190815260200160002054115b612b80576040517f08c379a0000000000000000000000000000000000000000000000000000000008152600401612b7790614138565b60405180910390fd5b6040518060c0016040528087815260200186815260200185815260200184151581526020018315158152602001821515815250600d8881548110612bc057fe5b90600052602060002090600402016000820151816000019080519060200190612bea929190613407565b506020820151816001019080519060200190612c07929190613407565b506040820151816002015560608201518160030160006101000a81548160ff02191690831515021790555060808201518160030160016101000a81548160ff02191690831515021790555060a08201518160030160026101000a81548160ff02191690831515021790555090505050505050505050565b600181565b60086020528060005260406000206000915054906101000a900473ffffffffffffffffffffffffffffffffffffffff1681565b6060600060096000848152602001908152602001600020549050600e600d8281548110612cdf57fe5b9060005260206000209060040201600101604051602001612d01929190613eda565b604051602081830303815290604052915050919050565b60066020528160005260406000208181548110612d3157fe5b90600052602060002001600091509150505481565b6000600a6000838152602001908152602001600020805490509050919050565b6060600e600d600181548110612d7857fe5b9060005260206000209060040201600101604051602001612d9a929190613eda565b604051602081830303815290604052905090565b600260009054906101000a900473ffffffffffffffffffffffffffffffffffffffff1681565b601060009054906101000a900473ffffffffffffffffffffffffffffffffffffffff1681565b612e048382613049565b612e0e8282612e6e565b808273ffffffffffffffffffffffffffffffffffffffff168473ffffffffffffffffffffffffffffffffffffffff167fddf252ad1be2c89b69c2b068fc378daa952ba7f163c4a11628f55a4df523b3ef60405160405180910390a4505050565b60048190806001815401808255809150506001900390600052602060002001600090919091909150556001600480549050036005600083815260200190815260200160002081905550816008600083815260200190815260200160002060006101000a81548173ffffffffffffffffffffffffffffffffffffffff021916908373ffffffffffffffffffffffffffffffffffffffff160217905550600660008373ffffffffffffffffffffffffffffffffffffffff1673ffffffffffffffffffffffffffffffffffffffff1681526020019081526020016000208190806001815401808255809150506001900390600052602060002001600090919091909150556001600660008473ffffffffffffffffffffffffffffffffffffffff1673ffffffffffffffffffffffffffffffffffffffff16815260200190815260200160002080549050036007600083815260200190815260200160002081905550600060096000838152602001908152602001600020549050600c60008473ffffffffffffffffffffffffffffffffffffffff1673ffffffffffffffffffffffffffffffffffffffff168152602001908152602001600020600082815260200190815260200160002060008154809291906001019190505550505050565b600060056000838152602001908152602001600020549050600060048054905090506004600182038154811061307b57fe5b90600052602060002001546004838154811061309357fe5b90600052602060002001819055508160056000600460018503815481106130b657fe5b906000526020600020015481526020019081526020016000208190555060048054806130de57fe5b600190038181906000526020600020016000905590556000600760008581526020019081526020016000205490506000600660008773ffffffffffffffffffffffffffffffffffffffff1673ffffffffffffffffffffffffffffffffffffffff168152602001908152602001600020805490509050600660008773ffffffffffffffffffffffffffffffffffffffff1673ffffffffffffffffffffffffffffffffffffffff16815260200190815260200160002060018203815481106131a057fe5b9060005260206000200154600660008873ffffffffffffffffffffffffffffffffffffffff1673ffffffffffffffffffffffffffffffffffffffff16815260200190815260200160002083815481106131f557fe5b90600052602060002001819055508160076000600660008a73ffffffffffffffffffffffffffffffffffffffff1673ffffffffffffffffffffffffffffffffffffffff168152602001908152602001600020600185038154811061325557fe5b9060005260206000200154815260200190815260200160002081905550600660008773ffffffffffffffffffffffffffffffffffffffff1673ffffffffffffffffffffffffffffffffffffffff1681526020019081526020016000208054806132ba57fe5b60019003818190600052602060002001600090559055600060096000878152602001908152602001600020549050600c60008873ffffffffffffffffffffffffffffffffffffffff1673ffffffffffffffffffffffffffffffffffffffff1681526020019081526020016000206000828152602001908152602001600020600081548092919060010191905055506008600087815260200190815260200160002060006101000a81549073ffffffffffffffffffffffffffffffffffffffff021916905550505050505050565b828054600181600116156101000203166002900490600052602060002090601f016020900481019282601f106133c857805160ff19168380011785556133f6565b828001600101855582156133f6579182015b828111156133f55782518255916020019190600101906133da565b5b50905061340391906134c3565b5090565b828054600181600116156101000203166002900490600052602060002090601f016020900481019282601f1061344857805160ff1916838001178555613476565b82800160010185558215613476579182015b8281111561347557825182559160200191906001019061345a565b5b50905061348391906134c3565b5090565b6040518060c001604052806060815260200160608152602001600081526020016000151581526020016000151581526020016000151581525090565b5b808211156134dc5760008160009055506001016134c4565b5090565b6000813590506134ef816143d8565b92915050565b600082601f83011261350657600080fd5b8135613519613514826141f2565b6141c5565b9150818183526020840193506020810190508385602084028201111561353e57600080fd5b60005b8381101561356e578161355488826134e0565b845260208401935060208301925050600181019050613541565b5050505092915050565b600081359050613587816143ef565b92915050565b60008135905061359c81614406565b92915050565b6000815190506135b181614406565b92915050565b600082601f8301126135c857600080fd5b81356135db6135d68261421a565b6141c5565b915080825260208301602083018583830111156135f757600080fd5b613602838284614385565b50505092915050565b600082601f83011261361c57600080fd5b813561362f61362a82614246565b6141c5565b9150808252602083016020830185838301111561364b57600080fd5b613656838284614385565b50505092915050565b60008135905061366e8161441d565b92915050565b60006020828403121561368657600080fd5b6000613694848285016134e0565b91505092915050565b6000806000606084860312156136b257600080fd5b60006136c0868287016134e0565b93505060206136d1868287016134e0565b92505060406136e28682870161365f565b9150509250925092565b6000806000806080858703121561370257600080fd5b6000613710878288016134e0565b9450506020613721878288016134e0565b93505060406137328782880161365f565b925050606085013567ffffffffffffffff81111561374f57600080fd5b61375b878288016135b7565b91505092959194509250565b6000806040838503121561377a57600080fd5b6000613788858286016134e0565b92505060206137998582860161365f565b9150509250929050565b600080604083850312156137b657600080fd5b600083013567ffffffffffffffff8111156137d057600080fd5b6137dc858286016134f5565b92505060206137ed8582860161365f565b9150509250929050565b60006020828403121561380957600080fd5b60006138178482850161358d565b91505092915050565b60006020828403121561383257600080fd5b6000613840848285016135a2565b91505092915050565b60006020828403121561385b57600080fd5b600082013567ffffffffffffffff81111561387557600080fd5b6138818482850161360b565b91505092915050565b60008060008060008060c087890312156138a357600080fd5b600087013567ffffffffffffffff8111156138bd57600080fd5b6138c989828a0161360b565b965050602087013567ffffffffffffffff8111156138e657600080fd5b6138f289828a0161360b565b955050604061390389828a0161365f565b945050606061391489828a01613578565b935050608061392589828a01613578565b92505060a061393689828a01613578565b9150509295509295509295565b60006020828403121561395557600080fd5b60006139638482850161365f565b91505092915050565b600080600080600080600060e0888a03121561398757600080fd5b60006139958a828b0161365f565b975050602088013567ffffffffffffffff8111156139b257600080fd5b6139be8a828b0161360b565b965050604088013567ffffffffffffffff8111156139db57600080fd5b6139e78a828b0161360b565b95505060606139f88a828b0161365f565b9450506080613a098a828b01613578565b93505060a0613a1a8a828b01613578565b92505060c0613a2b8a828b01613578565b91505092959891949750929550565b60008060408385031215613a4d57600080fd5b6000613a5b8582860161365f565b9250506020613a6c8582860161365f565b9150509250929050565b613a7f8161434f565b82525050565b613a8e816142db565b82525050565b613a9d816142ed565b82525050565b613aac816142ed565b82525050565b613abb816142f9565b82525050565b6000613acc82614287565b613ad6818561429d565b9350613ae6818560208601614394565b613aef816143c7565b840191505092915050565b6000613b0582614292565b613b0f81856142ae565b9350613b1f818560208601614394565b613b28816143c7565b840191505092915050565b6000613b3e82614292565b613b4881856142bf565b9350613b58818560208601614394565b613b61816143c7565b840191505092915050565b600081546001811660008114613b895760018114613bae57613bf2565b607f6002830416613b9a81876142d0565b955060ff1983168652808601935050613bf2565b60028204613bbc81876142d0565b9550613bc785614272565b60005b82811015613be957815481890152600182019150602081019050613bca565b82880195505050505b505092915050565b6000613c076026836142bf565b91507f4d75737420686176652061646d696e206f722062616467652063726561746f7260008301527f20726f6c652000000000000000000000000000000000000000000000000000006020830152604082019050919050565b6000613c6d6023836142bf565b91507f546f6b656e2073686f756c6420626520696e20636f6e74726f6c206f66206f7760008301527f6e657200000000000000000000000000000000000000000000000000000000006020830152604082019050919050565b6000613cd3600c836142bf565b91507f4d6179206e6f74206275726e00000000000000000000000000000000000000006000830152602082019050919050565b6000613d13603b836142bf565b91507f4d75737420686176652061646d696e2c20626164676563726561746f72206f7260008301527f206d616e6167657220726f6c6520666f722074686520626164676500000000006020830152604082019050919050565b6000613d7960008361429d565b9150600082019050919050565b6000613d936018836142bf565b91507f4d7573742062652061646d696e20746f2064657374726f7900000000000000006000830152602082019050919050565b6000613dd36024836142bf565b91507f4d75737420686176652061646d696e20726f6c6520746f20637265617465207460008301527f6f6b656e000000000000000000000000000000000000000000000000000000006020830152604082019050919050565b600060c0830160008301518482036000860152613e498282613afa565b91505060208301518482036020860152613e638282613afa565b9150506040830151613e786040860182613ebc565b506060830151613e8b6060860182613a94565b506080830151613e9e6080860182613a94565b5060a0830151613eb160a0860182613a94565b508091505092915050565b613ec581614345565b82525050565b613ed481614345565b82525050565b6000613ee68285613b6c565b9150613ef28284613b6c565b91508190509392505050565b6000602082019050613f136000830184613a85565b92915050565b6000608082019050613f2e6000830187613a76565b613f3b6020830186613a85565b613f486040830185613ecb565b8181036060830152613f5a8184613ac1565b905095945050505050565b6000608082019050613f7a6000830186613a76565b613f876020830185613a85565b613f946040830184613ecb565b8181036060830152613fa581613d6c565b9050949350505050565b6000602082019050613fc46000830184613aa3565b92915050565b6000602082019050613fdf6000830184613ab2565b92915050565b60006020820190508181036000830152613fff8184613ac1565b905092915050565b600060208201905081810360008301526140218184613b33565b905092915050565b600060c08201905081810360008301526140438189613b33565b905081810360208301526140578188613b33565b90506140666040830187613ecb565b6140736060830186613aa3565b6140806080830185613aa3565b61408d60a0830184613aa3565b979650505050505050565b600060208201905081810360008301526140b181613bfa565b9050919050565b600060208201905081810360008301526140d181613c60565b9050919050565b600060208201905081810360008301526140f181613cc6565b9050919050565b6000602082019050818103600083015261411181613d06565b9050919050565b6000602082019050818103600083015261413181613d86565b9050919050565b6000602082019050818103600083015261415181613dc6565b9050919050565b600060208201905081810360008301526141728184613e2c565b905092915050565b600060208201905061418f6000830184613ecb565b92915050565b60006040820190506141aa6000830185613ecb565b81810360208301526141bc8184613b33565b90509392505050565b6000604051905081810181811067ffffffffffffffff821117156141e857600080fd5b8060405250919050565b600067ffffffffffffffff82111561420957600080fd5b602082029050602081019050919050565b600067ffffffffffffffff82111561423157600080fd5b601f19601f8301169050602081019050919050565b600067ffffffffffffffff82111561425d57600080fd5b601f19601f8301169050602081019050919050565b60008190508160005260206000209050919050565b600081519050919050565b600081519050919050565b600082825260208201905092915050565b600082825260208201905092915050565b600082825260208201905092915050565b600081905092915050565b60006142e682614325565b9050919050565b60008115159050919050565b60007fffffffff0000000000000000000000000000000000000000000000000000000082169050919050565b600073ffffffffffffffffffffffffffffffffffffffff82169050919050565b6000819050919050565b600061435a82614361565b9050919050565b600061436c82614373565b9050919050565b600061437e82614325565b9050919050565b82818337600083830152505050565b60005b838110156143b2578082015181840152602081019050614397565b838111156143c1576000848401525b50505050565b6000601f19601f8301169050919050565b6143e1816142db565b81146143ec57600080fd5b50565b6143f8816142ed565b811461440357600080fd5b50565b61440f816142f9565b811461441a57600080fd5b50565b61442681614345565b811461443157600080fd5b5056fea2646970667358221220f03ab355571305466173e6ecb1fa42acc05926fde68cb6646762d7b28556966164736f6c63430007000033",
  "immutableReferences": {},
  "source": "// SPDX-License-Identifier: MIT\r\n// based on https://github.com/ConsenSys/artifaqt/blob/master/contract/contracts/KOIOSNFT\r\n// Use for educational purposes only // without approval functions\r\n// Extended with templates\r\npragma experimental ABIEncoderV2;\r\npragma solidity ^0.7.0;\r\n\r\ncontract KOIOSNFT {  \r\n    event Transfer(address indexed _from, address indexed _to, uint256 indexed _tokenId);    \r\n    event NewBadge(uint256 _templateid,string _name);\r\n\r\n    string public  name;\r\n    string public  symbol;\r\n    address public  admin;\r\n    uint256 public  counter = 10;\r\n    \r\n    \r\n    uint256[]                      public allTokens; \r\n    mapping(uint256 => uint256)    public allTokensIndex;      \r\n    mapping(address => uint256[])  public ownedTokens;  \r\n    mapping(uint256 => uint256)    public ownedTokensIndex;     \r\n    mapping(uint256 => address)    public ownerOfToken;\r\n    mapping(uint256 => uint256)    public templateOf; // bundle NTF's\r\n    mapping(uint256 => uint256[])  public typedTokens; // get list per bundle\r\n    mapping(uint256 => uint256)    public typedTokensIndex;     \r\n    \r\n    \r\n    mapping(address => mapping( uint256 => uint256))  public ownedTypedTokens;  \r\n    \r\n    \r\n    \r\n    struct Template {\r\n        string  name;\r\n        string  cid;\r\n        uint256 managedBy; // template id of manager\r\n        bool SelfMint;\r\n        bool SelfBurn; \r\n        bool AllowTransfer;\r\n    }\r\n\r\n    Template[] public templates;\r\n    // Base URI\r\n    string private baseURI;\r\n    \r\n    address public receivedOperator;    // public to easily check\r\n    address public receivedFrom;        // public to easily check\r\n    uint256 public receivedTokenId;     // public to easily check\r\n    bytes   public receivedData;        // public to easily check\r\n    bytes4 internal constant ERC721_BASE_INTERFACE_SIGNATURE = 0x80ac58cd;\r\n    bytes4 internal constant ERC721_METADATA_INTERFACE_SIGNATURE = 0x5b5e139f;\r\n    bytes4 internal constant ERC721_ENUMERABLE_INTERFACE_SIGNATURE = 0x780e9d63;\r\n    bytes4 internal constant ONERC721RECEIVED_FUNCTION_SIGNATURE = 0x150b7a02;\r\n\r\n    uint256 public constant ADMINTOKEN   = 0;    \r\n    uint256 public constant CONTRACTINFOTOKEN = 1;\r\n    uint256 public constant BADGECREATORTOKEN = 2;\r\n\r\n    modifier tokenExists(uint256 _tokenId) {\r\n        require(uint256(ownerOfToken[_tokenId]) != 0);\r\n        _;\r\n    }\r\n    \r\n    modifier isAdmin {\r\n        require(msg.sender == admin || (ownedTypedTokens[msg.sender][ADMINTOKEN] > 0),\"Must have admin role to create token\");\r\n        _;\r\n    }\r\n    \r\n    modifier isBadgeCreator {\r\n        require(msg.sender == admin || (ownedTypedTokens[msg.sender][ADMINTOKEN] > 0) || (ownedTypedTokens[msg.sender][BADGECREATORTOKEN] > 0),\"Must have admin or badge creator role \");\r\n        _;\r\n    }\r\n    \r\n    modifier MayMint(uint256 _templateId) {\r\n        require(msg.sender == admin || \r\n            (ownedTypedTokens[msg.sender][ADMINTOKEN] > 0) || (ownedTypedTokens[msg.sender][BADGECREATORTOKEN] > 0) || templates[_templateId].SelfMint || (ownedTypedTokens[msg.sender][templates[_templateId].managedBy] > 0),\"Must have admin, badgecreator or manager role for the badge\");\r\n        _;\r\n        \r\n    }             \r\n    \r\n    constructor (string memory _name, string memory _symbol, string memory _baseURI) {\r\n        admin = msg.sender;\r\n        name = _name;\r\n        symbol = _symbol;\r\n        baseURI = _baseURI;\r\n    }\r\n    function onERC721Received(address _operator, address _from, uint256 _tokenId, bytes memory _data) public returns(bytes4) {\r\n        receivedOperator = _operator;\r\n        receivedFrom     = _from;\r\n        receivedTokenId  = _tokenId;\r\n        receivedData     = _data;\r\n        return ONERC721RECEIVED_FUNCTION_SIGNATURE;    \r\n    } \r\n    modifier allowedToTransfer(address _from, address _to, uint256 _tokenId) {\r\n        require(ownerOfToken[_tokenId] == _from);\r\n        require(uint256(_to) != 0); //not allowed to burn in transfer method\r\n        _;\r\n    }\r\n   \r\n    function settleTransfer(address _from, address _to, uint256 _tokenId) internal {\r\n        removeToken(_from, _tokenId);\r\n        addToken(_to, _tokenId);\r\n        emit Transfer(_from, _to, _tokenId);\r\n    }\r\n    function addToken(address _to, uint256 _tokenId) internal {\r\n        allTokens.push(_tokenId);\r\n        allTokensIndex[_tokenId] = allTokens.length-1;\r\n        ownerOfToken[_tokenId] = _to;        \r\n        ownedTokens[_to].push(_tokenId);\r\n        ownedTokensIndex[_tokenId] = ownedTokens[_to].length-1;\r\n        \r\n        uint256 templateId=templateOf[_tokenId];\r\n        ownedTypedTokens[_to][templateId]++;\r\n    }\r\n    function removeToken(address _from, uint256 _tokenId) internal {\r\n        uint256 allIndex = allTokensIndex[_tokenId];\r\n        uint256 allTokensLength = allTokens.length;\r\n        allTokens[allIndex] = allTokens[allTokensLength - 1];\r\n        allTokensIndex[allTokens[allTokensLength-1]] = allIndex;\r\n        allTokens.pop();\r\n        \r\n        uint256 ownerIndex = ownedTokensIndex[_tokenId];\r\n        uint256 ownerLength = ownedTokens[_from].length;\r\n        ownedTokens[_from][ownerIndex] = ownedTokens[_from][ownerLength-1];\r\n        ownedTokensIndex[ownedTokens[_from][ownerLength-1]] = ownerIndex;\r\n        ownedTokens[_from].pop();\r\n        uint256 templateId=templateOf[_tokenId];\r\n        ownedTypedTokens[_from][templateId]++;\r\n         \r\n        delete ownerOfToken[_tokenId];\r\n    }\r\n    \r\n    // public functions -------------------------------------------------------------------------------\r\n    \r\n    function transferFrom(address _from, address _to, uint256 _tokenId) public payable\r\n    tokenExists(_tokenId)\r\n    allowedToTransfer(_from, _to, _tokenId) {       \r\n        settleTransfer(_from, _to, _tokenId);\r\n    }\r\n    function safeTransferFrom(address _from, address _to, uint256 _tokenId, bytes memory data) public payable\r\n    tokenExists(_tokenId)\r\n    allowedToTransfer(_from, _to, _tokenId) {\r\n        settleTransfer(_from, _to, _tokenId);\r\n        uint256 size;\r\n        assembly { size := extcodesize(_to) }  // solhint-disable-line no-inline-assembly\r\n        if (size > 0) {\r\n            require(KOIOSNFT(_to).onERC721Received(msg.sender, _from, _tokenId, data) == ONERC721RECEIVED_FUNCTION_SIGNATURE);\r\n        }\r\n    }\r\n    function safeTransferFrom(address _from, address _to, uint256 _tokenId) public payable\r\n    tokenExists(_tokenId)\r\n    allowedToTransfer(_from, _to, _tokenId) {\r\n        settleTransfer(_from, _to, _tokenId);\r\n        uint256 size;\r\n        assembly { size := extcodesize(_to) }  // solhint-disable-line no-inline-assembly\r\n        if (size > 0) {\r\n            require(KOIOSNFT(_to).onERC721Received(msg.sender, _from, _tokenId, \"\") == ONERC721RECEIVED_FUNCTION_SIGNATURE);\r\n        }\r\n    }\r\n    function totalSupply() public view returns (uint256) {\r\n        return allTokens.length;\r\n    }\r\n    function ownerOf(uint256 _tokenId) external view\r\n    tokenExists(_tokenId) returns (address) {\r\n        return ownerOfToken[_tokenId];\r\n    }\r\n    function tokenByIndex(uint256 _index) external view returns (uint256) {\r\n        require(_index < allTokens.length);\r\n        return allTokens[_index];\r\n    }\r\n    function tokenOfOwnerByIndex(address _owner, uint256 _index) external view returns (uint256 _tokenId) {\r\n        require(_index < ownedTokens[_owner].length);\r\n        return ownedTokens[_owner][_index];\r\n    }\r\n    function balanceOf(address _owner) external view returns (uint256) {\r\n        require(uint256(_owner) != 0);\r\n        return ownedTokens[_owner].length;\r\n    }\r\n\r\n    function tokensOfType(uint256 _type) external view returns (uint256) {\r\n        return typedTokens[_type].length;\r\n    }\r\n    function tokenOfTypeByIndex(uint256 _type, uint256 _index) external view returns (uint256 _tokenId) {\r\n        require(_index < typedTokens[_type].length);\r\n        return typedTokens[_type][_index];\r\n    }\r\n    \r\n    function tokenURI(uint256 _tokenId) public view returns (string memory) {\r\n        uint256 templateId=templateOf[_tokenId];\r\n        return string(abi.encodePacked(baseURI, templates[templateId].cid));\r\n    }\r\n    \r\n    \r\n    \r\n    function supportsInterface(bytes4 interfaceID) external pure returns (bool) {\r\n        if (interfaceID == ERC721_BASE_INTERFACE_SIGNATURE ||\r\n        interfaceID == ERC721_METADATA_INTERFACE_SIGNATURE ||\r\n        interfaceID == ERC721_ENUMERABLE_INTERFACE_SIGNATURE) {\r\n            return true;\r\n        } else { return false; }\r\n    }\r\n    \r\n    \r\n    function createToken(address _to,uint256 _templateId) public MayMint( _templateId) {\r\n        \r\n        templateOf[counter]=_templateId;\r\n        typedTokens[_templateId].push(counter);\r\n        typedTokensIndex[_templateId] = typedTokens[_templateId].length-1;\r\n        \r\n        addToken(_to, counter);\r\n        emit Transfer(address(0), _to, counter);\r\n        counter += 1; // every new token gets a new ID\r\n    }\r\n    \r\n    \r\n    function createTokens(address[] memory _to,uint256 _templateId) public MayMint( _templateId) {\r\n        uint arrayLength = _to.length;\r\n        for (uint i = 0; i < arrayLength; i++) \r\n            createToken(_to[i],_templateId);        \r\n    }\r\n    \r\n    \r\n    function burnToken(uint256 _tokenId) public {\r\n        require(ownerOfToken[_tokenId] == msg.sender,\"Token should be in control of owner\");\r\n        uint256 templateId=templateOf[_tokenId];\r\n        \r\n        require(templates[templateId].SelfBurn,\"May not burn\");\r\n        \r\n        uint256 typedIndex = typedTokensIndex[_tokenId];\r\n        uint256 typedLength = typedTokens[templateId].length;\r\n        typedTokens[templateId][typedIndex] = typedTokens[templateId][typedLength-1];\r\n        typedTokensIndex[typedTokens[templateId][typedLength-1]] = typedIndex;\r\n        typedTokens[templateId].pop();\r\n        \r\n        removeToken(msg.sender, _tokenId);\r\n        emit Transfer(msg.sender, address(0), _tokenId);\r\n    }\r\n\r\n    function CreateNewBadge(string memory _name, string memory _cid, uint256 _managedBy, bool _SelfMint, bool _SelfBurn, bool _AllowTransfer) public  isBadgeCreator returns (uint256)  {        \r\n       templates.push(Template(_name, _cid,  _managedBy, _SelfMint,  _SelfBurn,  _AllowTransfer)); \r\n       createToken(admin,templates.length-1); // give everything also to admin       \r\n       \r\n       emit NewBadge(templates.length-1,_name);\r\n       return templates.length-1;\r\n    }\r\n    \r\n    \r\n    function UpdateBadge(uint256 _templateid,string memory _name, string memory _cid, uint256 _managedBy, bool _SelfMint, bool _SelfBurn, bool _AllowTransfer) public isAdmin {       \r\n       templates[_templateid]=Template(_name, _cid, _managedBy, _SelfMint,  _SelfBurn,  _AllowTransfer);\r\n    }\r\n    \r\n    function GetTemplateId(uint256 _tokenId) public view returns (uint256) {\r\n        return templateOf[_tokenId];\r\n    }\r\n    \r\n    function GetTemplateInfo(uint256 _templateid) public view returns ( Template memory)   {       \r\n       return templates[_templateid];\r\n    }\r\n    \r\n    function nrTemplates() external view returns (uint256) {\r\n        return templates.length;\r\n    }\r\n    function setBaseURI(string memory _baseURI) public isAdmin {\r\n         baseURI = _baseURI;\r\n    }\r\n    \r\n    function contractURI() public view returns (string memory) { // for opensea, use the template#0\r\n        return string(abi.encodePacked(baseURI, templates[CONTRACTINFOTOKEN].cid));\r\n    }\r\n\r\n\r\n    function checkIsAdmin() public view returns (bool) {\r\n        return msg.sender == admin || (ownedTypedTokens[msg.sender][ADMINTOKEN] > 0);\r\n    }\r\n    \r\n    function checkIsBadgeCreator() public view returns (bool)  {\r\n        return msg.sender == admin || (ownedTypedTokens[msg.sender][ADMINTOKEN] > 0) || (ownedTypedTokens[msg.sender][BADGECREATORTOKEN] > 0);\r\n    }\r\n    \r\n    function checkMayCreate(uint256 _templateId) public view returns (bool)  {\r\n        return msg.sender == admin || (ownedTypedTokens[msg.sender][ADMINTOKEN] > 0) || (ownedTypedTokens[msg.sender][templates[_templateId].managedBy] > 0);\r\n\r\n    }        \r\n    \r\n    function destroy() public  { \r\n        require(msg.sender == admin,\"Must be admin to destroy\");\r\n        selfdestruct(msg.sender);\r\n    }\r\n\r\n\r\n        \r\n         \r\n}",
  "sourcePath": "W:/gpersoon/koios/lib/smartcontracts/contracts/KOIOSNFT.sol",
  "compiler": {
    "name": "solc",
    "version": "0.7.0+commit.9e61f92b.Emscripten.clang"
  },
  "schemaVersion": "3.2.3",
  "updatedAt": "2020-08-15T17:41:21.153Z",
  "networkType": "ethereum",
  "devdoc": {
    "kind": "dev",
    "methods": {},
    "version": 1
  },
  "userdoc": {
    "kind": "user",
    "methods": {},
    "version": 1
  }
}